:020000040000FA
:100000000C94D0000C94F8000C94F8000C94F800B8
:100010000C94F8000C94F8000C94F8000C94F80080
:100020000C94F8000C94F8000C94F8000C94110B4C
:100030000C94F8000C94F8000C94F8000C94F80060
:100040000C946F0A0C94F8000C94DF0A0C94B90A13
:100050000C94F8000C94F8000C94F8000C94F80040
:100060000C94F8000C94F8006382536300010800BC
:100070000604000100504F53542024462048545495
:10008000502F312E300D0A486F73743A2024460DDC
:100090000A244624534163636570743A202A2F2A48
:1000A0000D0A436F6E74656E742D4C656E677468CF
:1000B0003A2024440D0A436F6E74656E742D547992
:1000C00070653A206170706C69636174696F6E2F3E
:1000D000782D7777772D666F726D2D75726C656EE2
:1000E000636F6465640D0A0D0A245300474554206C
:1000F0002446245320485454502F312E300D0A48A2
:100100006F73743A2024460D0A24460D0A0D0A0026
:100110004500008200004000204163636570743A2E
:1001200020746578742F68746D6C003139322E310B
:1001300036382E322E31002F726669643F6D61733E
:10014000736167653D68656C6C6F0000000000249A
:100150000027002A0000000000250028002B0004D2
:10016000040404040404040202020202020303035E
:100170000303030102040810204080010204081058
:100180002001020408102000000008000201000005
:10019000030407000000000000000000CD0B511414
:1001A00011241FBECFEFD8E0DEBFCDBF11E0A0E02D
:1001B000B1E0E4E1FFE202C005900D92AE3DB1076F
:1001C000D9F725E0AEEDB1E001C01D92A53EB20722
:1001D000E1F710E0CFECD0E004C02197FE010E94CF
:1001E0006115CE3CD107C9F70E943B0C0C947D17DA
:1001F0000C9400008F929F92AF92BF92FF920F9348
:100200001F93CF93DF93F090DE052BE02F1508F4BA
:100210004CC02091E00508E512E0021B110927FD02
:100220001395000F111F000F111F2091DF05C8E863
:10023000D0E0C21BD10927FDD395CC0FDD1FCC0F19
:10024000DD1F4E010D2E000CAA08BB089801012EDF
:10025000000C440B550B281939094A095B09DC01CC
:100260000E94D11424EB30E040E050E00E94A7143B
:10027000820E931EA41EB51E8C169D062CF0E8015E
:10028000801691060CF4E4012297CC0FDD1F2FB7E6
:10029000F8948F2D90E0FC01EE0FFF1FE80FF91F7F
:1002A000ED54FA4FD283C1832FBFDF91CF911F91BD
:1002B0000F91FF90BF90AF909F908F900895CF9334
:1002C000DF93209112052223C1F0FC01208122231B
:1002D000A1F0C2E1D5E0AEE0B5E09C012C5F3F4F5C
:1002E000899141919D918427892339F4E217F3077D
:1002F000B9F781E0DF91CF91089580E0FBCFCF93F4
:10030000DF93EC01FB018A30910548F06AE070E070
:100310000E944D15CB01BF010E947F01FC01CE015F
:100320006AE070E00E944D15805D80831182CF01EC
:100330000196DF91CF91089590E0FC01E957FE4FBF
:100340002491FC01ED58FE4F3491FC01E15AFE4F1F
:10035000E491EE23C9F0222339F0233001F1A8F40F
:10036000213019F1223029F1F0E0EE0FFF1FEB5A96
:10037000FE4FA591B4918FB7F894EC91611126C00E
:1003800030953E233C938FBF08952730A9F0283045
:10039000C9F0243049F7809180008F7D03C080919F
:1003A00080008F7780938000DFCF84B58F7784BD06
:1003B000DBCF84B58F7DFBCF8091B0008F778093AA
:1003C000B000D2CF8091B0008F7DF9CF3E2BDACF35
:1003D000CF93DF9390E0FC01ED58FE4F2491815ABA
:1003E0009E4FFC0184918823D1F090E0880F991FE3
:1003F000FC01E55BFE4FA591B491FC01EB5AFE4F69
:10040000C591D49161110EC09FB7F8948C91E22FE1
:10041000E0958E238C932881E223E8839FBFDF91B0
:10042000CF9108958FB7F894EC91E22BEC938FBFA6
:10043000F6CF3FB7F89480910A0590910B05A091F3
:100440000C05B0910D0526B5A89B05C02F3F19F0EE
:100450000196A11DB11D3FBFBA2FA92F982F882744
:10046000BC01CD01620F711D811D911D42E0660F1F
:10047000771F881F991F4A95D1F708958F929F92F1
:10048000AF92BF92CF92DF92EF92FF924B015C014D
:100490000E9419026B017C010E9419026C197D09EE
:1004A0008E099F09683E734081059105A8F321E0FC
:1004B000821A9108A108B10888EEC80E83E0D81E00
:1004C000E11CF11C81149104A104B10429F7FF90EF
:1004D000EF90DF90CF90BF90AF909F908F90089556
:1004E0002FB7F89460910605709107058091080573
:1004F000909109052FBF0895AF92BF92CF92DF92DE
:10050000EF92FF920F931F93CF93DF936C017B01C8
:100510008B01040F151FEB015E01AE18BF08C01759
:10052000D10759F06991D601ED91FC910190F081CC
:10053000E02DC6010995892B79F7C501DF91CF918F
:100540001F910F91FF90EF90DF90CF90BF90AF90F1
:100550000895FC01538D448D252F30E0842F90E0C9
:10056000821B930B541710F0CF96089501970895AE
:10057000FC01918D828D981761F0A28DAE0FBF2F77
:10058000B11D5D968C91928D9F5F9F73928F90E0CD
:1005900008958FEF9FEF08950F931F930E947002AD
:1005A00060931E0570931F0580932005909321058D
:1005B00086E195E00E94B80297FF1DC00E9470027C
:1005C00000911E0510911F052091200530912105F5
:1005D000601B710B820B930B00911A0510911B0588
:1005E00020911C0530911D05601771078207930744
:1005F000F8F28FEF9FEF1F910F910895FC01918DFD
:10060000828D981731F0828DE80FF11D858D90E075
:1006100008958FEF9FEF0895FC01918D228D892F12
:1006200090E0805C9F4F821B91098F7399270895FA
:1006300086E195E00E940C0321E0892B09F420E07B
:10064000822F089580E090E0892B29F00E94180302
:1006500081110C9400000895FC01A48DA80FB92FFE
:10066000B11DA35ABF4F2C91848D90E001968F73DA
:100670009927848FA689B7892C93A089B1898C91F9
:10068000837080648C93938D848D981306C0028848
:10069000F389E02D80818F7D80830895EF92FF9212
:1006A0000F931F93CF93DF93EC0181E0888F9B8D95
:1006B0008C8D98131AC0E889F989808185FF15C04F
:1006C0009FB7F894EE89FF896083E889F989808172
:1006D0008370806480839FBF81E090E0DF91CF9141
:1006E0001F910F91FF90EF900895F62E0B8D10E063
:1006F0000F5F1F4F0F731127E02E8C8D8E110CC0D2
:100700000FB607FCFACFE889F989808185FFF5CF1C
:10071000CE010E942C03F1CFEB8DEC0FFD2FF11DCC
:10072000E35AFF4FF0829FB7F8940B8FEA89FB8959
:1007300080818062CFCFCF93DF93EC01888D8823B7
:10074000B9F0AA89BB89E889F9898C9185FD03C034
:10075000808186FD0DC00FB607FCF7CF8C9185FF19
:10076000F2CF808185FFEDCFCE010E942C03E9CF2F
:10077000DF91CF91089580912B0290912C029827C0
:100780008927982744972091490230E044E0359525
:1007900027954A95E1F7220F331F220F331F821B43
:1007A000930B97FF02C090E080E0089520913F02F4
:1007B00030913D0230933F0220933D022091400250
:1007C00030913E023093400220933E02EBE1F2E092
:1007D00021A5820F911D25A585A7662381F021A75C
:1007E000892F9927319722E0E731F20789F7109294
:1007F0004D0210924E0280E580934902089511A6A1
:10080000EFCF0F931F93CF93DF9370E0655E7D4F23
:100810008A01075F1F4F213029F0223031F48A010D
:100820000250110930E020E003C000E010E0980120
:10083000EB01FA01E230F10558F0A991B991BA271C
:10084000AB27BA270A0F1B1F211D311D3297F2CF8C
:10085000FA01EE7F6E0F7F1F4E175F0769F0FB01F5
:10086000408150E070E060E0762F652F542F4427E0
:10087000040F151F261F371FA9016627772741156B
:1008800051056105710519F022273327F1CF009535
:100890001095E82FF0E0E55EFD4F10830183DF91B6
:1008A000CF911F910F910895EBE1F2E0108E118E20
:1008B00080E4848B158A868B20E044E150E06EE072
:1008C00088E10C940104DC011696ED91FC911797D8
:1008D0009F012F5F3F4F17963C932E93169760838F
:1008E00081E090E00895089590E080E008958EBD45
:1008F0000DB407FEFDCF089561E08091E2010E94F2
:100900009C0178940895F89460E08091E2010C9441
:100910009C010F931F93CF93DF93EC018B010E94F7
:1009200083042097B9F08AE30E9477041EBCF80183
:10093000CE01019739F00DB407FEFDCF2EB51EBCD8
:100940002193F7CF2197C00FD11F0DB407FEFDCF24
:100950008EB58883DF91CF911F910F910C947C0409
:100960001F93CF93DF93182FC62FD42F0E94830499
:100970008C2F8F71812B0E9477048D2F0E9477041A
:10098000DF91CF911F910C947C04CF93C82FC07638
:100990008091E1018C1799F043E06FE180EA0E94B9
:1009A000B004C093E1014C2F50E085E05595479588
:1009B0008A95E1F76FE180E8CF910C94B004CF9174
:1009C0000895CF93DF93C82FD62F0E94C5044D2FD3
:1009D0006C2F80E4DF91CF910C94B004CF93DF9320
:1009E000C82FD72F0E94E1046D2F81E08C0FDF917B
:1009F000CF910C94E104CF93C82F0E94C5040E94AC
:100A000083048C2F8F710E94770480E00E9477040A
:100A1000C7FF03C080E00E947704CEB50E947C042B
:100A20008C2FCF910895CF93DF93EC0140E86FE1D5
:100A300080E80E94B00440E86FE180EA0E94B004C0
:100A40004AE06CE180EA0E94B00460E07CE082E071
:100A50000E94EE04BE01745F86E00E94EE0440E056
:100A600060E08AE70E94B0040E9483042097B1F0FE
:100A70008AE70E94770480911B028EBDECE1F2E0D0
:100A8000C55EDD4FEC17FD0731F081910DB407FE17
:100A9000FDCF8EBDF7CF0DB407FEFDCF0E947C04C5
:100AA00048E06FE180E80E94B004D0E0C0E08CE153
:100AB0000E94FB048A7029F42196C83E83E0D8077F
:100AC000B1F78CE10E94FB0481FD03C0C83ED34016
:100AD00039F448E06FE180EADF91CF910C94B004E3
:100AE000DF91CF910895CF93DF93EB01682F84EDD1
:100AF0000E94E104BE0186ED0E94EE048AEE0E948F
:100B0000FB0480FDFBCFDF91CF910895CF92DF9260
:100B1000EF92FF920F931F938634910568F1209115
:100B20003E02233449F5C0904902D0904A02E09039
:100B30004B02F0904C020091F4011091F5012091CC
:100B4000F6013091F701C016D106E206F306A1F4D2
:100B5000E5E3F3E0855E9D4F9F012E5F3F4F4181AE
:100B60005081553319F45281651771F0F901E40F82
:100B7000F11DE817F90780F380E01F910F91FF90B6
:100B8000EF90DF90CF90089581E0F7CFE091DF0103
:100B9000F091E0019F012F5F3F4F3093E0012093E0
:100BA000DF0180830895FF920F931F93CF93DF930C
:100BB000162FF42E052F0E94C605812F0E94C60510
:100BC000CF2DD02F115020F089910E94C605FACF69
:100BD000DF91CF911F910F91FF900895FC0101903B
:100BE0000020E9F73197AF01481B590BBC0186E1A2
:100BF00095E00C947C028F929F92AF92BF920F93DC
:100C00001F93CF93DF93CDB7DEB7A1970FB6F894BC
:100C1000DEBF0FBECDBF19A2423008F44AE08E01FC
:100C20000F5D1F4F842E912CB12CA12CA501940196
:100C30000E941015E62FB901CA01EA30F4F4E05D14
:100C4000D801EE938D01232B242B252B79F790E0EF
:100C500080E0109719F0CD010E94EE05A1960FB625
:100C6000F894DEBF0FBECDBFDF91CF911F910F91E2
:100C7000BF90AF909F908F900895E95CE1CFCF93A4
:100C8000DF930E94EE05EC018EE591E00E94EE05F7
:100C90008C0F9D1FDF91CF91089581E691E00C9418
:100CA0003F06FC0180819181009711F00C9403169E
:100CB00008950F931F93CF93DF93EC01888199815F
:100CC000009759F02A813B812617370730F081E0E1
:100CD000DF91CF911F910F9108958B016F5F7F4F2F
:100CE0000E948C16009759F0998388831B830A838E
:100CF0002C813D81232B59F7FC011082E8CF80E045
:100D0000E7CFEF92FF920F931F93CF93DF9361157D
:100D1000710541F480E0DF91CF911F910F91FF9019
:100D2000EF90089541155105B1F07B01EC010C8164
:100D30001D81040F151FB8010E945906882351F325
:100D4000288139818C819D81B701820F931F0E9478
:100D500068171D830C8381E0DECFEF92FF920F9323
:100D60001F93CF93DF93EC017B018A01BA010E94AC
:100D7000590628813981811114C02115310519F0D6
:100D8000C9010E940316198218821D821C821B82CF
:100D90001A82CE01DF91CF911F910F91FF90EF90BA
:100DA00008951D830C83B701C9010E946817F1CF14
:100DB000FB0101900020E9F73197AF01461B570B6B
:100DC0000C94AD06DC0196E0FB0101900D929A9522
:100DD000E1F70895CF93DF93EB0144E050E0BC01CD
:100DE00087E392E00E944917892B49F461E372E09E
:100DF000CE010E94E20681E0DF91CF91089580E06C
:100E0000FBCFBC018BE192E00E94E20665E072E05C
:100E100081E292E00C94E206DC0194E0FB01019097
:100E20000D929A95E1F708950F931F93CF938C013C
:100E300086E491E00E940107EBE1F2E088E084871C
:100E4000C6E0C58748E050E06CE670E089E292E0D9
:100E50000E945514EBE3F2E0DF011D92CA95E9F719
:100E600065E072E081E392E00E94E206B80181E46D
:100E700092E00E940C0762E175E087E392E00E9435
:100E80000C078AE290E0CF911F910F910C9413050B
:100E900081E292E00E94010765E372E089E392E05B
:100EA0000E940C0762E175E085E392E00E940C0766
:100EB0000C945404262F206120934A02643021F0C0
:100EC000009711F481E090E061E00E94D603109257
:100ED0002B0288E280932C020E94480784E08093D2
:100EE0004B0210924C0222E04CE150E06AE182E3B6
:100EF0000E94010486E390E00C941305CF93DF93E6
:100F0000EB010E940107BE0189E392E00E940C07F9
:100F100062E175E085E392E0DF91CF910C940C07DC
:100F2000EF92FF920F931F93CF93DF938C01EBE12E
:100F3000F2E086E191E0DF019C011D9221503040FA
:100F4000E1F780910402C6E4D1E0833011F4CFEEE2
:100F5000D1E0CE010E945F01BE01882309F4ACC03C
:100F60008FE092E00E947E078881807F803E91F032
:100F700088819981AA81BB818F3F9F4FAF4FBF4F1F
:100F800049F044E050E0BE018BE092E00E94491736
:100F9000892B31F466E471E08BE192E00E94E20675
:100FA00088E0809327021092280249E050E060E137
:100FB00071E089E292E00E94551410922B0281E1C7
:100FC0008093320210923F0283E480934002109299
:100FD0003D0284E480933E0210924102109243024B
:100FE0001092440266E471E08BE192E00E94E20616
:100FF00081E0809345028093460286E08093470219
:101000008091F4019091F501A091F601B091F70162
:101010008093490290934A02A0934B02B0934C02F2
:10102000C0910402C33031F462E175E081E592E0E1
:101030000E940C0765E072E081E692E00E94E20601
:1010400081E393E09093E0018093DF01E8E6F0E034
:1010500084910E94C605E9E6F0E084910E94C605ED
:10106000EAE6F0E084910E94C605EBE6F0E08491A8
:101070000E94C60585E30E94C60581E00E94C60560
:1010800083E0C11101C081E00E94C6058DE30E948A
:10109000C60587E00E94C60581E00E94C60585E07E
:1010A000E82E82E0F82EC7E0C15049F0D7018D91BB
:1010B0007D010E94C605F8CF85E192E053CF809173
:1010C0000001882371F060E071E0FB0101900020D5
:1010D000E9F7BF016150714040E051E08CE00E94AF
:1010E000D3050115110559F0A80164E082E30E94BF
:1010F000D3054FEE51E064E086E30E94D30587E319
:101100000E94C60583E00E94C60581E00E94C605D4
:1011100083E00E94C60586E00E94C6058FEF0E940C
:10112000C605C091DF01D091E001C554D240CE0187
:101130004C9690932B0280932C020E945404CE0173
:1011400008969093410280934202AE01405F5F4F48
:1011500021E06AE188E20E940104CE018A96DF91D3
:10116000CF911F910F91FF90EF900C9413050F9367
:101170001F93CF93DF9389019091F304981781F027
:10118000E091F404F091F50450E040E070E060E09C
:1011900084E0099580E0DF91CF911F910F91089530
:1011A0006111F8CF2D303105A8F3C091F404D0912E
:1011B000F504209779F3BA016C5D7D4F43E050E070
:1011C0008EE791E00E946F176091490270E024E081
:1011D000759567952A95E1F7660F771F660F771F5C
:1011E0006E5D7F4F21E0892B09F420E0A801822F5A
:1011F000FE01CFCFAF92BF92CF92DF92EF92FF92DC
:101200000F931F93CF93DF93CDB7DEB7ED84FE84AA
:10121000CF84D8888E010F5E1F4FC6010196F6015C
:101220002491222309F4D1C0243279F0D7011696F3
:10123000ED91FC911797AF014F5F5F4F17965C934D
:101240004E93169720836C01E8CFB2E0CB0ED11CF1
:10125000FC018491863409F481C0A0F4843409F43B
:101260004CC0853409F494C0D7011696ED91FC91D9
:1012700017979F012F5F3F4F17963C932E9316971A
:101280008083CBCFD70116964D915C918C3409F4B5
:101290004DC0833509F457C0883431F7B8016E5F0B
:1012A0007F4FF8019081292F092E000C330B84E029
:1012B000359527958A95E1F72F709F709A300CF03D
:1012C000995F905D2A300CF0295FFA013196D701C1
:1012D0001796FC93EE931697205DFA0120831696DD
:1012E000ED91FC9117979F012F5F3F4F17963C930D
:1012F0002E93169790838B0190CF5801B2E0AB0EDE
:10130000B11CF70166817781D8018D919C910E9473
:101310007F01F70186819781DC010D900020E9F7BC
:10132000CD01019797838683850177CF5801F4E03B
:10133000AF0EB11CD8016D917D918D919C912AE0E9
:101340000E945E14E6CF5801B2E0AB0EB11CF8016A
:1013500060817181CA010E946817DBCFF80101909A
:10136000F081E02D0E5F1F4F84913196882309F4A0
:1013700054CFD70116964D915C9117979A012F5F24
:101380003F4F17963C932E931697DA018C93ECCF30
:10139000F801808191810E5F1F4F5C01BFEFAB1A96
:1013A000BB0A0E949F14882309F437CFD7011696F1
:1013B000ED91FC9117979F012F5F3F4F17963C933C
:1013C0002E9316978083C501E8CFDF91CF911F91AF
:1013D0000F91FF90EF90DF90CF90BF90AF90089566
:1013E0000F931F93CF93DF93CDB7DEB728970FB638
:1013F000F894DEBF0FBECDBF1C821B822EE331E00E
:101400003A83298321E532E03E832D8338872F8379
:101410009091F30498132EC0A091F604B091F704B4
:101420001091FA040091FB046091FE047091FF0496
:101430008091F8049091F904AE014F5F5F4F1097CF
:1014400051F59F938F930F931F938091FD048F937A
:101450008091FC048F937F936F938CEE90E09F9329
:101460008F935F934F930E94FA080FB6F894DEBFF4
:101470000FBECDBF8F8198852D813E81821B930B3E
:1014800028960FB6F894DEBF0FBECDBFDF91CF9187
:101490001F910F910895FD0101900020E9F7319708
:1014A000EA1BFB0B2EE531E0009721F420E631E04A
:1014B00084E790E0BF93AF93FF93EF933F932F9315
:1014C0009F938F930F931F937F936F9385E790E084
:1014D0009F938F935F934F930E94FA08C6CF1F92FA
:1014E0000F920FB60F9211242F933F938F939F93D8
:1014F000AF93BF938091060590910705A0910805D1
:10150000B09109053091050523E0230F2D3758F5DB
:101510000196A11DB11D20930505809306059093AA
:101520000705A0930805B093090580910A059091DD
:101530000B05A0910C05B0910D050196A11DB11DE3
:1015400080930A0590930B05A0930C05B0930D05AD
:10155000BF91AF919F918F913F912F910F900FBEAF
:101560000F901F90189526E8230F0296A11DB11D1C
:10157000D2CF1F920F920FB60F9211242F933F9349
:101580004F935F936F937F938F939F93AF93BF938B
:10159000EF93FF9386E195E00E942C03FF91EF917A
:1015A000BF91AF919F918F917F916F915F914F917B
:1015B0003F912F910F900FBE0F901F9018951F9283
:1015C0000F920FB60F9211242F938F939F93EF9347
:1015D000FF93E0912605F09127058081E0912C058D
:1015E000F0912D0582FD1BC0908180912F058F5FAA
:1015F0008F7320913005821741F0E0912F05F0E0C4
:10160000EA5EFA4F958F80932F05FF91EF919F919E
:101610008F912F910F900FBE0F901F901895808182
:10162000F4CF1F920F920FB60F9211242F933F9376
:101630004F935F936F937F938F939F93AF93BF93DA
:10164000CF93DF93EF93FF938091DE01C091D70595
:10165000D0E087FF24C01092850010928400809112
:10166000DE018F5F8093DE018091DE01082E000C89
:10167000990B8C179D0724F48091DE018C30C4F106
:101680008091840090918500049680349C4908F4F0
:101690007AC08091840090918500049676C08091F4
:1016A000DE01082E000C990B8C179D07C4F6E09103
:1016B000DE018E2FEE0F990BFC01EE0FFF1FE80FDE
:1016C000F91FED54FA4F808186FFC9CFE091DE010A
:1016D0008E2FEE0F990BFC01EE0FFF1FE80FF91F85
:1016E000ED54FA4F808160E08F730E949C01B7CF68
:1016F0002091840030918500E091DE018E2FEE0F65
:10170000990BFC01EE0FFF1FE80FF91FED54FA4F84
:1017100081819281820F931F90938900809388002A
:10172000E091DE018E2FEE0F990BFC01EE0FFF1FF3
:10173000E80FF91FED54FA4F808186FF11C0E09148
:10174000DE018E2FEE0F990BFC01EE0FFF1FE80F4D
:10175000F91FED54FA4F808161E08F730E949C0164
:10176000FF91EF91DF91CF91BF91AF919F918F91B9
:101770007F916F915F914F913F912F910F900FBE8D
:101780000F901F90189580E49CE9909389008093B6
:1017900088008FEF8093DE01E3CF1092190510923D
:1017A000180588EE93E0A0E0B0E080931A059093CE
:1017B0001B05A0931C05B0931D0580E591E0909357
:1017C00017058093160585EC90E090932305809390
:1017D000220584EC90E0909325058093240580EC0D
:1017E00090E0909327058093260581EC90E09093FC
:1017F00029058093280582EC90E090932B05809337
:101800002A0586EC90E090932D0580932C0510928C
:101810002F051092300510923105109232058091FB
:10182000D7058C3020F591E0980F9093D7058093E1
:10183000DE0590E0FC01EE0FFF1FE80FF91FED54ED
:10184000FA4F88EB9BE0928381831092D905109226
:10185000D8051092DB051092DA051092DD05109282
:10186000DC0560E671E088ED95E00C94D8068FEF1A
:101870008093DE05EACFCF93DF93CDB7DEB76397D2
:101880000FB6F894DEBF0FBECDBF789484B58260EA
:1018900084BD84B5816084BD85B5826085BD85B514
:1018A000816085BD80916E00816080936E00109292
:1018B000810080918100826080938100809181000D
:1018C000816080938100809180008160809380009E
:1018D0008091B10084608093B1008091B0008160FC
:1018E0008093B00080917A00846080937A00809128
:1018F0007A00826080937A0080917A008160809380
:101900007A0080917A00806880937A001092C100FA
:1019100061E082E00E94E80161E083E00E94E8016A
:1019200060E080E00E94E80161E081E00E94E8015F
:101930008091DE058C3008F051C061E084E00E94A7
:10194000E8018091DE05282F30E0F901EE0FFF1F3E
:10195000E20FF31FED54FA4F9081907C94609083D6
:101960001092DF051092E0052CE0622F0E944115D5
:10197000829FB001112430E020E0AB01420F531FE1
:10198000FA01EE0FFF1FE40FF51FED54FA4F90819F
:1019900096FD16C02F5F3F4F2C30310571F7811136
:1019A0000FC01092800082E0809381001092850029
:1019B00010928400B19A80916F00826080936F00D2
:1019C000E091DE058E2F90E0FC01EE0FFF1FE80F87
:1019D000F91FED54FA4F80818064808390E080E0AD
:1019E0000E94FA00E0912605F091270582E08083AD
:1019F000E0912205F09123051082E0912405F091F9
:101A000025058FEC808310922E05E0912A05F09138
:101A10002B0586E08083E0912805F09129058081DF
:101A200080618083E0912805F0912905808188609C
:101A30008083E0912805F09129058081806880836A
:101A4000E0912805F091290580818F7D8083109297
:101A5000EA0487E390E0C12CD12C7601C39400976F
:101A6000C1F0FC0103E0F595E7950A95E1F7ED512A
:101A7000FE4F282F2770B701A60104C0440F551F41
:101A8000661F771F2A95D2F72081242B2083019788
:101A9000E6CF6CE271E085E092E00E94E2068CEB1A
:101AA00092E09093EB018093EA010CB406FC25C010
:101AB00061E08AE00E94E80161E08AE00E949C0106
:101AC00061E08BE00E94E80161E08DE00E94E801A6
:101AD00060E08CE00E94E80161E08BE00E949C01E4
:101AE00060E08BE00E949C0160E08DE00E949C0120
:101AF00080E58CBD8DB581608DBD8AE08093E2016B
:101B000061E00E94E8010E947C044FEF60E08FEFEB
:101B10000E94B00462E070E080E090E00E943E022B
:101B20000E9483048DE10E94770480E00E94770484
:101B30001EB50E947C04112399F370E060E088E0F8
:101B40000E94EE0470E060E08CE00E94EE046FEF13
:101B50007BE08AE00E94EE0460E07CE084E00E948A
:101B6000EE046FEF71E186E00E94EE0466E774E038
:101B700084E10E94730561EB88E30E94E1046FE356
:101B800070E388E20E94EE0469EF77EF80E30E9441
:101B9000EE0461E080EC0E94E10442E362EC80E844
:101BA0000E94B00462E17CE086EC0E94EE0462E1F7
:101BB00084EC0E94E1046CED75E08AEC0E94EE0476
:101BC0006091050284EE0E94E1046091060285EEB8
:101BD0000E94E1046091070282EE0E94E10460919C
:101BE000080283EE0E94E1046091090280EE0E94E7
:101BF000E10460910A0281EE0E94E10460E071E07C
:101C000080E10E9473058FE10E94C50440EC6BE106
:101C100080E80E94B00444E06FE180E80E94B004D4
:101C200082E70E94FB041092EA0468E271E082E11C
:101C300095E00E940C071092E8041092E70481E0FE
:101C40008093E90464E271E083EE94E00E940C0763
:101C5000E2E1F5E02EE035E04BE052E09191D90170
:101C60008D919D018095892BDA018D93AD01B5E0B1
:101C7000E631FB0799F760E271E089ED94E00E949C
:101C80000C0784E991E00E94EE0519EDE12E14E0C5
:101C9000F12E10E0F70161917F0170E090E080E0AB
:101CA0004AE00E94FB05133029F06EE286E195E0E0
:101CB0000E944E031F5F143069F78EE591E00E9489
:101CC000EE058DE991E00E943F06EBE22E2EE1E069
:101CD0003E2EF9E14F2EF1E05F2EADE46A2EA6E034
:101CE0007A2EB0EFAB2EB9E0BB2E8091EE018823A7
:101CF00079F06091EC017091ED016115710509F0C9
:101D000076C16FEF7BE08CE00E94EE041092EE0152
:101D100089E30E94FB0410E000E08823C9F1609190
:101D2000EC017091ED0180E00E94EE04BE016F5F56
:101D30007F4F86E090E00E94890489819A81909388
:101D4000ED018093EC018D819E818C01007811273B
:101D500087FF12C08B819C8104970091EA0110914A
:101D6000EB01015011098017910708F48C016BE118
:101D700072E0C8010E948904F801E55EFD4F1082FF
:101D800081E08093EE0140E46EE180E80E94B004BF
:101D90008091EA04882369F080910402823009F47A
:101DA0002FC108F027C1882309F4B5C1813009F497
:101DB000D1C10115110509F05CC28091E90485705B
:101DC00029F18091E7049091E804892BF9F461E10D
:101DD00084ED0E94E10461E082ED0E94E1048AEE5C
:101DE0000E94FB0480FDFBCF60E082ED0E94E104D5
:101DF00089ED0E94FB0482FF09C083EE94E00E94FB
:101E000014078091E90488608093E9048091E704D5
:101E10009091E80401969093E8048093E704809100
:101E2000EC04813009F07AC08091E90481FF76C02A
:101E300082E08093EC04809133018F5F80933301C3
:101E40000091ED04F090EE041091EB0490E2199FE4
:101E5000900111248F71182F122B89ED94E00E94AC
:101E60005F0169ED74E0882309F400C28FE092E01D
:101E70000E947E0748E0E42EE0922702109228029A
:101E800049E050E060E171E089E292E00E9455147F
:101E90008CE280932C0286E0809332020E945404EC
:101EA000F0923F02009340028BE080933D0210933A
:101EB0003E02E1E4F2E0DF011D92EA94E9F780914D
:101EC0003201809343028D5F8093320180E68093DC
:101ED000490282E080934A0293E090934B02109271
:101EE0004C0210924D0210924E0210924F0210922C
:101EF00050028093510294E09093520280935302D7
:101F000086E28093540222E040E250E06AE182E3FC
:101F10000E9401048AE390E00E9413058FED94E093
:101F20000E945F01882379F08091DE0481110BC04B
:101F30008091DD04811107C08FED94E00E941407A9
:101F400081E08093DD0489ED94E00E945F018823A5
:101F500079F08091D80481110BC08091D704811150
:101F600007C089ED94E00E94140781E08093D704B4
:101F70001E861D86188A1F861A8A198A60E671E0F5
:101F8000CE010D960E94D80686E195E00E940C03D2
:101F9000892B09F40EC31A8219821C821B821E82AD
:101FA0001D8260E671E0CE0101960E94D8060E9473
:101FB000CC024D815E8197FDF1C28F8318868A0124
:101FC0000F5F1F4FB801CE0101960E94590688236A
:101FD00071F329813A818D819E81BE01695F7F4FB6
:101FE000820F931F0E9468171E830D83E0CF6150FC
:101FF000710989CE833009F459C0843009F0D9CEF3
:1020000065E0C8010E948605882309F4CCC0809150
:10201000F301811108C088E30E94FB04682F6E7FE2
:1020200088E30E94E10465E572E082E195E00E94A8
:102030000C07E5E3F3E0C801855E9D4F4C017F018D
:1020400092E0E90EF11CA181AB8B8081863009F40E
:10205000FCC008F0BFC0813009F4EDC0833009F442
:10206000F0C0F7012B89E20FF11DE815F90538F3EF
:102070000E9470026093FC017093FD018093FE0149
:102080009093FF018091E304882361F01092E804AB
:102090001092E70481E08093E90463EE74E0CB01E1
:1020A0000E940C0783E08093040283CEC09000025C
:1020B000D0900102E0900202F0900302FFEFCF16F1
:1020C000DF06EF06FF0609F474CE0E94700220912D
:1020D000FC013091FD014091FE015091FF01621B16
:1020E000730B840B950B6C157D058E059F0508F40D
:1020F00060CE82E195E00E94900784E08093040224
:102100000E9470026093F8017093F9018093FA01C4
:102110009093FB014ECE0E9470026093F401709385
:10212000F5018093F6019093F701E2E1F5E084E098
:10213000DF011D928A95E9F790E080E00E94900708
:1021400088E30E94FB04682F616088E30E94E10439
:1021500081E0D4CF62E0C8010E948605882319F18E
:1021600065E572E0CE0101960E940C07E5E3F3E01D
:10217000C801855E9D4FBF016E5F7F4F2181308119
:10218000363351F48FEE91E00E940C07CE01019698
:102190000E94900782E0B2CFFB01E20FF11DE81729
:1021A000F90748F3F3CF0E9470022091F8013091B3
:1021B000F9014091FA015091FB01621B730B840BF2
:1021C000950B613177428105910508F4F2CD1092AB
:1021D0000402EFCD8A3331F08F3F09F449CF8333C6
:1021E00009F03FCF109200021092010210920202F9
:1021F00010920302F701C701049620E030E0A90124
:102200006191542F432F322F2227260F311D411D5C
:10221000511D8E179F07A1F72F3FBFEF3B074B07BD
:102220005B07B9F42093000230930102409302024D
:102230005093030216CFB7018EE095E00E940C0781
:1022400010CFB70183EE94E0F9CFB7018FED94E0A2
:10225000F5CFA8EEB3E00E94C6146093000270931D
:1022600001028093020290930302FBCE85E192E08B
:10227000FFCD0932110508F47BCE8091270288300A
:1022800009F076CE80912802863009F0C2C244E07F
:1022900050E062E175E081E492E00E944917892BE9
:1022A00009F066CE80913002813029F581E292E01A
:1022B0000E94010710922F0282E08093300261E3B6
:1022C00072E08BE392E00E94E20665E072E081E357
:1022D00092E00E94E20667E372E081E492E00E94ED
:1022E0000C0762E175E087E392E00E940C078AE246
:1022F00090E00E9413058091E90483FF0DC01091C6
:102300003002123049F465E172E083EE94E00E94FD
:10231000EA0681111093E9048091DE04811111C055
:102320008091DD04882369F06FE072E08FED94E026
:102330000E94EA06882329F081E08093DE0410924F
:10234000DD048091D804811113CE8091D7048823B5
:1023500009F40ECE6FE072E089ED94E00E94EA0687
:10236000882309F405CE81E08093D8041092D70425
:10237000FFCD0633110508F4FBCD863009F0F8CD0A
:1023800080913F028B3009F0B8C044E050E069ED25
:1023900074E085E392E00E944917892B09F0E8CDAB
:1023A00090904A0292FE15C0E091F104F091F2047F
:1023B000309759F08091400230E020E050E040E05A
:1023C00063E0829586958770099585E08093EC049B
:1023D000CFCD0E94BB037C018091EC04823009F0D8
:1023E00044C0292D2071892D8271823189F560E0E8
:1023F00090E080E00E945A0788E180934A02E091D1
:10240000EF04F091F00410E000E0309739F0809193
:102410003E0282958695877009958C0183E08093B2
:10242000EC04C801889690932B0280932C020E94A2
:10243000540410924D0210924E02A801445E5F4F68
:1024400022E06AE182E30E940104C801C69626C226
:1024500081E08093EC04C7010196222311F090E003
:1024600080E064E00E945A0783CD8330A1F5E11437
:10247000F104A1F1E091F104F091F204309771F1CF
:102480008091490290E024E0959587952A95E1F79F
:10249000880F991F880F991F8296A80148505109EB
:1024A0008417950708F4AC01C701840F951F9801A4
:1024B000241B350B0817190708F09701809140027B
:1024C00060E0829586958770099569E0C7010E9452
:1024D0005A0786E07BCF853009F44ACD90FE07C0CD
:1024E000833009F445CD69E0C7010196F0CF60E083
:1024F000C701EF2809F43CCDB5CF811139CD8091CA
:102500004002803509F034CD10914A0211FF39C0E4
:1025100010922B028CE280932C020E94480782E1E9
:1025200080934A0260E081E090E00E94D60310921E
:102530004102109242028091320180934302109234
:1025400044028D5F8093320182E08093510284E0E7
:102550008093520285E0809353021092540290E6D9
:102560009093490280934B0288E780934C0222E0CB
:1025700040E250E06AE182E30E9401048AE390E0D5
:102580008DC114FFF5CC0E94BB03892B09F0F0CC60
:1025900010FFEECC60E090E080E064CF69817A814A
:1025A000CE010D960E948106CE0101960E94510631
:1025B000EBCC49895A894115510531F06D857E85ED
:1025C00088ED95E00E94810680910405882329F119
:1025D0000E947002009100051091010520910205F2
:1025E00030910305601B710B820B930B68387341AC
:1025F0008105910590F01092040590E080E00E9422
:10260000FA0060E082E00E949C0150E040E060E659
:1026100071E088ED95E00E94AD068091DC05909117
:10262000DD050A9709F0C6C0E7E3F1E0F093FF0487
:10263000E093FE0480E691E09093FD048093FC0417
:102640003092FB042092FA045092F9044092F8046C
:102650001092F7041092F6047092F5046092F4045C
:1026600087EB98E09093F2048093F104B092F00429
:10267000A092EF041092EE0480E58093ED0481E0D7
:102680008093EC048091EB048F5F87708093EB0460
:102690008093F30418861F821A8619861C861B866F
:1026A0006091D8057091D9056115710531F04AE046
:1026B00050E0CE0107960E94AD061A8219821C8254
:1026C0001B821E821D826BEA71E0CE0101960E9480
:1026D000D8062B853C858D819E812817390709F501
:1026E0008F81988569817A81009759F0611571050C
:1026F00009F071C0232B09F471C0FC01808190E0C6
:102700000DC06115710509F469C0232B09F466C079
:10271000DB018C9190E091958195910911E0892BD5
:1027200009F010E0CE0101960E945106CE010796F5
:102730000E94510686EB91E00E94EE056091DC0557
:102740007091DD0590E080E04AE00E94FB058EE597
:1027500091E00E94EE0586EC91E00E94EE0582E891
:1027600091E0111102C08AE891E00E943F06112316
:10277000B9F161E082E00E949C0160E083E00E9488
:102780009C018AE590E00E94FA0081E080930405B4
:102790000E9470026093000570930105809302050A
:1027A0009093030550E040E060E671E088ED95E02D
:1027B0000E94AD06CE010D960E94510680E090E089
:1027C000892B09F492CA0E941803882309F47DCA50
:1027D0000E9400007ACA0E945F17A0CF11E0A2CF2A
:1027E00060E082E00E949C0161E083E00E949C0125
:1027F00090E080E00E94FA0064EF71E080E090E0F9
:102800000E943E0260E083E00E949C011092040559
:10281000C9CF0932110509F4ABCB8111A9CB809145
:102820002902853409F0A4CB44E050E062E175E070
:1028300089E392E00E944917892BA9F044E050E017
:102840006BE072E089E392E00E944917892B59F00E
:1028500044E050E066E471E089E392E00E944917A9
:10286000892B09F085CB80913202813009F081CD2E
:1028700080913D02883009F07BCB0E94480710927E
:102880003D0280913F02883F28F0909140029F5F77
:1028900090934002885F80933F02C8010E94130515
:1028A00067CB88ED95E00C945106FB01DC0102C07A
:1028B00005900D9241505040D8F70895BB272A301B
:1028C00051F4992342F4BDE29095809570956195FD
:1028D0007F4F8F4F9F4F0C946E14BB27FA01A62F8A
:1028E0006217710581059105330B30FB66F0AA274D
:1028F000660F771F881F991FAA1FA21710F0A21B2F
:1029000063953850A9F7A05DAA3308F0A95DA1939B
:1029100036F7B111B1931082CA010C948F14DC0107
:10292000FC01672F71917723E1F7329704C07C9106
:102930006D9370836291AE17BF07C8F30895F9993C
:10294000FECF92BD81BDF89A992780B50895052ED6
:1029500097FB1EF400940E94BE1457FD07D00E94FE
:10296000101507FC03D04EF40C94BE1450954095FE
:10297000309521953F4F4F4F5F4F0895909580952B
:10298000709561957F4F8F4F9F4F08950E9432152C
:10299000A59F900DB49F900DA49F800D911D1124B3
:1029A0000895B7FF0C94C6140E94C614821B930BA3
:1029B00008952F923F924F925F926F927F928F92E3
:1029C0009F92AF92BF92CF92DF92EF92FF920F93BE
:1029D0001F93CF93DF93CDB7DEB7CA1BDB0B0FB6C8
:1029E000F894DEBF0FBECDBF09942A883988488885
:1029F0005F846E847D848C849B84AA84B984C8841B
:102A0000DF80EE80FD800C811B81AA81B981CE0F11
:102A1000D11D0FB6F894DEBF0FBECDBFED010895F6
:102A2000A1E21A2EAA1BBB1BFD010DC0AA1FBB1FD2
:102A3000EE1FFF1FA217B307E407F50720F0A21B44
:102A4000B30BE40BF50B661F771F881F991F1A94B1
:102A500069F760957095809590959B01AC01BD01DB
:102A6000CF010895A29FB001B39FC001A39F700D35
:102A7000811D1124911DB29F700D811D1124911D86
:102A80000895991B79E004C0991F961708F0961BCA
:102A9000881F7A95C9F780950895AA1BBB1B51E141
:102AA00007C0AA1FBB1FA617B70710F0A61BB70BBE
:102AB000881F991F5A95A9F780959095BC01CD0163
:102AC0000895EE0FFF1F0590F491E02D09940F93E8
:102AD0001F93CF93DF938230910510F482E090E052
:102AE000E091E305F091E40530E020E0B0E0A0E003
:102AF000309799F42115310509F44AC0281B390B88
:102B000024303105D8F58A819B816115710589F1E1
:102B1000FB0193838283FE0111C0408151810281B8
:102B2000138148175907E0F04817590799F410978F
:102B300061F012960C93129713961C933296CF0164
:102B4000DF91CF911F910F9108950093E3051093AA
:102B5000E405F4CF2115310551F04217530738F041
:102B6000A901DB019A01BD01DF01F801C1CFEF012D
:102B7000F9CF9093E4058093E305CDCFFE01E20FFA
:102B8000F31F819391932250310939832883D7CF42
:102B90002091E1053091E205232B41F4209136018B
:102BA000309137013093E2052093E1052091340103
:102BB000309135012115310541F42DB73EB74091D3
:102BC000380150913901241B350BE091E105F0915A
:102BD000E205E217F307A0F42E1B3F0B2817390775
:102BE00078F0AC014E5F5F4F2417350748F04E0F69
:102BF0005F1F5093E2054093E105819391939FCF2E
:102C0000F0E0E0E09CCFCF93DF930097E9F0FC0188
:102C1000329713821282A091E305B091E405ED0191
:102C200030E020E01097A1F420813181820F931FC2
:102C30002091E1053091E2052817390709F061C0BC
:102C4000F093E205E093E105DF91CF910895EA0169
:102C5000CE17DF07E8F54A815B819E0141155105DA
:102C6000B1F7E901FB83EA8349915991C40FD51F5C
:102C7000EC17FD0761F4808191810296840F951F06
:102C8000E90199838883828193819B838A83F0E021
:102C9000E0E012968D919C9113970097B9F52D91D4
:102CA0003C911197CD010296820F931F2091E1056F
:102CB0003091E2052817390739F6309751F510920F
:102CC000E4051092E305B093E205A093E105BCCFC3
:102CD000D383C28340815181840F951FC817D907C0
:102CE00061F44E5F5F4F88819981480F591F51836E
:102CF00040838A819B81938382832115310509F06A
:102D0000B0CFF093E405E093E3059ECFFD01DC0135
:102D1000C0CF13821282D7CFB0E0A0E0E2E9F6E1A3
:102D20000C94DB148C01009751F4CB010E946715C1
:102D30008C01C801CDB7DEB7E0E10C94F714FC01BB
:102D4000E60FF71F9C0122503109E217F30708F440
:102D50009DC0D901CD91DC911197C617D70798F086
:102D6000C530D10530F3CE0104978617970708F3D5
:102D7000C61BD70B2297C193D1936D937C93CF0140
:102D80000E940316D6CF5B01AC1ABD0A4C018C0E13
:102D90009D1EA091E305B091E405512C412CF12C2E
:102DA000E12C109731F58091E1059091E2058815AD
:102DB000990509F05CC04616570608F058C0809186
:102DC000340190913501009741F48DB79EB7409141
:102DD000380150913901841B950BE817F90708F069
:102DE00055C0F093E205E093E105F901718360833A
:102DF000A0CF8D919C91119712966C90129713967B
:102E00007C901397A815B90559F56C0142E0C40EE2
:102E1000D11CCA14DB0420F1AC014A195B09DA01A8
:102E20001296159780F06282738251834083D90194
:102E30006D937C93E114F10471F0D7011396FC9328
:102E4000EE93129776CF22968C0F9D1FF9019183F6
:102E50008083F301EFCFF093E405E093E30569CFBE
:102E60004816590608F42C017D01D3019ACFCB01F5
:102E70000E9467157C01009749F0AE01B8010E94DD
:102E80005617C8010E940316870153CF10E000E0D7
:102E900050CFFB01DC0104C08D910190801921F419
:102EA00041505040C8F7881B990B0895FB01DC0185
:102EB00002C001900D9241505040D8F70895FB0197
:102EC000DC018D91019080190110D9F3990B0895BF
:102ED000FB01DC0101900D920020E1F70895FB0158
:102EE000DC014150504030F08D910190801919F46F
:102EF0000020B9F7881B990B089510E0CFECD0E0C3
:102F000004C0FE010E9461152196C03DD107C9F79A
:102F1000F894FFCF41726475696E6F2D454E433250
:102F2000386A36302D30300000000000000000000C
:102F300000000000C0A80201C0A80201C0A802024F
:102F40007569692D30310A010000E5058000000037
:102F5000000063047C0274047304FFFFFFFFFFFFA3
:102F6000000000004E037C02A9029B030C03B80280
:102F7000FE020D0A00536572766572207265636504
:102F80006976656420746865206D65737361676533
:102F90002E0032303000436F727265637400496EE8
:102FA000636F7272656374005365727665723A205E
:102FB000004761746577617920666F756E640031D2
:102FC000313131313131313131000A496E7075742E
:102FD000204C656E6774683A200053657175656EA4
:102FE000636520436865636B20526573756C743A42
:022FF0002000BF
:107E0000112484B714BE81FFF0D085E080938100F7
:107E100082E08093C00088E18093C10086E0809377
:107E2000C20080E18093C4008EE0C9D0259A86E02C
:107E300020E33CEF91E0309385002093840096BBD3
:107E4000B09BFECF1D9AA8958150A9F7CC24DD24C4
:107E500088248394B5E0AB2EA1E19A2EF3E0BF2EE7
:107E6000A2D0813461F49FD0082FAFD0023811F036
:107E7000013811F484E001C083E08DD089C08234E0
:107E800011F484E103C0853419F485E0A6D080C0E4
:107E9000853579F488D0E82EFF2485D0082F10E0AE
:107EA000102F00270E291F29000F111F8ED06801E7
:107EB0006FC0863521F484E090D080E0DECF843638
:107EC00009F040C070D06FD0082F6DD080E0C81688
:107ED00080E7D80618F4F601B7BEE895C0E0D1E017
:107EE00062D089930C17E1F7F0E0CF16F0E7DF06D8
:107EF00018F0F601B7BEE89568D007B600FCFDCFD4
:107F0000A601A0E0B1E02C9130E011968C91119780
:107F100090E0982F8827822B932B1296FA010C0160
:107F200087BEE89511244E5F5F4FF1E0A038BF0790
:107F300051F7F601A7BEE89507B600FCFDCF97BE46
:107F4000E89526C08437B1F42ED02DD0F82E2BD052
:107F50003CD0F601EF2C8F010F5F1F4F84911BD097
:107F6000EA94F801C1F70894C11CD11CFA94CF0C13
:107F7000D11C0EC0853739F428D08EE10CD085E9AC
:107F80000AD08FE07ACF813511F488E018D01DD067
:107F900080E101D065CF982F8091C00085FFFCCF94
:107FA0009093C60008958091C00087FFFCCF809118
:107FB000C00084FD01C0A8958091C6000895E0E648
:107FC000F0E098E1908380830895EDDF803219F02E
:107FD00088E0F5DFFFCF84E1DECF1F93182FE3DFCA
:107FE0001150E9F7F2DF1F91089580E0E8DFEE27F6
:047FF000FF270994CA
:027FFE00040479
:00000001FF
