:100000000C94CD000C94F5000C94F5000C94F500C4
:100010000C94F5000C94F5000C94F5000C94F5008C
:100020000C94F5000C94F5000C94F5000C94F3106E
:100030000C94F5000C94F5000C94F5000C94F5006C
:100040000C9451100C94F5000C94C1100C949B105E
:100050000C94F5000C94F5000C94F5000C94F5004C
:100060000C94F5000C94F5006382536300010800C2
:10007000060400014500008200004000207266690D
:100080006400504F535420687474703A2F2F2446E4
:100090002F244620485454502F312E310D0A486FDA
:1000A00073743A2024460D0A436F6E74656E742D86
:1000B0004C656E6774683A2024440D0A436F6E7471
:1000C000656E742D547970653A20746578742F705C
:1000D0006C61696E0D0A0D0A24480072666964003D
:1000E0003139322E3136382E322E3100504F5354A2
:1000F00020687474703A2F2F24462F2446204854C9
:1001000054502F312E310D0A486F73743A20244613
:100110000D0A436F6E74656E742D4C656E6774685E
:100120003A2024440D0A436F6E74656E742D547921
:1001300070653A20746578742F706C61696E0D0A71
:100140000D0A24480000000000240027002A0000B7
:10015000000000250028002B00040404040404040B
:100160000402020202020203030303030301020466
:100170000810204080010204081020010204081029
:100180002000000008000201000003040700000036
:10019000000000000000FE11921611241FBECFEFD8
:1001A000D8E0DEBFCDBF11E0A0E0B1E0EAE0F3E3CC
:1001B00002C005900D92AA3CB107D9F727E0AAEC3E
:1001C000B1E001C01D92A931B207E1F710E0CCEC1B
:1001D000D0E004C02197FE010E946A17CB3CD107F2
:1001E000C9F70E947D120C9478190C940000CF93EB
:1001F000DF9320913D062223C1F0FC0120812223C0
:10020000A1F0CDE3D6E0A9E3B6E09C012C5F3F4F1F
:10021000899141919D918427892339F4E217F3074D
:10022000B9F781E0DF91CF91089580E0FBCFCF93C4
:10023000DF93EC01FB018A30910548F06AE070E041
:100240000E945617CB01BF010E941701FC01CE018D
:100250006AE070E00E945617805D80831182CF01B2
:100260000196DF91CF9108958F929F92AF92BF92A6
:10027000FF920F931F93CF93DF93F09012072BE021
:100280002F1508F44CC02091140708E512E0021B5A
:10029000110927FD1395000F111F000F111F209149
:1002A0001307C8E8D0E0C21BD10927FDD395CC0FB6
:1002B000DD1FCC0FDD1F4E010D2E000CAA08BB0860
:1002C0009801012E000C440B550B281939094A09D5
:1002D0005B09DC010E94DA1624EB30E040E050E0DC
:1002E0000E94B016820E931EA41EB51E8C169D068B
:1002F0002CF0E801801691060CF4E4012297CC0F53
:10030000DD1F2FB7F8948F2D90E0FC01EE0FFF1F3B
:10031000E80FF91FE252F94FD283C1832FBFDF915B
:10032000CF911F910F91FF90BF90AF909F908F90B2
:10033000089590E0FC01EF57FE4F2491FC01E35932
:10034000FE4F3491FC01E75AFE4FE491EE23C9F0D1
:10035000222339F0233001F1A8F4213019F12230A1
:1003600029F1F0E0EE0FFF1FE15BFE4FA591B49184
:100370008FB7F894EC91611126C030953E233C93E1
:100380008FBF08952730A9F02830C9F0243049F7ED
:10039000809180008F7D03C0809180008F77809353
:1003A0008000DFCF84B58F7784BDDBCF84B58F7DB0
:1003B000FBCF8091B0008F778093B000D2CF809137
:1003C000B0008F7DF9CF3E2BDACFCF93DF9390E053
:1003D000FC01E359FE4F2491875A9E4FFC01849102
:1003E0008823D1F090E0880F991FFC01EB5BFE4F52
:1003F000A591B491FC01E15BFE4FC591D4916111CF
:100400000EC09FB7F8948C91E22FE0958E238C93C9
:100410002881E223E8839FBFDF91CF9108958FB7B2
:10042000F894EC91E22BEC938FBFF6CF3FB7F894A2
:100430008091B3059091B405A091B505B091B60532
:1004400026B5A89B05C02F3F19F00196A11DB11D2F
:100450003FBFBA2FA92F982F8827BC01CD01620F6B
:10046000711D811D911D42E0660F771F881F991F26
:100470004A95D1F708958F929F92AF92BF92CF92F3
:10048000DF92EF92FF924B015C010E9416026B011A
:100490007C010E9416026C197D098E099F09683E35
:1004A000734081059105A8F321E0821A9108A10803
:1004B000B10888EEC80E83E0D81EE11CF11C81143F
:1004C0009104A104B10429F7FF90EF90DF90CF9041
:1004D000BF90AF909F908F9008952FB7F894609140
:1004E000AF057091B0058091B1059091B2052FBF15
:1004F0000895AF92BF92CF92DF92EF92FF920F9347
:100500001F93CF93DF936C017B018B01040F151FA9
:10051000EB015E01AE18BF08C017D10759F0699111
:10052000D601ED91FC910190F081E02DC601099575
:10053000892B79F7C501DF91CF911F910F91FF9022
:10054000EF90DF90CF90BF90AF900895FC01538D56
:10055000448D252F30E0842F90E0821B930B54179D
:1005600010F0CF96089501970895FC01918D828D2A
:10057000981761F0A28DAE0FBF2FB11D5D968C91C3
:10058000928D9F5F9F73928F90E008958FEF9FEF02
:1005900008950F931F930E946D0260934906709314
:1005A0004A0680934B0690934C0681E496E00E94A5
:1005B000B50297FF1DC00E946D020091490610917F
:1005C0004A0620914B0630914C06601B710B820B42
:1005D000930B0091450610914606209147063091F5
:1005E00048066017710782079307F8F28FEF9FEFB5
:1005F0001F910F910895FC01918D828D981731F014
:10060000828DE80FF11D858D90E008958FEF9FEFAB
:100610000895FC01918D228D892F90E0805C9F4F81
:10062000821B91098F739927089581E496E00E94B7
:10063000090321E0892B09F420E0822F089580E04E
:1006400090E0892B29F00E94150381110C94000081
:100650000895FC01A48DA80FB92FB11DA35ABF4F57
:100660002C91848D90E001968F739927848FA689B1
:10067000B7892C93A089B1898C91837080648C9305
:10068000938D848D981306C00288F389E02D8081B4
:100690008F7D80830895EF92FF920F931F93CF93E6
:1006A000DF93EC0181E0888F9B8D8C8D98131AC0AD
:1006B000E889F989808185FF15C09FB7F894EE8994
:1006C000FF896083E889F9898081837080648083F1
:1006D0009FBF81E090E0DF91CF911F910F91FF903C
:1006E000EF900895F62E0B8D10E00F5F1F4F0F73E4
:1006F0001127E02E8C8D8E110CC00FB607FCFACF9F
:10070000E889F989808185FFF5CFCE010E94290310
:10071000F1CFEB8DEC0FFD2FF11DE35AFF4FF0826F
:100720009FB7F8940B8FEA89FB8980818062CFCFD5
:10073000CF93DF93EC01888D8823B9F0AA89BB8918
:10074000E889F9898C9185FD03C0808186FD0DC003
:100750000FB607FCF7CF8C9185FFF2CF808185FF24
:10076000EDCFCE010E942903E9CFDF91CF9108950B
:10077000611108C08093340149505E4F5093A80521
:100780004093A70581E0089588EB93E09093EA01F8
:100790008093E90189E49EE09093E8018093E7016A
:1007A0001092800580E58093810581E08093820529
:1007B00080917F058F5F877080937F05089580917A
:1007C000070290910802982789279827449720913B
:1007D000250230E044E0359527954A95E1F7220F50
:1007E000331F220F331F821B930B97FF02C090E031
:1007F00080E008950F931F93CF93DF9370E06950CB
:100800007E4F8A01075F1F4F213029F0223031F4DB
:100810008A010250110930E020E003C000E010E03E
:100820009801EB01FA01E230F10558F0A991B99174
:10083000BA27AB27BA270A0F1B1F211D311D32977C
:10084000F2CFFA01EE7F6E0F7F1F4E175F0769F040
:10085000FB01408150E070E060E0762F652F542F5F
:100860004427040F151F261F371FA9016627772766
:10087000411551056105710519F022273327F1CF84
:1008800000951095E82FF0E0E950FE4F10830183AA
:10089000DF91CF911F910F910895E7EFF1E0108E56
:1008A000118E80E4848B158A868B20E044E150E031
:1008B0006EE088E10C94FA03CF93DF93E6E8F5E06D
:1008C00030E020E0822F9191992361F170E060E0A7
:1008D000492F50E0A62FEA01062E02C0D595C795F4
:1008E0000A94E2F7C0FF19C02A573A4F41E050E09E
:1008F00060E070E00A2E04C0440F551F661F771F8A
:100900000A94D2F740954923F9014083880F880F54
:10091000880F8A0FDF91CF9108956F5F7F4F683006
:100920007105C1F62F5F3F4F2730310559F680E042
:10093000F1CF8EBD0DB407FEFDCF089561E080912B
:1009400083050E94990178940895F89460E080915D
:1009500083050C9499010F931F93CF93DF938C0120
:10096000EB010E94A50401151105A1F08AE70E9480
:100970009904FE0181918EBDC00FD11FEC17FD07B8
:1009800031F081910DB407FEFDCF8EBDF7CF0DB4D0
:1009900007FEFDCFDF91CF911F910F910C949E0424
:1009A0000F931F93CF93DF93EC018B010E94A5045B
:1009B0002097B9F08AE30E9499041EBCF801CE0189
:1009C000019739F00DB407FEFDCF2EB51EBC219363
:1009D000F7CF2197C00FD11F0DB407FEFDCF8EB505
:1009E0008883DF91CF911F910F910C949E041F93E8
:1009F000CF93DF93182FC62FD42F0E94A5048C2FDE
:100A00008F71812B0E9499048D2F0E949904DF9190
:100A1000CF911F910C949E04CF93C82FC0768091E4
:100A2000CD018C1799F043E06FE180EA0E94F70452
:100A3000C093CD014C2F50E085E0559547958A95A0
:100A4000E1F76FE180E8CF910C94F704CF9108951E
:100A5000CF93DF93C82FD62F0E940C054D2F6C2FFC
:100A600080E4DF91CF910C94F704CF93DF93C82FEC
:100A7000D72F0E9428056D2F81E08C0FDF91CF9139
:100A80000C942805FF920F931F93CF93DF93082FA9
:100A900010E091E4899FF0011124E950FA4F208180
:100AA000261709F44EC0C62FD82F81113DC080E40F
:100AB000289F90011124B9017E5E213C3D4048F4FD
:100AC00082E00E94350567EB75E080E490E00E94CB
:100AD000AB04809138068C1303C08FEF80933806E7
:100AE00081E4F82EF09EF001F19EF00D1124E95002
:100AF000FA4FC08380E4C89F90011124B9017E5E43
:100B0000213C3D40F0F480E00E943505DF9DB001BE
:100B1000112469547A4F80E490E0DF91CF911F91C6
:100B20000F91FF900C94D0048091F7058613D8CFD5
:100B300081E4E7EBF5E0A8EFB5E001900D928A952E
:100B4000E1F7DF91CF911F910F91FF900895CF931F
:100B5000DF931F92CDB7DEB7198220E4829FC001D8
:100B600011249E5E680F792F711DCB019251811562
:100B70009E4050F480E00E943505BE016F5F7F4FBC
:100B800081E090E00E94D00489810F90DF91CF91A5
:100B90000895CF93DF93FC01C481FFE3CF9FE00171
:100BA0001124FC0186819091F705891309C0809179
:100BB000F5058C0F9D2F911D0397DF91CF9108951F
:100BC00090913806891303C080913606F2CF6EE308
:100BD0000E94A705EECFCF93C82F0E940C050E945C
:100BE000A5048C2F8F710E94990480E00E949904C3
:100BF000C7FF03C080E00E949904CEB50E949E0406
:100C00008C2FCF9108950F931F93CF93DF9300D034
:100C100000D000D0CDB7DEB78091D001882379F025
:100C20006091CE017091CF016115710509F053C03B
:100C30006FEF7BE08CE00E9435051092D00189E3D4
:100C40000E94EB0510E000E08823C9F16091CE011D
:100C50007091CF0180E00E943505BE016F5F7F4F2C
:100C600086E090E00E94D00489819A819093CF0120
:100C70008093CE018D819E818C010078112787FFA2
:100C800012C08B819C810497009184051091850589
:100C9000015011098017910708F48C0167EF71E08A
:100CA000C8010E94D004F801E950FE4F108281E093
:100CB0008093D00140E46EE180E80E94F704C8010F
:100CC00026960FB6F894DEBF0FBECDBFDF91CF9151
:100CD0001F910F91089561507109ACCFCF93DF93AD
:100CE000EC0140E86FE180E80E94F70440E86FE122
:100CF00080EA0E94F7044AE06CE180EA0E94F7046F
:100D000060E07CE082E00E943505BE01745F86E011
:100D10000E94350540E060E08AE70E94F70467EF33
:100D200071E0CE010E94AB0448E06FE180E80E94D0
:100D3000F704D0E0C0E08CE10E94EB058A7029F452
:100D40002196C83E83E0D807B1F78CE10E94EB05FD
:100D500081FD03C0C83ED34039F448E06FE180EA2A
:100D6000DF91CF910C94F704DF91CF910895CF9349
:100D7000DF93EB01682F84ED0E942805BE0186ED0C
:100D80000E9435058AEE0E94EB0580FDFBCFDF91C6
:100D9000CF910895CF92DF92EF92FF920F931F931E
:100DA0008634910568F120911A02233449F5C090E8
:100DB0002502D0902602E0902702F09028020091B0
:100DC000D6011091D7012091D8013091D901C016D8
:100DD000D106E206F306A1F4E1E1F3E089509E4F6B
:100DE0009F012E5F3F4F41815081553319F452814D
:100DF000651771F0F901E40FF11DE817F90780F3A9
:100E000080E01F910F91FF90EF90DF90CF900895B9
:100E100081E0F7CFE091CB01F091CC019F012F5FF2
:100E20003F4F3093CC012093CB0180830895FF92F4
:100E30000F931F93CF93DF93162FF42E052F0E944D
:100E40000A07812F0E940A07CF2DD02F115020F0C2
:100E500089910E940A07FACFDF91CF911F910F91DC
:100E6000FF9008951F93CF93DF93EC01162F6E81AF
:100E700080E00E944205E091F50581E08E0FF0E0F0
:100E8000E954FA4F10838F3340F48093F50581E0E5
:100E900090E0DF91CF911F9108950E945C048093B0
:100EA000F6058E83682F80E00E9442051092F605B9
:100EB0001092F5058C818F5F8C83E9CF089590E0C7
:100EC00080E00895FB0101900020E9F73197AF0120
:100ED000461B570BDC01ED91FC910280F381E02D64
:100EE0000994CF93DF93BC0181E496E00E946207EE
:100EF000EC016FE571E081E496E00E9462078C0FDF
:100F00009D1FDF91CF9108956091080780E00E94B6
:100F1000420583E0E7E0F7E0A7EBB5E001900D9232
:100F20008A95E1F79091380680910807981304C0DC
:100F300060E081E00C9442050895DC0196E0FB013D
:100F400001900D929A95E1F70895BC0187EF91E029
:100F50000E949D076DE875E08DEF91E00C949D0770
:100F6000DC0194E0FB0101900D929A95E1F7089560
:100F70008DEF91E00E94A50761E172E085E192E0CA
:100F80000E94B0076DE376E081E192E00E94B00735
:100F90000C944D04CF93DF93EB010E94A507BE0193
:100FA00085E192E00E94B0076DE376E081E192E096
:100FB000DF91CF910C94B007CF93DF93EC016F8357
:100FC00083E0888781E00E944205DE01149683E079
:100FD000E8EFF5E001900D928A95E1F78F81DF91BE
:100FE000CF910895CF930E945C04C82F682F80E0B2
:100FF0000E944205E7EBF5E01082C283C18383E0E3
:1010000086AF17AE6C2F83E097E0CF910C94DC078E
:10101000FC0180819181009711F00C940C180895C7
:101020000F931F93CF93DF93EC01888199810097F1
:1010300059F02A813B812617370730F081E0DF9194
:10104000CF911F910F9108958B016F5F7F4F0E9489
:101050009518009759F0998388831B830A832C8104
:101060003D81232B59F7FC011082E8CF80E0E7CFC8
:10107000EF92FF920F931F93CF93DF93611571054A
:1010800041F480E0DF91CF911F910F91FF90EF909D
:10109000089541155105B1F07B01EC010C811D81D2
:1010A000040F151FB8010E941008882351F32881EE
:1010B00039818C819D81B701820F931F0E94711924
:1010C0001D830C8381E0DECFEF92FF920F931F937D
:1010D000CF93DF93EC017B018A01BA010E941008D3
:1010E00028813981811114C02115310519F0C901F8
:1010F0000E940C18198218821D821C821B821A827F
:10110000CE01DF91CF911F910F91FF90EF90089545
:101110001D830C83B701C9010E947119F1CFCF93D0
:10112000DF93EB0144E050E0BC0183E192E00E94D8
:101130005219892B49F46DE072E0CE010E949D079F
:1011400081E0DF91CF91089580E0FBCF0F931F9353
:10115000CF938C018BE391E00E94A507E7EFF1E0CC
:1011600088E08487C6E0C58748E050E06CE670E020
:1011700085E092E00E949616E7E1F2E0DF011D9221
:10118000CA95E9F76DE875E08DE092E00E949D0751
:10119000B8018DE192E00E94B0076DE376E083E153
:1011A00092E00E94B0078AE290E0CF911F910F91E8
:1011B0000C946E06EF92FF920F931F93CF93DF93E1
:1011C0008C01E7EFF1E086E191E0DF019C011D92E7
:1011D00021503040E1F78091E601CBE3D1E083304C
:1011E00011F4C1EDD1E0CE010E94F700BE018823C9
:1011F00009F4ACC08BEE91E00E94CA078881807F21
:10120000803E91F088819981AA81BB818F3F9F4F59
:10121000AF4FBF4F49F044E050E0BE0183E995E095
:101220000E945219892B31F46BE371E087EF91E052
:101230000E949D0788E0809303021092040249E017
:1012400050E064E770E085E092E00E94961610920C
:10125000070281E180930E0210921B0283E48093C7
:101260001C021092190284E480931A0210921D024B
:1012700010921F02109220026BE371E087EF91E061
:101280000E949D0781E0809321028093220286E0E4
:10129000809323028091D6019091D701A091D8012B
:1012A000B091D9018093250290932602A093270242
:1012B000B0932802C091E601C33031F46DE376E0CB
:1012C0008DE292E00E94B0076DE875E08DE392E058
:1012D0000E949D078DE093E09093CC018093CB0119
:1012E000E8E6F0E084910E940A07E9E6F0E08491E4
:1012F0000E940A07EAE6F0E084910E940A07EBE602
:10130000F0E084910E940A0785E30E940A0781E0C9
:101310000E940A0783E0C11101C081E00E940A0710
:101320008DE30E940A0787E00E940A0781E00E947D
:101330000A078DE8E82E85E0F82EC7E0C15049F095
:10134000D7018D917D010E940A07F8CF81EF91E0CE
:1013500053CF80910001882371F060E071E0FB01C0
:1013600001900020E9F7BF016150714040E051E079
:101370008CE00E9417070115110559F0A80164E0DF
:1013800082E30E94170741ED51E064E086E30E948A
:10139000170787E30E940A0783E00E940A0781E09B
:1013A0000E940A0783E00E940A0786E00E940A075B
:1013B0008FEF0E940A07C091CB01D091CC01C1529E
:1013C000D240CE014C9690930702809308020E946F
:1013D0004D04CE01089690931D0280931E02AE012B
:1013E000405F5F4F21E06AE188E20E94FA03CE018C
:1013F0008A96DF91CF911F910F91FF90EF900C94FF
:101400006E068F929F92AF92BF92CF92DF92EF9231
:10141000FF920F931F93CF93DF9300D000D0CDB7EF
:10142000DEB77C018091A105882369F08091E601F7
:10143000823009F4F1C008F0E9C0882309F474C1CE
:10144000813009F490C1E114F10409F02BC28091BC
:10145000A205857029F180919B0590919C05892BAF
:10146000F9F461E184ED0E94280561E082ED0E94BB
:1014700028058AEE0E94EB0580FDFBCF60E082ED3F
:101480000E94280589ED0E94EB0582FF09C087E9CB
:1014900095E00E94A6088091A20588608093A2052D
:1014A00080919B0590919C05019690939C0580935B
:1014B0009B0580918205813009F079C08091A20559
:1014C00081FF75C082E080938205809121018F5F4A
:1014D00080932101F0908105E090800510917F05B7
:1014E000A0E21A9F900111248F71182F122B83EA0A
:1014F00095E00E94F70063EA75E0882309F4BFC114
:101500008BEE91E00E94CA0708E00093030210925C
:10151000040249E050E064E770E085E092E00E9458
:1015200096168CE28093080286E080930E020E9459
:101530004D04E0921B02F0921C028BE08093190292
:1015400010931A02EDE1F2E0DF011D920A95E9F72E
:101550008091200180931F028D5F8093200180E69F
:101560008093250282E08093260293E090932702E5
:10157000109228021092290210922A0210922B0235
:1015800010922C0280932D0294E090932E0280936F
:101590002F0286E28093300222E040E250E06AE1CE
:1015A00082E30E94FA038AE390E00E946E068DE9CE
:1015B00095E00E94F700882379F080917E058111E3
:1015C0000BC080917D05811107C08DE995E00E94D7
:1015D000A60881E080937D0583EA95E00E94F700EC
:1015E000811150C110E000E0C8010F900F900F90E2
:1015F0000F90DF91CF911F910F91FF90EF90DF90AF
:10160000CF90BF90AF909F908F900895833009F452
:1016100056C0843009F017CF65E0C7010E94CA06A2
:10162000882309F4C9C08091D501811108C088E3DD
:101630000E94EB05682F6E7F88E30E94280561E316
:1016400072E08DE396E00E94B007E1E1F3E0C701AC
:1016500089509E4F6C018F010E5F1F4FB1808081BA
:10166000863009F4FBC008F0BEC0813009F4ECC03C
:10167000833009F4EFC0F801EB0DF11DEC15FD0509
:1016800050F30E946D026093DE017093DF0180933E
:10169000E0019093E10180919705882361F0109219
:1016A0009C0510929B0581E08093A20567E975E097
:1016B000CB010E94B00783E08093E601C4CE809006
:1016C000E2019090E301A090E401B090E5012FEFDA
:1016D00082169206A206B20609F4B5CE0E946D02E9
:1016E0000091DE011091DF012091E0013091E101D4
:1016F000601B710B820B930B681579058A059B059E
:1017000008F4A1CE8DE396E00E94DA0884E080938D
:10171000E6010E946D026093DA017093DB01809311
:10172000DC019093DD018FCE0E946D026093D601A3
:101730007093D7018093D8019093D901EDE3F6E03F
:1017400084E0DF011D928A95E9F790E080E00E9435
:10175000DA0888E30E94EB05682F616088E30E9445
:10176000280581E0D4CF62E0C7010E94CA06882321
:1017700019F161E372E0CE0101960E94B007E1E148
:10178000F3E0C70189509E4FBF016E5F7F4F2181FB
:101790003081363351F481ED91E00E94B007CE01E3
:1017A00001960E94DA0882E0B2CFFB01E20FF11D40
:1017B000E817F90748F3F3CF0E946D020091DA01B0
:1017C0001091DB012091DC013091DD01601B710B78
:1017D000820B930B613177428105910508F433CE7A
:1017E0001092E60130CE8A3331F08F3F09F449CFB1
:1017F000833309F040CF1092E2011092E30110927E
:10180000E4011092E501F801C801049620E030E0FF
:10181000A9016191542F432F322F2227260F311D0A
:10182000411D511D8E179F07A1F72F3F9FEF3907CD
:1018300049075907B9F42093E2013093E30140933B
:10184000E4015093E50117CFB80189E396E00E94C7
:10185000B00711CFB80187E995E0F9CFB8018DE95C
:1018600095E0F5CFA8EEB3E00E94CF166093E201B9
:101870007093E3018093E4019093E501FCCE81EF46
:1018800091E040CE80917C058111ACCE80917B05AA
:101890008111A8CE83EA95E00E94A60881E080939A
:1018A0007B05A0CEB9E2EB16F10408F49BCE809143
:1018B0000302883009F096CE80910402863009F048
:1018C0009FC144E050E06DE376E08DE192E00E943C
:1018D0005219892B09F086CE80910C02813029F5AE
:1018E0008DEF91E00E94A50710920B0282E0809399
:1018F0000C026DE072E087E192E00E949D076DE8C6
:1019000075E08DE092E00E949D0763E172E08DE159
:1019100092E00E94B0076DE376E083E192E00E94DE
:10192000B0078AE290E00E946E068091A20583FFD4
:101930000DC010910C02123049F461EF71E087E99B
:1019400095E00E948F0881111093A20580917E0579
:10195000811111C080917D05882369F06BEE71E0E3
:101960008DE995E00E948F08882329F081E080931B
:101970007E0510927D0580917C05811133CE80918A
:101980007B05882309F42ECE6BEE71E083EA95E0A7
:101990000E948F08882309F425CE81E080937C057E
:1019A00010927B051FCE26E3E216F10408F41ACE4E
:1019B000863009F017CE80911B028B3009F0BAC037
:1019C00044E050E063EA75E081E192E00E94521940
:1019D000892B09F007CED0902602D2FE15C0E091E7
:1019E000E901F091EA01309759F080911C0230E052
:1019F00020E050E040E063E082958695877009958D
:101A000085E080938205EECD0E94DF038C018091FA
:101A10008205823009F045C09D2D90718D2D827117
:101A2000823189F560E090E080E00E94DA1188E17F
:101A300080932602E091E701F091E80110E000E0D8
:101A4000309739F080911A028295869587700995B2
:101A50008C0183E080938205C801889690930702E9
:101A6000809308020E944D041092290210922A02CB
:101A7000A801445E5F4F22E06AE182E30E94FA031C
:101A8000C801C69603C181E080938205911106C00A
:101A9000C801019664E00E94DA11A4CD90E080E0D4
:101AA000F9CF8330A1F501151105A1F1E091E9010C
:101AB000F091EA01309771F18091250290E024E0E5
:101AC000959587952A95E1F7880F991F880F991F9B
:101AD0008296A701485051098417950708F4AC0174
:101AE000C801840F951F9701241B350BE816F906D2
:101AF00008F0980180911C0260E0829586958770BD
:101B0000099569E0C8010E94DA1186E07ACF853034
:101B100009F468CDD0FE07C0833009F463CD69E0D5
:101B2000C8010196F0CF0115110509F45BCD60E005
:101B3000C801B1CF811156CD80911C02803509F0CA
:101B400051CDD0902602D1FE39C0109207028CE20E
:101B5000809308020E94B80782E18093260260E029
:101B600081E090E00E94AF1110921D0210921E02BF
:101B70008091200180931F02109220028D5F80933C
:101B8000200182E080932D0284E080932E0285E084
:101B900080932F021092300290E69093250280935A
:101BA000270288E78093280222E040E250E06AE1C1
:101BB00082E30E94FA038AE390E068C0D4FE12CD6B
:101BC0000E94DF038C01892B99F00091250210E01F
:101BD00084E0159507958A95E1F7000F111F000F16
:101BE000111F0E5D1F4FE016F10608F0FDCCFACC78
:101BF000D0FEF8CC60E090E080E00E94DA11F4CCF6
:101C000099E2E916F10409F4EDCC8111EBCC809155
:101C10000502853409F0E6CC44E050E06DE376E05F
:101C200085E192E00E945219892BA9F044E050E02E
:101C300063E975E085E192E00E945219892B59F021
:101C400044E050E06BE371E085E192E00E945219BC
:101C5000892B09F0C7CC80910E02813009F0A3CE08
:101C600080911902883009F0BDCC0E94B80710920B
:101C7000190280911B02883F28F090911C029F5FFF
:101C800090931C02885F80931B02C7010E946E061E
:101C9000A9CC3F924F925F926F927F928F929F92C8
:101CA000AF92BF92CF92DF92EF92FF920F931F936A
:101CB000CF93DF93CDB7DEB760970FB6F894DEBF52
:101CC0000FBECDBF60E080E00E9442058090B70566
:101CD0009090B80560E080E00E944205C090B90590
:101CE000D090BA051C821B8287E591E09A83898394
:101CF00018861E82712C612C6DE2462E62E0562EF3
:101D000010E000E070E4372EE9EBEE2EE5E0FE2E69
:101D10006814790408F09CC025E4321609F46CC0FC
:101D2000231554F040E43416C9F084E4381609F45D
:101D300053C050E4352EECCF98E4391609F465C051
:101D4000E3E53E1609F448C0F6E43F12F2CF9801ED
:101D50002F5F3F4FF8018491890142C096012F5FA8
:101D60003F4FF6018491882309F472C0843209F050
:101D70006DC05701F2E0AF0EB11CF7018281938173
:101D8000F2E0CF0ED11CF9013490F6E4F31540F0E7
:101D900025E4321658F444E4341651F07501B8CFF6
:101DA000E8E43E1679F0F3E53F12F8CF8C01F6CF68
:101DB000BE01665F7F4F0E94170175018E01065FAD
:101DC0001F4FA6CF682FCE0101960E94DC07750138
:101DD0008E010F5F1F4F9CCFF80180810F5F1F4F57
:101DE000882309F4A6CFF2018083FFEF6F1A7F0AE0
:101DF000C20101962C018CCF5801FFEFAF1ABF0A28
:101E0000C8010E94A8168501EBCFF801678181E027
:101E10000E944205F801378126819085321305C062
:101E200080913606981708F084CFE92FF0E0E8504B
:101E3000FA4F80819F5FF80190879F3388F23217B5
:101E400079F29091370697831086CACF6901CBCF7C
:101E500060E080E00E9442050091B9051091BA054A
:101E600027EBE22E25E0F22E37E5C32E31E0D32E0C
:101E7000412C512C32014394C8010196F801249160
:101E80002223B9F1243299F50E5F1F4FFC01849192
:101E9000883449F5F70164811C821B82DA82C98289
:101EA000CE0101960E94DC078E818823E1F0E82FA5
:101EB000F0E093E0F595E7959A95E1F7EA57FA4F48
:101EC000982F9770B301A20104C0440F551F661FDD
:101ED000771F9A95D2F79081942B90836FE30E949D
:101EE000A7058E83E1CF92E0E90EF11CC5CF8C01EE
:101EF000C3CFF401E35DFD4F10828BE78093340183
:101F0000C40160960FB6F894DEBF0FBECDBFDF915F
:101F1000CF911F910F91FF90EF90DF90CF90BF90E6
:101F2000AF909F908F907F906F905F904F903F9079
:101F300008954F925F926F927F928F929F92AF928D
:101F4000BF92CF92DF92EF92FF920F931F93CF93A6
:101F5000DF93CDB7DEB729970FB6F894DEBF0FBE7B
:101F6000CDBF8E01045E1F4FF801C190D1908F014B
:101F700060E080E00E944205C6010E949F16909397
:101F8000B8058093B705D092BA05C092B905D801BB
:101F90008BEB682E85E0782E97E5892E91E0992EBF
:101FA000CE0101965C01C6010196F601249122231F
:101FB00009F460C02432B9F42D01F2E04F0E511C37
:101FC000ED90FC9022E0C20ED11CFC01849186347D
:101FD000B1F158F48434B1F010E000E08534A1F19F
:101FE00010E000E01BC06C01DECF8834B9F183350E
:101FF000B9F7F70101900020E9F731978F010E1929
:102000001F090CC0B501C7010E941701F50101901D
:102010000020E9F731978F010A191B09F301E192BA
:10202000F1923F018091B7059091B8050297080F92
:10203000191F1093B8050093B705D201B4CFC7019B
:102040000E949F168C01EACFC8018E0D9F1D0E9431
:10205000A816882319F30F5F1F4FF6CF1C821B822F
:102060009A8289826E2DC5010E94DC07C5010E94FB
:10207000C905E8CF29960FB6F894DEBF0FBECDBFD5
:10208000DF91CF911F910F91FF90EF90DF90CF9054
:10209000BF90AF909F908F907F906F905F904F9088
:1020A00008951F920F920FB60F9211242F933F9312
:1020B0008F939F93AF93BF938091AF059091B0059D
:1020C000A091B105B091B2053091AE0523E0230F88
:1020D0002D3758F50196A11DB11D2093AE058093B3
:1020E000AF059093B005A093B105B093B205809170
:1020F000B3059091B405A091B505B091B6050196D0
:10210000A11DB11D8093B3059093B405A093B505AF
:10211000B093B605BF91AF919F918F913F912F9151
:102120000F900FBE0F901F90189526E8230F029670
:10213000A11DB11DD2CF1F920F920FB60F92112485
:102140002F933F934F935F936F937F938F939F93BF
:10215000AF93BF93EF93FF9381E496E00E9429032E
:10216000FF91EF91BF91AF919F918F917F916F916F
:102170005F914F913F912F910F900FBE0F901F9045
:1021800018951F920F920FB60F9211242F938F93D1
:102190009F93EF93FF93E0915106F0915206808157
:1021A000E0915706F091580682FD1BC09081809106
:1021B0005A068F5F8F7320915B06821741F0E09182
:1021C0005A06F0E0EF5BF94F958F80935A06FF9126
:1021D000EF919F918F912F910F900FBE0F901F90B5
:1021E00018958081F4CF1F920F920FB60F92112491
:1021F0002F933F934F935F936F937F938F939F930F
:10220000AF93BF93CF93DF93EF93FF938091CA0176
:10221000C0910207D0E087FF24C010928500109281
:1022200084008091CA018F5F8093CA018091CA01A6
:10223000082E000C990B8C179D0724F48091CA017D
:102240008C30C4F180918400909185000496803494
:102250009C4908F47AC0809184009091850004968E
:1022600076C08091CA01082E000C990B8C179D072F
:10227000C4F6E091CA018E2FEE0F990BFC01EE0F10
:10228000FF1FE80FF91FE252F94F808186FFC9CF87
:10229000E091CA018E2FEE0F990BFC01EE0FFF1F8C
:1022A000E80FF91FE252F94F808160E08F730E94BE
:1022B0009901B7CF2091840030918500E091CA0147
:1022C0008E2FEE0F990BFC01EE0FFF1FE80FF91F89
:1022D000E252F94F81819281820F931F909389007E
:1022E00080938800E091CA018E2FEE0F990BFC01BC
:1022F000EE0FFF1FE80FF91FE252F94F808186FFB2
:1023000011C0E091CA018E2FEE0F990BFC01EE0F68
:10231000FF1FE80FF91FE252F94F808161E08F73D0
:102320000E949901FF91EF91DF91CF91BF91AF9101
:102330009F918F917F916F915F914F913F912F91DD
:102340000F900FBE0F901F90189580E49CE990931A
:102350008900809388008FEF8093CA01E3CF20919A
:102360001B023091190230931B0220931902209115
:102370001C0230911A0230931C0220931A02E7EFDC
:10238000F1E021A5820F911D25A585A7662381F087
:1023900021A7892F9927319721E0E33FF20789F799
:1023A0001092290210922A0280E580932502089556
:1023B00011A6EFCF262F206120932602643021F052
:1023C000009711F481E090E061E00E94AF1110925B
:1023D000070288E2809308020E94B80784E0809395
:1023E00027021092280222E04CE150E06AE182E3E9
:1023F0000E94FA0386E390E00C946E061092440665
:102400001092430688EE93E0A0E0B0E0809345068A
:1024100090934606A0934706B093480685E491E062
:10242000909342068093410685EC90E090934E068F
:1024300080934D0684EC90E09093500680934F0675
:1024400080EC90E0909352068093510681EC90E0EE
:10245000909354068093530682EC90E09093560636
:102460008093550686EC90E090935806809357062B
:1024700010925A0610925B0610925C0610925D064E
:10248000809102078C30A8F591E0980F9093020795
:102490008093120790E0FC01EE0FFF1FE80FF91F79
:1024A000E252F94F88EB9BE09283818310920D07F3
:1024B00010920C0710920F0710920E07109211073E
:1024C0001092100750E040E061E671E08CE097E088
:1024D0000E946408109206071092050787E591E0B4
:1024E000909304078093030710920A07109208073D
:1024F00008958FEF80931207D9CFCF93DF93CDB795
:10250000DEB7AA970FB6F894DEBF0FBECDBF7894A2
:1025100084B5826084BD84B5816084BD85B58260E8
:1025200085BD85B5816085BD80916E008160809399
:102530006E00109281008091810082608093810002
:102540008091810081608093810080918000816012
:10255000809380008091B10084608093B10080916D
:10256000B00081608093B00080917A008460809395
:102570007A0080917A00826080937A0080917A005C
:10258000816080937A0080917A00806880937A00DD
:102590001092C10061E082E00E94E50161E083E009
:1025A0000E94E50160E080E00E94E50161E081E0D9
:1025B0000E94E501809112078C3008F051C061E063
:1025C00084E00E94E50180911207282F30E0F90194
:1025D000EE0FFF1FE20FF31FE252F94F9081907C44
:1025E0009460908310921307109214072CE0622FCE
:1025F0000E944A17829FB001112430E020E0AB0115
:10260000420F531FFA01EE0FFF1FE40FF51FE252B6
:10261000F94F908196FD16C02F5F3F4F2C3031054A
:1026200071F781110FC01092800082E080938100C9
:102630001092850010928400B19A80916F008260A0
:1026400080936F00E09112078E2F90E0FC01EE0F57
:10265000FF1FE80FF91FE252F94F808180648083E9
:1026600090E080E00E943401E0915106F091520622
:1026700082E08083E0914D06F0914E061082E09159
:102680004F06F09150068FEC808310925906E0912E
:102690005506F091560686E08083E0915306F0914E
:1026A0005406808180618083E0915306F091540646
:1026B000808188608083E0915306F0915406808188
:1026C00080688083E0915306F091540680818F7D6D
:1026D00080831092A10587E390E0C12CD12C760174
:1026E000C3940097C1F0FC01A3E0F595E795AA9586
:1026F000E1F7EA57FA4F282F2770B701A60104C067
:10270000440F551F661F771F2A95D2F72081242B6F
:1027100020830197E6CF6EE271E08DE895E00E949C
:102720009D0784E893E090938505809384050CB41D
:1027300006FC25C061E08AE00E94E50161E08AE0D4
:102740000E94990161E08BE00E94E50161E08DE06B
:102750000E94E50160E08CE00E94E50161E08BE011
:102760000E94990160E08BE00E94990160E08DE099
:102770000E94990180E58CBD8DB581608DBD8AE098
:102780008093830561E00E94E5010E949E044FEF63
:1027900060E08FEF0E94F70462E070E080E090E07C
:1027A0000E943B020E94A5048DE10E94990480E0F2
:1027B0000E9499041EB50E949E04112399F370E0B3
:1027C00060E088E00E94350570E060E08CE00E94E7
:1027D00035056FEF7BE08AE00E94350560E07CE024
:1027E00084E00E9435056FEF71E186E00E943505B7
:1027F00066E774E084E10E94B70661EB88E30E941B
:1028000028056FE370E388E20E94350569EF77EFF2
:1028100080E30E94350561E080EC0E94280542E3D8
:1028200062EC80E80E94F70462E17CE086EC0E94A2
:10283000350562E184EC0E9428056CED75E08AECB8
:102840000E94350560918D0584EE0E9428056091F7
:102850008E0585EE0E94280560918F0582EE0E940C
:1028600028056091900583EE0E94280560919105EE
:1028700080EE0E9428056091920581EE0E94280555
:1028800060E071E080E10E94B7068FE10E940C05D4
:1028900040EC6BE180E80E94F70444E06FE180E8DF
:1028A0000E94F70482E70E94EB051092A1056AE2FC
:1028B00071E08DE396E00E94B00710929C051092A3
:1028C0009B0581E08093A20566E271E087E995E0CF
:1028D0000E94B007EDE3F6E029E336E063E975E036
:1028E00041E456E09191D9018D919D018095892B0C
:1028F000DB018D93BD014E175F07A1F762E271E026
:1029000083EA95E00E94B00764E771E081E496E015
:102910000E94620773EAE72E75E0F72E10E0EAE006
:102920004E2E512C612C712CF70121917F0130E04A
:1029300050E040E019A26E01F1E2CF0ED11CCA01B5
:10294000B901A30192010E941917605DD6016E932F
:102950006D01211531054105510589F7109729F0C1
:10296000BD0181E496E00E946207133029F06EE217
:1029700081E496E00E944B031F5F1430A9F66FE5D7
:1029800071E081E496E00E9462078DE791E00E9489
:10299000710700EE10E04DE7E42E40E0F42E52E81F
:1029A000C52E50E0D52E6BE7B62E0E9403060E947E
:1029B000010A0E94F207A82E6BE871E083E097E01D
:1029C0000E9462070E94840783E097E00E94C90585
:1029D0001F92AF929F938F931F930F93FF92EF924B
:1029E0001F930F93DF92CF920E94990F0E94C4030E
:1029F000A82E0E946D022B013C010FB6F894DEBF99
:102A00000FBECDBF0E946D02641975098609970932
:102A1000683873418105910540F60E9403060E94C3
:102A2000010A80913401A812EDCFB0923401809157
:102A3000A7059091A805892B29F385EB91E00E94C9
:102A4000710780EEE82E80E0F82E9BEDC92E90E015
:102A5000D92EFBC069817A81CE0182960E94380806
:102A6000CE0101960E94080808C14EA15FA1411540
:102A7000510531F06AA17BA18CE097E00E943808F3
:102A80008091AD05882329F10E946D020091A9056E
:102A90001091AA052091AB053091AC05601B710B1C
:102AA000820B930B683873418105910590F0109269
:102AB000AD0590E080E00E94340160E082E00E9479
:102AC000990150E040E061E671E08CE097E00E94FF
:102AD000640880911007909111070A9709F0A7C028
:102AE0001A8219821C821B821E821D8260910C0731
:102AF00070910D076115710531F04AE050E0CE018B
:102B000001960E9464080E9403060E94010A0E9426
:102B1000F207182F4D815E8169817A8183E097E009
:102B20000E9479020E94840783E097E00E94C90511
:102B30001F921F939F938F93FF92EF92DF92CF92FA
:102B4000FF92EF92BF92AF920E94990F0E94C4032E
:102B5000182F0E946D022B013C010FB6F894DEBFC6
:102B60000FBECDBF0E946D026419750986099709D1
:102B7000683E734081059105F8F40E9403060E94A7
:102B8000010A809134011813ADC090923401E09194
:102B9000A705F091A805309709F4A4C0858596850E
:102BA00099A788A71AA665E971E0CE0188960E94C8
:102BB000681911E0892B09F010E0CE0101960E94FE
:102BC000080888E991E00E9471076DE971E081E4ED
:102BD00096E00E94620782E691E0111102C08AE647
:102BE00091E00E947107112309F483C061E082E043
:102BF0000E94990160E083E00E9499018AE590E0DB
:102C00000E94340181E08093AD050E946D026093C3
:102C1000A9057093AA058093AB059093AC0550E08D
:102C200040E061E671E08CE097E00E946408CE012C
:102C300082960E94080880E090E0892B61F00E9453
:102C40001503882331F00E9400003CEEA32E30E0F3
:102C5000B32E2BE7922E0E9403060E94010A1BA2AC
:102C60001AA21DA21CA21FA21EA250E040E061E613
:102C700071E0CE0182960E94640881E496E00E9491
:102C80000903892B09F4F1CE1A8219821C821B8256
:102C90001E821D8250E040E061E671E0CE010196A7
:102CA0000E9464080E94C9024D815E8197FDD2CEC8
:102CB00088A719A68A010F5F1F4FB801CE010196A0
:102CC0000E941008882371F329813A818D819E81A9
:102CD000BE01685D7F4F820F931F0E9471191E8392
:102CE0000D83E0CF68EC70E080E090E00E943B0252
:102CF00039CF60E082E00E94990161E083E00E94A8
:102D0000990190E080E00E94340164EF71E080E07E
:102D100090E00E943B0260E083E00E9499011092E3
:102D2000AD057DCF8CE097E00C940808FB01DC0139
:102D300002C005900D9241505040D8F70895FC0113
:102D400005900020E9F7809590958E0F9F1F0895BC
:102D5000F999FECF92BD81BDF89A992780B5089563
:102D6000052E97FB1EF400940E94C71657FD07D04E
:102D70000E94191707FC03D04EF40C94C716509507
:102D80004095309521953F4F4F4F5F4F0895909557
:102D90008095709561957F4F8F4F9F4F08950E944A
:102DA0003B17A59F900DB49F900DA49F800D911D82
:102DB00011240895B7FF0C94CF160E94CF16821BE2
:102DC000930B08952F923F924F925F926F927F9252
:102DD0008F929F92AF92BF92CF92DF92EF92FF922B
:102DE0000F931F93CF93DF93CDB7DEB7CA1BDB0BD7
:102DF0000FB6F894DEBF0FBECDBF09942A8839887C
:102E000048885F846E847D848C849B84AA84B98482
:102E1000C884DF80EE80FD800C811B81AA81B9818E
:102E2000CE0FD11D0FB6F894DEBF0FBECDBFED01A2
:102E30000895A1E21A2EAA1BBB1BFD010DC0AA1FFB
:102E4000BB1FEE1FFF1FA217B307E407F50720F013
:102E5000A21BB30BE40BF50B661F771F881F991F8E
:102E60001A9469F760957095809590959B01AC01D7
:102E7000BD01CF010895A29FB001B39FC001A39FE0
:102E8000700D811D1124911DB29F700D811D1124A3
:102E9000911D0895991B79E004C0991F961708F0B9
:102EA000961B881F7A95C9F780950895AA1BBB1BAE
:102EB00051E107C0AA1FBB1FA617B70710F0A61B3A
:102EC000B70B881F991F5A95A9F780959095BC015B
:102ED000CD010895EE0FFF1F0590F491E02D0994A8
:102EE0000F931F93CF93DF938230910510F482E00C
:102EF00090E0E0911707F091180730E020E0B0E093
:102F0000A0E0309799F42115310509F44AC0281B37
:102F1000390B24303105D8F58A819B816115710503
:102F200089F1FB0193838283FE0111C040815181AD
:102F30000281138148175907E0F04817590799F49F
:102F4000109761F012960C93129713961C93329679
:102F5000CF01DF91CF911F910F9108950093170733
:102F600010931807F4CF2115310551F0421753077C
:102F700038F0A901DB019A01BD01DF01F801C1CFE1
:102F8000EF01F9CF9093180780931707CDCFFE017B
:102F9000E20FF31F819391932250310939832883E3
:102FA000D7CF2091150730911607232B41F420919C
:102FB000370130913801309316072093150720917F
:102FC0003501309136012115310541F42DB73EB759
:102FD0004091390150913A01241B350BE0911507BE
:102FE000F0911607E217F307A0F42E1B3F0B2817EA
:102FF000390778F0AC014E5F5F4F2417350748F072
:103000004E0F5F1F509316074093150781939193BE
:103010009FCFF0E0E0E09CCFCF93DF930097E9F003
:10302000FC01329713821282A0911707B091180702
:10303000ED0130E020E01097A1F420813181820F72
:10304000931F20911507309116072817390709F0AB
:1030500061C0F0931607E0931507DF91CF910895B3
:10306000EA01CE17DF07E8F54A815B819E01411531
:103070005105B1F7E901FB83EA8349915991C40FE6
:10308000D51FEC17FD0761F4808191810296840FB2
:10309000951FE90199838883828193819B838A8329
:1030A000F0E0E0E012968D919C9113970097B9F5AE
:1030B0002D913C911197CD010296820F931F209183
:1030C0001507309116072817390739F6309751F54B
:1030D0001092180710921707B0931607A0931507C0
:1030E000BCCFD383C28340815181840F951FC81701
:1030F000D90761F44E5F5F4F88819981480F591F4E
:10310000518340838A819B8193838283211531057A
:1031100009F0B0CFF0931807E09317079ECFFD0199
:10312000DC01C0CF13821282D7CFB0E0A0E0EBE980
:10313000F8E10C94E4168C01009751F4CB010E9445
:1031400070178C01C801CDB7DEB7E0E10C94001711
:10315000FC01E60FF71F9C0122503109E217F3072B
:1031600008F49DC0D901CD91DC911197C617D707FE
:1031700098F0C530D10530F3CE0104978617970734
:1031800008F3C61BD70B2297C193D1936D937C9301
:10319000CF010E940C18D6CF5B01AC1ABD0A4C01BE
:1031A0008C0E9D1EA0911707B0911807512C412C31
:1031B000F12CE12C109731F58091150790911607AD
:1031C0008815990509F05CC04616570608F058C0E6
:1031D0008091350190913601009741F48DB79EB7EB
:1031E0004091390150913A01841B950BE817F9077A
:1031F00008F055C0F0931607E0931507F9017183A5
:103200006083A0CF8D919C91119712966C9012972C
:1032100013967C901397A815B90559F56C0142E0F7
:10322000C40ED11CCA14DB0420F1AC014A195B099D
:10323000DA011296159780F062827382518340837F
:10324000D9016D937C93E114F10471F0D7011396C9
:10325000FC93EE93129776CF22968C0F9D1FF90167
:1032600091838083F301EFCFF0931807E093170762
:1032700069CF4816590608F42C017D01D3019ACF75
:10328000CB010E9470177C01009749F0AE01B80194
:103290000E945F19C8010E940C18870153CF10E0EB
:1032A00000E050CFFB01DC0104C08D91019080193A
:1032B00021F441505040C8F7881B990B0895FB0139
:1032C000DC0102C001900D9241505040D8F70895A2
:1032D000FB01DC018D91019080190110D9F3990B4C
:1032E0000895FB01DC0101900D920020E1F70895A3
:1032F00010E0CCECD0E004C0FE010E946A172196D9
:0A330000CD3CD107C9F7F894FFCFC8
:10330A0041726475696E6F2D454E4332386A3630A4
:10331A002D30300000000000000000000000000016
:10332A000A01C0A80201C0A80201C0A80202756968
:10333A00692D30317B000019078000FFFFFFFFFF76
:10334A00FF000000004B037902A60298030903B5A7
:10335A0002FB0200000000320779025F075E070DD8
:10336A000A00436F727265637400496E636F72720A
:10337A00656374005365727665723A20004761741A
:10338A006577617920666F756E640048616E647353
:10339A0068616B65004F4B0020200A20005365715D
:1033AA0075656E636520436865636B205265737546
:1033BA006C743A200048616E647368616B652063BF
:0A33CA006F6D706C6574656400009F
:00000001FF
