:100000000C94CD000C94F5000C94F5000C94F500C4
:100010000C94F5000C94F5000C94F5000C94F5008C
:100020000C94F5000C94F5000C94F5000C9451120E
:100030000C94F5000C94F5000C94F5000C94F5006C
:100040000C94AF110C94F5000C941F120C94F91140
:100050000C94F5000C94F5000C94F5000C94F5004C
:100060000C94F5000C94F5006382536300010800C2
:10007000060400014500008200004000207266690D
:100080006400504F535420687474703A2F2F2446E4
:100090002F244620485454502F312E310D0A486FDA
:1000A00073743A2024460D0A436F6E74656E742D86
:1000B0004C656E6774683A2024440D0A436F6E7471
:1000C000656E742D547970653A20746578742F705C
:1000D0006C61696E0D0A0D0A24480072666964003D
:1000E0003139322E3136382E322E3100504F5354A2
:1000F00020687474703A2F2F24462F2446204854C9
:1001000054502F312E310D0A486F73743A20244613
:100110000D0A436F6E74656E742D4C656E6774685E
:100120003A2024440D0A436F6E74656E742D547921
:1001300070653A20746578742F706C61696E0D0A71
:100140000D0A24480000000000240027002A0000B7
:10015000000000250028002B00040404040404040B
:100160000402020202020203030303030301020466
:100170000810204080010204081020010204081029
:100180002000000008000201000003040700000036
:100190000000000000005C132B1811241FBECFEFDD
:1001A000D8E0DEBFCDBF11E0A0E0B1E0ECE3F6E3C4
:1001B00002C005900D92A43EB107D9F727E0A4EE46
:1001C000B1E001C01D92AB34B207E1F710E0CCEC16
:1001D000D0E004C02197FE010E940319CB3CD10757
:1001E000C9F70E9409140C94111B0C940000CF93C2
:1001F000DF93209157062223C1F0FC0120812223A6
:10020000A1F0C7E5D6E0A3E5B6E09C012C5F3F4F27
:10021000899141919D918427892339F4E217F3074D
:10022000B9F781E0DF91CF91089580E0FBCFCF93C4
:10023000DF93EC01FB018A30910548F06AE070E041
:100240000E94EF18CB01BF010E941701FC01CE01F3
:100250006AE070E00E94EF18805D80831182CF0118
:100260000196DF91CF9108958F929F92AF92BF92A6
:10027000FF920F931F93CF93DF93F0902C072BE007
:100280002F1508F44CC020912E0708E512E0021B40
:10029000110927FD1395000F111F000F111F209149
:1002A0002D07C8E8D0E0C21BD10927FDD395CC0F9C
:1002B000DD1FCC0FDD1F4E010D2E000CAA08BB0860
:1002C0009801012E000C440B550B281939094A09D5
:1002D0005B09DC010E94731824EB30E040E050E041
:1002E0000E944918820E931EA41EB51E8C169D06F0
:1002F0002CF0E801801691060CF4E4012297CC0F53
:10030000DD1F2FB7F8948F2D90E0FC01EE0FFF1F3B
:10031000E80FF91FE850F94FD283C1832FBFDF9157
:10032000CF911F910F91FF90BF90AF909F908F90B2
:10033000089590E0FC01EF57FE4F2491FC01E35932
:10034000FE4F3491FC01E75AFE4FE491EE23C9F0D1
:10035000222339F0233001F1A8F4213019F12230A1
:1003600029F1F0E0EE0FFF1FE15BFE4FA591B49184
:100370008FB7F894EC91611126C030953E233C93E1
:100380008FBF08952730A9F02830C9F0243049F7ED
:10039000809180008F7D03C0809180008F77809353
:1003A0008000DFCF84B58F7784BDDBCF84B58F7DB0
:1003B000FBCF8091B0008F778093B000D2CF809137
:1003C000B0008F7DF9CF3E2BDACFCF93DF9390E053
:1003D000FC01E359FE4F2491875A9E4FFC01849102
:1003E0008823D1F090E0880F991FFC01EB5BFE4F52
:1003F000A591B491FC01E15BFE4FC591D4916111CF
:100400000EC09FB7F8948C91E22FE0958E238C93C9
:100410002881E223E8839FBFDF91CF9108958FB7B2
:10042000F894EC91E22BEC938FBFF6CF3FB7F894A2
:100430008091CD059091CE05A091CF05B091D005CA
:1004400026B5A89B05C02F3F19F00196A11DB11D2F
:100450003FBFBA2FA92F982F8827BC01CD01620F6B
:10046000711D811D911D42E0660F771F881F991F26
:100470004A95D1F708958F929F92AF92BF92CF92F3
:10048000DF92EF92FF924B015C010E9416026B011A
:100490007C010E9416026C197D098E099F09683E35
:1004A000734081059105A8F321E0821A9108A10803
:1004B000B10888EEC80E83E0D81EE11CF11C81143F
:1004C0009104A104B10429F7FF90EF90DF90CF9041
:1004D000BF90AF909F908F9008952FB7F894609140
:1004E000C9057091CA058091CB059091CC052FBFAD
:1004F0000895AF92BF92CF92DF92EF92FF920F9347
:100500001F93CF93DF936C017B018B01040F151FA9
:10051000EB015E01AE18BF08C017D10759F0699111
:10052000D601ED91FC910190F081E02DC601099575
:10053000892B79F7C501DF91CF911F910F91FF9022
:10054000EF90DF90CF90BF90AF900895FC01538D56
:10055000448D252F30E0842F90E0821B930B54179D
:1005600010F0CF96089501970895FC01918D828D2A
:10057000981761F0A28DAE0FBF2FB11D5D968C91C3
:10058000928D9F5F9F73928F90E008958FEF9FEF02
:1005900008950F931F930E946D02609363067093FA
:1005A000640680936506909366068BE596E00E944C
:1005B000B50297FF1DC00E946D0200916306109165
:1005C00064062091650630916606601B710B820BF4
:1005D000930B00915F0610916006209161063091A7
:1005E00062066017710782079307F8F28FEF9FEF9B
:1005F0001F910F910895FC01918D828D981731F014
:10060000828DE80FF11D858D90E008958FEF9FEFAB
:100610000895FC01918D228D892F90E0805C9F4F81
:10062000821B91098F73992708958BE596E00E94AC
:10063000090321E0892B09F420E0822F089580E04E
:1006400090E0892B29F00E94150381110C94000081
:100650000895FC01A48DA80FB92FB11DA35ABF4F57
:100660002C91848D90E001968F739927848FA689B1
:10067000B7892C93A089B1898C91837080648C9305
:10068000938D848D981306C00288F389E02D8081B4
:100690008F7D80830895EF92FF920F931F93CF93E6
:1006A000DF93EC0181E0888F9B8D8C8D98131AC0AD
:1006B000E889F989808185FF15C09FB7F894EE8994
:1006C000FF896083E889F9898081837080648083F1
:1006D0009FBF81E090E0DF91CF911F910F91FF903C
:1006E000EF900895F62E0B8D10E00F5F1F4F0F73E4
:1006F0001127E02E8C8D8E110CC00FB607FCFACF9F
:10070000E889F989808185FFF5CFCE010E94290310
:10071000F1CFEB8DEC0FFD2FF11DE35AFF4FF0826F
:100720009FB7F8940B8FEA89FB8980818062CFCFD5
:10073000CF93DF93EC01888D8823B9F0AA89BB8918
:10074000E889F9898C9185FD03C0808186FD0DC003
:100750000FB607FCF7CF8C9185FFF2CF808185FF24
:10076000EDCFCE010E942903E9CFDF91CF9108950B
:10077000611108C0809334014F5E5D4F5093C205F4
:100780004093C10581E0089588EB93E090930402C3
:100790008093030287EA9FE0909302028093010214
:1007A00010929A0580E580939B0581E080939C05DB
:1007B000809199058F5F8770809399050895809146
:1007C0002102909122029827892798274497209107
:1007D0003F0230E044E0359527954A95E1F7220F36
:1007E000331F220F331F821B930B97FF02C090E031
:1007F00080E008950F931F93CF93DF9370E06F5EB7
:100800007D4F8A01075F1F4F213029F0223031F4DC
:100810008A010250110930E020E003C000E010E03E
:100820009801EB01FA01E230F10558F0A991B99174
:10083000BA27AB27BA270A0F1B1F211D311D32977C
:10084000F2CFFA01EE7F6E0F7F1F4E175F0769F040
:10085000FB01408150E070E060E0762F652F542F5F
:100860004427040F151F261F371FA9016627772766
:10087000411551056105710519F022273327F1CF84
:1008800000951095E82FF0E0EF5EFD4F1083018397
:10089000DF91CF911F910F910895E1E1F2E0108E69
:1008A000118E80E4848B158A868B20E044E150E031
:1008B0006EE088E10C94FA03CF93DF93E0EAF5E071
:1008C00030E020E0822F9191992361F170E060E0A7
:1008D000492F50E0A62FEA01062E02C0D595C795F4
:1008E0000A94E2F7C0FF19C020563A4F41E050E0A9
:1008F00060E070E00A2E04C0440F551F661F771F8A
:100900000A94D2F740954923F9014083880F880F54
:10091000880F8A0FDF91CF9108956F5F7F4F683006
:100920007105C1F62F5F3F4F2730310559F680E042
:10093000F1CF8EBD0DB407FEFDCF089561E080912B
:100940009D050E94990178940895F89460E0809143
:100950009D050C9499010F931F93CF93DF938C0106
:10096000EB010E94A50401151105A1F08AE70E9480
:100970009904FE0181918EBDC00FD11FEC17FD07B8
:1009800031F081910DB407FEFDCF8EBDF7CF0DB4D0
:1009900007FEFDCFDF91CF911F910F910C949E0424
:1009A0000F931F93CF93DF93EC018B010E94A5045B
:1009B0002097B9F08AE30E9499041EBCF801CE0189
:1009C000019739F00DB407FEFDCF2EB51EBC219363
:1009D000F7CF2197C00FD11F0DB407FEFDCF8EB505
:1009E0008883DF91CF911F910F910C949E041F93E8
:1009F000CF93DF93182FC62FD42F0E94A5048C2FDE
:100A00008F71812B0E9499048D2F0E949904DF9190
:100A1000CF911F910C949E04CF93C82FC0768091E4
:100A2000E7018C1799F043E06FE180EA0E94F70438
:100A3000C093E7014C2F50E085E0559547958A9586
:100A4000E1F76FE180E8CF910C94F704CF9108951E
:100A5000CF93DF93C82FD62F0E940C054D2F6C2FFC
:100A600080E4DF91CF910C94F704CF93DF93C82FEC
:100A7000D72F0E9428056D2F81E08C0FDF91CF9139
:100A80000C942805FF920F931F93CF93DF93082FA9
:100A900010E091E4899FF0011124EF5EF94F20816D
:100AA000261709F44EC0C62FD82F81113DC080E40F
:100AB000289F90011124B9017E5E213C3D4048F4FD
:100AC00082E00E94350561ED75E080E490E00E94CF
:100AD000AB04809152068C1303C08FEF80935206B3
:100AE00081E4F82EF09EF001F19EF00D1124EF5EEE
:100AF000F94FC08380E4C89F90011124B9017E5E44
:100B0000213C3D40F0F480E00E943505DF9DB001BE
:100B100011246F527A4F80E490E0DF91CF911F91C2
:100B20000F91FF900C94D004809111068613D8CFBA
:100B300081E4E1EDF5E0A2E1B6E001900D928A9545
:100B4000E1F7DF91CF911F910F91FF900895CF931F
:100B5000DF931F92CDB7DEB7198220E4829FC001D8
:100B600011249E5E680F792F711DCB019251811562
:100B70009E4050F480E00E943505BE016F5F7F4FBC
:100B800081E090E00E94D00489810F90DF91CF91A5
:100B90000895CF93DF93FC01C481FFE3CF9FE00171
:100BA0001124FC01868190911106891309C080915E
:100BB0000F068C0F9D2F911D0397DF91CF91089504
:100BC00090915206891303C080915006F2CF6EE3D4
:100BD0000E94A705EECFCF93C82F0E940C050E945C
:100BE000A5048C2F8F710E94990480E00E949904C3
:100BF000C7FF03C080E00E949904CEB50E949E0406
:100C00008C2FCF9108950F931F93CF93DF9300D034
:100C100000D000D0CDB7DEB78091EA01882379F00B
:100C20006091E8017091E9016115710509F053C007
:100C30006FEF7BE08CE00E9435051092EA0189E3BA
:100C40000E94EB0510E000E08823C9F16091E80103
:100C50007091E90180E00E943505BE016F5F7F4F12
:100C600086E090E00E94D00489819A819093E90106
:100C70008093E8018D819E818C010078112787FF88
:100C800012C08B819C81049700919E0510919F0555
:100C9000015011098017910708F48C0161E172E09D
:100CA000C8010E94D004F801EF5EFD4F108281E080
:100CB0008093EA0140E46EE180E80E94F704C801F5
:100CC00026960FB6F894DEBF0FBECDBFDF91CF9151
:100CD0001F910F91089561507109ACCFCF93DF93AD
:100CE000EC0140E86FE180E80E94F70440E86FE122
:100CF00080EA0E94F7044AE06CE180EA0E94F7046F
:100D000060E07CE082E00E943505BE01745F86E011
:100D10000E94350540E060E08AE70E94F70461E147
:100D200072E0CE010E94AB0448E06FE180E80E94CF
:100D3000F704D0E0C0E08CE10E94EB058A7029F452
:100D40002196C83E83E0D807B1F78CE10E94EB05FD
:100D500081FD03C0C83ED34039F448E06FE180EA2A
:100D6000DF91CF910C94F704DF91CF910895CF9349
:100D7000DF93EB01682F84ED0E942805BE0186ED0C
:100D80000E9435058AEE0E94EB0580FDFBCFDF91C6
:100D9000CF910895CF92DF92EF92FF920F931F931E
:100DA0008634910568F120913402233449F5C090CE
:100DB0003F02D0904002E0904102F0904202009148
:100DC000F0011091F1012091F2013091F301C01670
:100DD000D106E206F306A1F4EBE2F3E08F5E9D4F4D
:100DE0009F012E5F3F4F41815081553319F452814D
:100DF000651771F0F901E40FF11DE817F90780F3A9
:100E000080E01F910F91FF90EF90DF90CF900895B9
:100E100081E0F7CFE091E501F091E6019F012F5FBE
:100E20003F4F3093E6012093E50180830895FF92C0
:100E30000F931F93CF93DF93162FF42E052F0E944D
:100E40000A07812F0E940A07CF2DD02F115020F0C2
:100E500089910E940A07FACFDF91CF911F910F91DC
:100E6000FF9008951F93CF93DF93EC01162F6E81AF
:100E700080E00E944205E0910F0681E08E0FF0E0D5
:100E8000EF52FA4F10838F3340F480930F0681E0C6
:100E900090E0DF91CF911F9108950E945C048093B0
:100EA00010068E83682F80E00E9442051092100683
:100EB00010920F068C818F5F8C83E9CF089590E0AC
:100EC00080E00895CF93DF93EC0160E08E810E9473
:100ED000990161E08E810E94990160E08E810E94FB
:100EE00099018BE891E00197F1F7DF91CF91089597
:100EF000CF92DF92EF92FF920F931F93CF93DF93E6
:100F00006C017C0187E0E80EF11CD0E0C0E0062F08
:100F100010E0B8010C2E02C0759567950A94E2F7AF
:100F20006170F70181917F010E9499012196C4307F
:100F3000D10579F7C601DF91CF911F910F91FF90F5
:100F4000EF90DF90CF900C946207CF92DF92EF92F8
:100F5000FF920F931F93CF93DF93EC01F62E642F34
:100F60008C810E9499018D818F3F19F060E00E9471
:100F700099010F2D10E08F8584FF25C06E0187E059
:100F8000C80ED11CF12CE12CB8010E2C02C07595B5
:100F900067950A94E2F76170F60181916F010E94F2
:100FA0009901FFEFEF1AFF0A88E0E816F10461F7F4
:100FB000CE01DF91CF911F910F91FF90EF90DF90C5
:100FC000CF900C946207B80184E0759567958A9577
:100FD000E1F7CE010E9478076F2DCE01DF91CF910E
:100FE0001F910F91FF90EF90DF90CF900C947807B6
:100FF000CF93DF93623029F490913E0798609093ED
:101000003E07609342071092430790E49093440791
:1010100080934507805C8093460761E080913307A9
:101020000E94E501809134078F3F19F061E00E9432
:10103000E50161E0809135070E94E501CFE2D7E04C
:101040009E012F52374080913E0784FD0BC084E003
:1010500090E021962817390744F461E08E810E94C0
:10106000E501EECF88E090E0F4CF8BE39DE00197BF
:10107000F1F760E0809133070E94990160E0809170
:1010800035070E949901809134078F3F19F060E085
:101090000E94990160913E0764FD45C063E08FE2C4
:1010A00097E00E947807CBE4D6E4CE010197F1F7F0
:1010B00063E08FE297E00E9478072197F1F763E001
:1010C0008FE297E00E94780783E592E00197F1F7BD
:1010D00062E08FE297E00E94780760913E076062CD
:1010E00040E08FE297E00E94A50784E080933F07ED
:1010F00040E06CE08FE297E00E94A50740E061E0ED
:101100008FE297E00E94A5078BE39FE10197F1F73B
:1011100082E08093400740E066E08FE297E0DF9155
:10112000CF910C94A507606240E08FE297E00E94A7
:10113000A5078BE496E40197F1F760913E076062A2
:1011400040E08FE297E00E94A50783E592E00197D7
:10115000F1F760913E07606240E08FE297E00E9405
:10116000A507BBCF41E00E94A50781E090E008956C
:10117000FB0101900020E9F73197AF01461B570BA7
:10118000DC01ED91FC910280F381E02D0994CF9375
:10119000DF93BC018BE596E00E94B808EC016BE69A
:1011A00071E08BE596E00E94B8088C0F9D1FDF91DF
:1011B000CF9108956091220780E00E94420583E06C
:1011C000E1E2F7E0A1EDB5E001900D928A95E1F73B
:1011D0009091520680912207981304C060E081E04C
:1011E0000C9442050895DC0196E0FB0101900D92FC
:1011F0009A95E1F70895BC0181E192E00E94F3081D
:1012000067EA75E087E192E00C94F308DC0194E072
:10121000FB0101900D929A95E1F7089587E192E024
:101220000E94FB086BE272E08FE292E00E940609E6
:1012300067E576E08BE292E00E9406090C944D048B
:10124000CF93DF93EB010E94FB08BE018FE292E097
:101250000E94060967E576E08BE292E0DF91CF918C
:101260000C940609CF93DF93EC016F8383E08887AA
:1012700081E00E944205DE01149683E0E2E1F6E09F
:1012800001900D928A95E1F78F81DF91CF910895BA
:10129000CF930E945C04C82F682F80E00E94420513
:1012A000E1EDF5E01082C283C18383E086AF17AE23
:1012B0006C2F8DE197E0CF910C943209FC01808175
:1012C0009181009711F00C94A51908950F931F9325
:1012D000CF93DF93EC0188819981009759F02A819F
:1012E0003B812617370730F081E0DF91CF911F91C6
:1012F0000F9108958B016F5F7F4F0E942E1A009708
:1013000059F0998388831B830A832C813D81232B89
:1013100059F7FC011082E8CF80E0E7CFEF92FF920F
:101320000F931F93CF93DF936115710541F480E014
:10133000DF91CF911F910F91FF90EF90089541158C
:101340005105B1F07B01EC010C811D81040F151FCB
:10135000B8010E946609882351F3288139818C8164
:101360009D81B701820F931F0E940A1B1D830C836E
:1013700081E0DECFEF92FF920F931F93CF93DF9325
:10138000EC017B018A01BA010E946609288139813A
:10139000811114C02115310519F0C9010E94A51948
:1013A000198218821D821C821B821A82CE01DF9153
:1013B000CF911F910F91FF90EF9008951D830C83A3
:1013C000B701C9010E940A1BF1CF50E040E06DE671
:1013D00071E086E297E00C94BA09CF93DF93EB01BA
:1013E00044E050E0BC018DE292E00E94EB1A892BB0
:1013F00049F467E272E0CE010E94F30881E0DF91D8
:10140000CF91089580E0FBCF0F931F93CF938C0172
:101410008BE391E00E94FB08E1E1F2E088E0848741
:10142000C6E0C58748E050E06CE670E08FE192E0EE
:101430000E942F18E1E3F2E0DF011D92CA95E9F75F
:1014400067EA75E087E292E00E94F308B80187E35B
:1014500092E00E94060967E576E08DE292E00E9444
:1014600006098AE290E0CF911F910F910C946E06CD
:10147000EF92FF920F931F93CF93DF938C01E1E1E3
:10148000F2E086E191E0DF019C011D9221503040A5
:10149000E1F780910002CBE3D1E0833011F4CBEE91
:1014A000D1E0CE010E94F700BE01882309F4ACC050
:1014B00085E092E00E9420098881807F803E91F043
:1014C00088819981AA81BB818F3F9F4FAF4FBF4FCA
:1014D00049F044E050E0BE018DEA95E00E94EB1A2D
:1014E000892B31F46BE371E081E192E00E94F30813
:1014F00088E080931D0210921E0249E050E064E7EC
:1015000070E08FE192E00E942F181092210281E199
:10151000809328021092350283E480933602109261
:10152000330284E48093340210923702109239021D
:1015300010923A026BE371E081E192E00E94F308BD
:1015400081E080933B0280933C0286E080933D02E1
:101550008091F0019091F101A091F201B091F3011D
:1015600080933F0290934002A0934102B0934202C5
:10157000C0910002C33031F467E576E087E492E081
:101580000E94060967EA75E087E592E00E94F30889
:1015900087E293E09093E6018093E501E8E6F0E0CE
:1015A00084910E940A07E9E6F0E084910E940A070C
:1015B000EAE6F0E084910E940A07EBE6F0E084910D
:1015C0000E940A0785E30E940A0781E00E940A0739
:1015D00083E0C11101C081E00E940A078DE30E94EF
:1015E0000A0787E00E940A0781E00E940A0787EA4B
:1015F000E82E85E0F82EC7E0C15049F0D7018D9163
:101600007D010E940A07F8CF8BE092E053CF8091D2
:101610000001882371F060E071E0FB01019000207F
:10162000E9F7BF016150714040E051E08CE00E9459
:1016300017070115110559F0A80164E082E30E9423
:1016400017074BEE51E064E086E30E94170787E33B
:101650000E940A0783E00E940A0781E00E940A07AD
:1016600083E00E940A0786E00E940A078FEF0E942B
:101670000A07C091E501D091E601CB53D240CE01DB
:101680004C9690932102809322020E944D04CE0139
:1016900008969093370280933802AE01405F5F4F07
:1016A00021E06AE188E20E94FA03CE018A96DF9186
:1016B000CF911F910F91FF90EF900C946E068F9237
:1016C0009F92AF92BF92CF92DF92EF92FF920F93D1
:1016D0001F93CF93DF9300D000D0CDB7DEB77C014E
:1016E0008091BB05882369F080910002823009F463
:1016F000F1C008F0E9C0882309F474C1813009F40D
:1017000090C1E114F10409F02BC28091BC058570F1
:1017100029F18091B5059091B605892BF9F461E125
:1017200084ED0E94280561E082ED0E9428058AEE82
:101730000E94EB0580FDFBCF60E082ED0E94280552
:1017400089ED0E94EB0582FF09C081EB95E00E94C4
:10175000040A8091BC0588608093BC058091B50522
:101760009091B60501969093B6058093B50580914A
:101770009C05813009F079C08091BC0581FF75C05E
:1017800082E080939C05809121018F5F80932101ED
:10179000F0909B05E0909A0510919905A0E21A9FA0
:1017A000900111248F71182F122B8DEB95E00E9460
:1017B000F7006DEB75E0882309F4BFC185E092E086
:1017C0000E94200908E000931D0210921E0249E0C9
:1017D00050E064E770E08FE192E00E942F188CE205
:1017E0008093220286E0809328020E944D04E092BA
:1017F0003502F09236028BE080933302109334026C
:10180000E7E3F2E0DF011D920A95E9F780912001FC
:10181000809339028D5F8093200180E680933F02A0
:1018200082E08093400293E0909341021092420242
:101830001092430210924402109245021092460206
:101840008093470294E0909348028093490286E295
:1018500080934A0222E040E250E06AE182E30E9483
:10186000FA038AE390E00E946E0687EB95E00E94FF
:10187000F700882379F08091980581110BC0809141
:101880009705811107C087EB95E00E94040A81E06B
:10189000809397058DEB95E00E94F700811150C170
:1018A00010E000E0C8010F900F900F900F90DF91B3
:1018B000CF911F910F91FF90EF90DF90CF90BF904D
:1018C000AF909F908F900895833009F456C0843074
:1018D00009F017CF65E0C7010E94CA06882309F402
:1018E000C9C08091EF01811108C088E30E94EB0517
:1018F000682F6E7F88E30E9428056BE472E087E51D
:1019000096E00E940609EBE2F3E0C7018F5E9D4F6F
:101910006C018F010E5F1F4FB1808081863009F40A
:10192000FBC008F0BEC0813009F4ECC0833009F47C
:10193000EFC0F801EB0DF11DEC15FD0550F30E9411
:101940006D026093F8017093F9018093FA0190930E
:10195000FB018091B105882361F01092B6051092C9
:10196000B50581E08093BC0561EB75E0CB010E9479
:10197000060983E080930002C4CE8090FC01909021
:10198000FD01A090FE01B090FF012FEF821692069C
:10199000A206B20609F4B5CE0E946D020091F801CC
:1019A0001091F9012091FA013091FB01601B710B3C
:1019B000820B930B681579058A059B0508F4A1CE67
:1019C00087E596E00E94380A84E0809300020E9436
:1019D0006D026093F4017093F5018093F60190938A
:1019E000F7018FCE0E946D026093F0017093F101B8
:1019F0008093F2019093F301E7E5F6E084E0DF01E4
:101A00001D928A95E9F790E080E00E94380A88E309
:101A10000E94EB05682F616088E30E94280581E041
:101A2000D4CF62E0C7010E94CA06882319F16BE493
:101A300072E0CE0101960E940609EBE2F3E0C701D5
:101A40008F5E9D4FBF016E5F7F4F218130813633A6
:101A500051F48BEE91E00E940609CE0101960E949E
:101A6000380A82E0B2CFFB01E20FF11DE817F90757
:101A700048F3F3CF0E946D020091F4011091F5013B
:101A80002091F6013091F701601B710B820B930BD3
:101A9000613177428105910508F433CE109200023E
:101AA00030CE8A3331F08F3F09F449CF833309F0C8
:101AB00040CF1092FC011092FD011092FE01109295
:101AC000FF01F801C801049620E030E0A90161910E
:101AD000542F432F322F2227260F311D411D511D18
:101AE0008E179F07A1F72F3F9FEF39074907590727
:101AF000B9F42093FC013093FD014093FE01509313
:101B0000FF0117CFB80183E596E00E94060911CFC7
:101B1000B80181EB95E0F9CFB80187EB95E0F5CFFF
:101B2000A8EEB3E00E9468186093FC017093FD0179
:101B30008093FE019093FF01FCCE8BE092E040CEBB
:101B4000809196058111ACCE809195058111A8CE2A
:101B50008DEB95E00E94040A81E080939505A0CE6C
:101B6000B9E2EB16F10408F49BCE80911D02883097
:101B700009F096CE80911E02863009F09FC144E0A4
:101B800050E067E576E087E392E00E94EB1A892B4C
:101B900009F086CE80912602813029F587E192E016
:101BA0000E94FB081092250282E08093260267E2E1
:101BB00072E081E392E00E94F30867EA75E087E251
:101BC00092E00E94F3086DE272E087E392E00E94E7
:101BD000060967E576E08DE292E00E9406098AE256
:101BE00090E00E946E068091BC0583FF0DC01091AD
:101BF0002602123049F46BE072E081EB95E00E941E
:101C0000ED0981111093BC0580919805811111C0D7
:101C100080919705882369F065E072E087EB95E095
:101C20000E94ED09882329F081E0809398051092A5
:101C3000970580919605811133CE80919505882373
:101C400009F42ECE65E072E08DEB95E00E94ED097F
:101C5000882309F425CE81E080939605109295059E
:101C60001FCE26E3E216F10408F41ACE863009F0FE
:101C700017CE809135028B3009F0BAC044E050E0B5
:101C80006DEB75E08BE292E00E94EB1A892B09F074
:101C900007CED0904002D2FE15C0E0910302F09131
:101CA0000402309759F08091360230E020E050E095
:101CB00040E063E0829586958770099585E0809382
:101CC0009C05EECD0E94DF038C0180919C05823043
:101CD00009F045C09D2D90718D2D8271823189F55D
:101CE00060E090E080E00E94381388E18093400239
:101CF000E0910102F091020210E000E0309739F02B
:101D00008091340282958695877009958C0183E0D5
:101D100080939C05C80188969093210280932202AB
:101D20000E944D041092430210924402A801445EA6
:101D30005F4F22E06AE182E30E94FA03C801C6967F
:101D400003C181E080939C05911106C0C8010196F2
:101D500064E00E943813A4CD90E080E0F9CF833096
:101D6000A1F501151105A1F1E0910302F091040222
:101D7000309771F180913F0290E024E0959587952E
:101D80002A95E1F7880F991F880F991F8296A7015E
:101D9000485051098417950708F4AC01C801840F15
:101DA000951F9701241B350BE816F90608F09801DA
:101DB0008091360260E0829586958770099569E08A
:101DC000C8010E94381386E07ACF853009F468CDC7
:101DD000D0FE07C0833009F463CD69E0C8010196E5
:101DE000F0CF0115110509F45BCD60E0C801B1CF5A
:101DF000811156CD80913602803509F051CDD090B9
:101E00004002D1FE39C0109221028CE2809322025E
:101E10000E940E0982E18093400260E081E090E040
:101E20000E940D1310923702109238028091200107
:101E30008093390210923A028D5F8093200182E0F4
:101E40008093470284E08093480285E080934902B2
:101E500010924A0290E690933F028093410288E7F5
:101E60008093420222E040E250E06AE182E30E9475
:101E7000FA038AE390E068C0D4FE12CD0E94DF032B
:101E80008C01892B99F000913F0210E084E01595B8
:101E900007958A95E1F7000F111F000F111F0E5DC6
:101EA0001F4FE016F10608F0FDCCFACCD0FEF8CCBE
:101EB00060E090E080E00E943813F4CC99E2E916EB
:101EC000F10409F4EDCC8111EBCC80911F02853433
:101ED00009F0E6CC44E050E067E576E08FE292E07E
:101EE0000E94EB1A892BA9F044E050E06DEA75E0FE
:101EF0008FE292E00E94EB1A892B59F044E050E007
:101F00006BE371E08FE292E00E94EB1A892B09F0FB
:101F1000C7CC80912802813009F0A3CE8091330292
:101F2000883009F0BDCC0E940E09109233028091D6
:101F30003502883F28F0909136029F5F90933602D9
:101F4000885F80933502C7010E946E06A9CC3F923C
:101F50004F925F926F927F928F929F92AF92BF92B9
:101F6000CF92DF92EF92FF920F931F93CF93DF9365
:101F7000CDB7DEB760970FB6F894DEBF0FBECDBF0A
:101F800060E080E00E9442058090D1059090D205EB
:101F900060E080E00E944205C090D305D090D40557
:101FA0001C821B8283E691E09A83898318861E82B5
:101FB000712C612C67E4462E62E0562E10E000E0A2
:101FC00070E4372EE3EDEE2EE5E0FE2E6814790482
:101FD00008F09CC025E4321609F46CC0231554F0B7
:101FE00040E43416C9F084E4381609F453C050E4D0
:101FF000352EECCF98E4391609F465C0E3E53E16BA
:1020000009F448C0F6E43F12F2CF98012F5F3F4F2A
:10201000F8018491890142C096012F5F3F4FF6017C
:102020008491882309F472C0843209F06DC057018D
:10203000F2E0AF0EB11CF70182819381F2E0CF0E86
:10204000D11CF9013490F6E4F31540F025E4321682
:1020500058F444E4341651F07501B8CFE8E43E1664
:1020600079F0F3E53F12F8CF8C01F6CFBE01665F41
:102070007F4F0E94170175018E01065F1F4FA6CF8B
:10208000682FCE0101960E94320975018E010F5F03
:102090001F4F9CCFF80180810F5F1F4F882309F4E9
:1020A000A6CFF2018083FFEF6F1A7F0AC20101966B
:1020B0002C018CCF5801FFEFAF1ABF0AC8010E9454
:1020C00041188501EBCFF801678181E00E9442054C
:1020D000F801378126819085321305C08091500622
:1020E000981708F084CFE92FF0E0EE5EF94F808179
:1020F0009F5FF80190879F3388F2321779F29091B1
:10210000510697831086CACF6901CBCF60E080E08B
:102110000E9442050091D3051091D40521EDE22ED5
:1021200025E0F22E33E6C32E31E0D32E412C512C84
:1021300032014394C8010196F80124912223B9F198
:10214000243299F50E5F1F4FFC018491883449F5C4
:10215000F70164811C821B82DA82C982CE0101965A
:102160000E9432098E818823E1F0E82FF0E093E0AD
:10217000F595E7959A95E1F7E056FA4F982F977005
:10218000B301A20104C0440F551F661F771F9A9523
:10219000D2F79081942B90836FE30E94A7058E83E2
:1021A000E1CF92E0E90EF11CC5CF8C01C3CFF40161
:1021B000E95BFD4F10828BE780933401C401609688
:1021C0000FB6F894DEBF0FBECDBFDF91CF911F9148
:1021D0000F91FF90EF90DF90CF90BF90AF909F90C6
:1021E0008F907F906F905F904F903F9008954F92A7
:1021F0005F926F927F928F929F92AF92BF92CF9297
:10220000DF92EF92FF920F931F93CF93DF93CDB79F
:10221000DEB729970FB6F894DEBF0FBECDBF8E0193
:10222000045E1F4FF801C190D1908F0160E080E003
:102230000E944205C6010E9438189093D2058093EF
:10224000D105D092D405C092D305D80185ED682E72
:1022500085E0782E93E6892E91E0992ECE010196A5
:102260005C01C6010196F6012491222309F460C0A5
:102270002432B9F42D01F2E04F0E511CED90FC9088
:1022800022E0C20ED11CFC0184918634B1F158F4D5
:102290008434B1F010E000E08534A1F110E000E0FA
:1022A0001BC06C01DECF8834B9F18335B9F7F70173
:1022B00001900020E9F731978F010E191F090CC01A
:1022C000B501C7010E941701F50101900020E9F74F
:1022D00031978F010A191B09F301E192F1923F0135
:1022E0008091D1059091D2050297080F191F109384
:1022F000D2050093D105D201B4CFC7010E9438188E
:102300008C01EACFC8018E0D9F1D0E9441188823C1
:1023100019F30F5F1F4FF6CF1C821B829A828982AE
:102320006E2DC5010E943209C5010E94C905E8CF82
:1023300029960FB6F894DEBF0FBECDBFDF91CF91C7
:102340001F910F91FF90EF90DF90CF90BF90AF90D3
:102350009F908F907F906F905F904F9008951F9205
:102360000F920FB60F9211242F933F938F939F9349
:10237000AF93BF938091C9059091CA05A091CB05F9
:10238000B091CC053091C80523E0230F2D3758F5C7
:102390000196A11DB11D2093C8058093C905909396
:1023A000CA05A093CB05B093CC058091CD05909143
:1023B000CE05A091CF05B091D0050196A11DB11D0C
:1023C0008093CD059093CE05A093CF05B093D00513
:1023D000BF91AF919F918F913F912F910F900FBE21
:1023E0000F901F90189526E8230F0296A11DB11D8E
:1023F000D2CF1F920F920FB60F9211242F933F93BB
:102400004F935F936F937F938F939F93AF93BF93FC
:10241000EF93FF938BE596E00E942903FF91EF91E4
:10242000BF91AF919F918F917F916F915F914F91EC
:102430003F912F910F900FBE0F901F9018951F92F4
:102440000F920FB60F9211242F938F939F93EF93B8
:10245000FF93E0916B06F0916C068081E09171062C
:10246000F091720682FD1BC09081809174068F5F8F
:102470008F7320917506821741F0E0917406F0E0A9
:10248000E55AF94F958F80937406FF91EF919F91D4
:102490008F912F910F900FBE0F901F9018958081F4
:1024A000F4CF1F920F920FB60F9211242F933F93E8
:1024B0004F935F936F937F938F939F93AF93BF934C
:1024C000CF93DF93EF93FF938091E401C0911C07BA
:1024D000D0E087FF24C01092850010928400809184
:1024E000E4018F5F8093E4018091E401082E000CE9
:1024F000990B8C179D0724F48091E4018C30C4F172
:102500008091840090918500049680349C4908F461
:102510007AC08091840090918500049676C0809165
:10252000E401082E000C990B8C179D07C4F6E0916E
:10253000E4018E2FEE0F990BFC01EE0FFF1FE80F49
:10254000F91FE850F94F808186FFC9CFE091E4017F
:102550008E2FEE0F990BFC01EE0FFF1FE80FF91FF6
:10256000E850F94F808160E08F730E949901B7CFE6
:102570002091840030918500E091E4018E2FEE0FD0
:10258000990BFC01EE0FFF1FE80FF91FE850F94F00
:1025900081819281820F931F90938900809388009C
:1025A000E091E4018E2FEE0F990BFC01EE0FFF1F5F
:1025B000E80FF91FE850F94F808186FF11C0E091C4
:1025C000E4018E2FEE0F990BFC01EE0FFF1FE80FB9
:1025D000F91FE850F94F808161E08F730E949901E3
:1025E000FF91EF91DF91CF91BF91AF919F918F912B
:1025F0007F916F915F914F913F912F910F900FBEFF
:102600000F901F90189580E49CE990938900809327
:1026100088008FEF8093E401E3CF20913502309161
:1026200033023093350220933302209136023091E9
:1026300034023093360220933402E1E1F2E021A526
:10264000820F911D25A585A7662381F021A7892FDB
:102650009927319722E0ED30F20789F71092430273
:102660001092440280E580933F02089511A6EFCFB7
:10267000262F206120934002643021F0009711F44E
:1026800081E090E061E00E940D131092210288E247
:10269000809322020E940E0984E0809341021092EE
:1026A000420222E04CE150E06AE182E30E94FA0338
:1026B00086E390E00C946E06CF9310925E06109223
:1026C0005D0688EE93E0A0E0B0E080935F06909313
:1026D0006006A0936106B093620685E491E0909352
:1026E0005C0680935B0685EC90E09093680680938F
:1026F000670684EC90E090936A068093690680EC0C
:1027000090E090936C0680936B0681EC90E0909340
:102710006E0680936D0682EC90E090937006809335
:102720006F0686EC90E0909372068093710610928B
:102730007406109275061092760610927706109223
:1027400032071092310787E591E09093300780932C
:102750002F0785E080933307CFEFC093340784E0E1
:102760008093350786E08093360787E080933707AC
:1027700088E08093380789E08093390710923A0700
:1027800010923B0710923C0710923D0710923E07B3
:1027900061E080E10E94F80780911C078C30B0F561
:1027A00091E0980F90931C0780932C0790E0FC0118
:1027B000EE0FFF1FE80FF91FE850F94F88EB9BE081
:1027C000928381831092270710922607109229077F
:1027D0001092280710922B0710922A0750E040E031
:1027E0006DE671E086E297E00E94BA091092200738
:1027F00010921F0783E691E090931E0780931D07B8
:102800001092240710922207CF910895C0932C07AD
:10281000D9CFCF93DF93CDB7DEB7AA970FB6F89491
:10282000DEBF0FBECDBF789484B5826084BD84B511
:10283000816084BD85B5826085BD85B5816085BDBB
:1028400080916E00816080936E0010928100809173
:1028500081008260809381008091810081608093FB
:102860008100809180008160809380008091B10020
:1028700084608093B1008091B00081608093B0004B
:1028800080917A00846080937A0080917A008260DF
:1028900080937A0080917A00816080937A008091A1
:1028A0007A00806880937A001092C10061E082E033
:1028B0000E94E50160E080E00E94E50161E081E0C6
:1028C0000E94E50161E084E00E94E50162E089E1A7
:1028D0000E94F80780912C078C3008F051C061E00D
:1028E00083E00E94E50180912C07282F30E0F90158
:1028F000EE0FFF1FE20FF31FE850F94F9081907C1D
:102900009360908310922D0710922E072CE0622F77
:102910000E94E318829FB001112430E020E0AB0157
:10292000420F531FFA01EE0FFF1FE40FF51FE8508F
:10293000F94F908196FD16C02F5F3F4F2C30310527
:1029400071F781110FC01092800082E080938100A6
:102950001092850010928400B19A80916F0082607D
:1029600080936F00E0912C078E2F90E0FC01EE0F1A
:10297000FF1FE80FF91FE850F94F808180648083C2
:1029800090E080E00E943401E0916B06F0916C06CB
:1029900082E08083E0916706F09168061082E09102
:1029A0006906F0916A068FEC808310927306E091BD
:1029B0006F06F091700686E08083E0916D06F091DD
:1029C0006E06808180618083E0916D06F0916E06D5
:1029D000808188608083E0916D06F0916E06808131
:1029E00080688083E0916D06F0916E0680818F7D16
:1029F00080831092BB0587E390E0C12CD12C760137
:102A0000C3940097C1F0FC01A3E0F595E795AA9562
:102A1000E1F7E056FA4F282F2770B701A60104C04E
:102A2000440F551F661F771F2A95D2F72081242B4C
:102A300020830197E6CF6EE271E087EA95E00E947D
:102A4000F30884E893E090939F0580939E050CB46F
:102A500006FC25C061E08AE00E94E50161E08AE0B1
:102A60000E94990161E08BE00E94E50161E08DE048
:102A70000E94E50160E08CE00E94E50161E08BE0EE
:102A80000E94990160E08BE00E94990160E08DE076
:102A90000E94990180E58CBD8DB581608DBD8AE075
:102AA00080939D0561E00E94E5010E949E044FEF26
:102AB00060E08FEF0E94F70462E070E080E090E059
:102AC0000E943B020E94A5048DE10E94990480E0CF
:102AD0000E9499041EB50E949E04112399F370E090
:102AE00060E088E00E94350570E060E08CE00E94C4
:102AF00035056FEF7BE08AE00E94350560E07CE001
:102B000084E00E9435056FEF71E186E00E94350593
:102B100066E774E084E10E94B70661EB88E30E94F7
:102B200028056FE370E388E20E94350569EF77EFCF
:102B300080E30E94350561E080EC0E94280542E3B5
:102B400062EC80E80E94F70462E17CE086EC0E947F
:102B5000350562E184EC0E9428056CED75E08AEC95
:102B60000E9435056091A70584EE0E9428056091BA
:102B7000A80585EE0E9428056091A90582EE0E94B5
:102B800028056091AA0583EE0E9428056091AB0597
:102B900080EE0E9428056091AC0581EE0E94280518
:102BA00060E071E080E10E94B7068FE10E940C05B1
:102BB00040EC6BE180E80E94F70444E06FE180E8BC
:102BC0000E94F70482E70E94EB051092BB056AE2BF
:102BD00071E087E596E00E9406091092B605109212
:102BE000B50581E08093BC0566E271E081EB95E07C
:102BF0000E940609E7E5F6E023E536E06DEA75E0B8
:102C00004BE556E09191D9018D919D018095892BDD
:102C1000DB018D93BD014E175F07A1F762E271E002
:102C20008DEB95E00E94060960E871E08BE596E087
:102C30000E94B808EDEBEE2EE5E0FE2E10E0FAE083
:102C40008F2E912CA12CB12CF70121917F0130E026
:102C500050E040E019A26E01F1E2CF0ED11CCA0192
:102C6000B901A50194010E94B218605DD6016E936E
:102C70006D01211531054105510589F7109729F09E
:102C8000BD018BE596E00E94B808133029F06EE292
:102C90008BE596E00E944B031F5F1430A9F66BE6AC
:102CA00071E08BE596E00E94B80889E891E00E9407
:102CB000C70800EE10E05DE7E52E50E0F52E62E873
:102CC000C62E60E0D62E7BE7772E0E9403060E9478
:102CD0005F0B0E944809B82E67E971E08DE197E02B
:102CE0000E94B8080E94DA088DE197E00E94C905A9
:102CF0001F92BF929F938F931F930F93FF92EF9218
:102D00001F930F93DF92CF920E94F7100E94C4038B
:102D1000682E0E946D024B015C010FB6F894DEBF75
:102D20000FBECDBF0E946D02681979098A099B09FF
:102D3000683873418105910540F60E9403060E94A0
:102D40005F0B809134016812EDCF70923401809155
:102D5000C1059091C205892B29F38FEC91E00E9467
:102D6000C7088BE3282E8FE1382E90EEE92E90E0F5
:102D7000F92E00C169817A81CE0182960E948E0966
:102D8000CE0101960E945E0913C14EA15FA14115BB
:102D9000510531F06AA17BA186E297E00E948E097D
:102DA0008091C7058823D9F00E946D020091C30568
:102DB0001091C4052091C5053091C605601B710BAB
:102DC000820B930B683873418105910540F0109296
:102DD000C70590E080E00E9434010E94E5098091DF
:102DE0002A0790912B070A9709F0B7C040E061E0ED
:102DF0008FE297E00E94A507C1010197F1F71A82BF
:102E000019821C821B821E821D826091260770918E
:102E100027076115710541F040912A0750912B0752
:102E2000CE0101960E94BA090E9403060E945F0B20
:102E30000E944809182F4D815E8169817A818DE158
:102E400097E00E9479020E94DA088DE197E00E94E3
:102E5000C9051F921F939F938F93FF92EF92DF926A
:102E6000CF92FF92EF92BF92AF920E94F7100E9412
:102E7000C403182F0E946D022B013C010FB6F89479
:102E8000DEBF0FBECDBF0BE70E946D02641975094E
:102E900086099709683E734081059105F8F40E9400
:102EA00003060E945F0B809134011813B6C0009393
:102EB0003401E091C105F091C205309709F4ADC02D
:102EC0008585968599A788A71AA661EA71E0CE0143
:102ED00088960E94011B11E0892B09F010E0CE01B9
:102EE00001960E945E0984EA91E00E94C70869EA9F
:102EF00071E08BE596E00E94B8088EE691E0111132
:102F000002C086E791E00E94C708112309F48CC033
:102F100040912A0750912B0760912607709127074F
:102F20008FE297E00E9479020E94E50961E082E069
:102F30000E9499018AE590E00E94340181E080932B
:102F4000C7050E946D026093C3057093C40580930A
:102F5000C5059093C6050E94E509CE0182960E94A0
:102F60005E098114910491F00E941503882331F0C9
:102F70000E9400004BEDC42E40E0D42E2CEEA22E79
:102F800020E0B22E30E0832E30E0932E0E94030624
:102F90000E945F0B1BA21AA21DA21CA21FA21EA2AE
:102FA00050E040E06DE671E0CE0182960E94BA09E1
:102FB0008BE596E00E940903892B09F4E6CE1A827C
:102FC00019821C821B821E821D8250E040E06DE649
:102FD00071E0CE0101960E94BA090E94C9024D819A
:102FE0005E8197FDC7CE88A719A68A010F5F1F4F84
:102FF000B801CE0101960E946609882371F32981E8
:103000003A818D819E81BE01685D7F4F820F931F43
:103010000E940A1B1E830D83E0CF68EC70E080E005
:1030200090E00E943B0230CF61EC71E08FE297E0CC
:103030000E94B80860E082E00E94990190E080E080
:103040000E94340164EF71E080E090E00E943B0256
:103050001092C70580CF86E297E00C945E09FB01D1
:10306000DC0102C005900D9241505040D8F7089500
:10307000FC0105900020E9F7809590958E0F9F1F29
:103080000895F999FECF92BD81BDF89A992780B530
:103090000895052E97FB1EF400940E94601857FDBA
:1030A00007D00E94B21807FC03D04EF40C946018AD
:1030B00050954095309521953F4F4F4F5F4F089564
:1030C00090958095709561957F4F8F4F9F4F089594
:1030D0000E94D418A59F900DB49F900DA49F800DC1
:1030E000911D11240895B7FF0C9468180E94681868
:1030F000821B930B08952F923F924F925F926F9293
:103100007F928F929F92AF92BF92CF92DF92EF9277
:10311000FF920F931F93CF93DF93CDB7DEB7CA1BF8
:10312000DB0B0FB6F894DEBF0FBECDBF09942A8823
:10313000398848885F846E847D848C849B84AA84CB
:10314000B984C884DF80EE80FD800C811B81AA8158
:10315000B981CE0FD11D0FB6F894DEBF0FBECDBF23
:10316000ED010895A1E21A2EAA1BBB1BFD010DC0A3
:10317000AA1FBB1FEE1FFF1FA217B307E407F50727
:1031800020F0A21BB30BE40BF50B661F771F881F03
:10319000991F1A9469F760957095809590959B0199
:1031A000AC01BD01CF010895A29FB001B39FC00142
:1031B000A39F700D811D1124911DB29F700D811D63
:1031C0001124911D0895991B79E004C0991F961749
:1031D00008F0961B881F7A95C9F780950895AA1B59
:1031E000BB1B51E107C0AA1FBB1FA617B70710F0F2
:1031F000A61BB70B881F991F5A95A9F78095909524
:10320000BC01CD010895EE0FFF1F0590F491E02D54
:1032100009940F931F93CF93DF938230910510F49D
:1032200082E090E0E0914907F0914A0730E020E029
:10323000B0E0A0E0309799F42115310509F44AC0B7
:10324000281B390B24303105D8F58A819B81611503
:10325000710589F1FB0193838283FE0111C04081D6
:1032600051810281138148175907E0F04817590727
:1032700099F4109761F012960C93129713961C9381
:103280003296CF01DF91CF911F910F910895009356
:10329000490710934A07F4CF2115310551F0421721
:1032A000530738F0A901DB019A01BD01DF01F801E4
:1032B000C1CFEF01F9CF90934A0780934907CDCF53
:1032C000FE01E20FF31F819391932250310939835C
:1032D0002883D7CF2091470730914807232B41F40B
:1032E00020913701309138013093480720934707E8
:1032F00020913501309136012115310541F42DB76A
:103300003EB74091390150913A01241B350BE091B1
:103310004707F0914807E217F307A0F42E1B3F0B75
:103320002817390778F0AC014E5F5F4F2417350737
:1033300048F04E0F5F1F5093480740934707819313
:1033400091939FCFF0E0E0E09CCFCF93DF93009785
:10335000E9F0FC01329713821282A0914907B091E3
:103360004A07ED0130E020E01097A1F4208131817F
:10337000820F931F2091470730914807281739077C
:1033800009F061C0F0934807E0934707DF91CF91C0
:103390000895EA01CE17DF07E8F54A815B819E01B7
:1033A00041155105B1F7E901FB83EA834991599130
:1033B000C40FD51FEC17FD0761F48081918102963F
:1033C000840F951FE90199838883828193819B8370
:1033D0008A83F0E0E0E012968D919C91139700971C
:1033E000B9F52D913C911197CD010296820F931F53
:1033F00020914707309148072817390739F6309749
:1034000051F510924A0710924907B0934807A093CC
:103410004707BCCFD383C28340815181840F951F5E
:10342000C817D90761F44E5F5F4F88819981480FB3
:10343000591F518340838A819B8193838283211505
:10344000310509F0B0CFF0934A07E09349079ECFCA
:10345000FD01DC01C0CF13821282D7CFB0E0A0E023
:10346000E4E3FAE10C947D188C01009751F4CB0150
:103470000E9409198C01C801CDB7DEB7E0E10C94B8
:103480009918FC01E60FF71F9C0122503109E21741
:10349000F30708F49DC0D901CD91DC911197C617AF
:1034A000D70798F0C530D10530F3CE0104978617C1
:1034B000970708F3C61BD70B2297C193D1936D933F
:1034C0007C93CF010E94A519D6CF5B01AC1ABD0A2F
:1034D0004C018C0E9D1EA0914907B0914A07512CBA
:1034E000412CF12CE12C109731F5809147079091F8
:1034F00048078815990509F05CC04616570608F07C
:1035000058C08091350190913601009741F48DB7F4
:103510009EB74091390150913A01841B950BE817F1
:10352000F90708F055C0F0934807E0934707F90101
:1035300071836083A0CF8D919C91119712966C90AE
:10354000129713967C901397A815B90559F56C013D
:1035500042E0C40ED11CCA14DB0420F1AC014A19AC
:103560005B09DA011296159780F0628273825183AB
:103570004083D9016D937C93E114F10471F0D7017C
:103580001396FC93EE93129776CF22968C0F9D1F85
:10359000F90191838083F301EFCFF0934A07E09321
:1035A000490769CF4816590608F42C017D01D3015B
:1035B0009ACFCB010E9409197C01009749F0AE0116
:1035C000B8010E94F81AC8010E94A519870153CFBB
:1035D00010E000E050CFFB01DC0104C08D910190B0
:1035E000801921F441505040C8F7881B990B089569
:1035F000FB01DC0102C001900D9241505040D8F710
:103600000895FB01DC018D91019080190110D9F31F
:10361000990B0895FB01DC0101900D920020E1F768
:10362000089510E0CCECD0E004C0FE010E94031924
:0C3630002196CD3CD107C9F7F894FFCFDC
:10363C0041726475696E6F2D454E4332386A36306F
:10364C002D303000000000000000000000000000E1
:10365C000A01C0A80201C0A80201C0A80202756933
:10366C00692D30317B00004B078000FFFFFFFFFF0F
:10367C00FF000000004B037902A60298030903B572
:10368C0002FB0200000000B20879025F075E07002F
:10369C00000000320779025F075E070D0A00436FD6
:1036AC00727265637400496E636F72726563740045
:1036BC005365727665723A2000476174657761795B
:1036CC0020666F756E640048616E647368616B652B
:1036DC00004F4B0020200A200053657175656E6306
:1036EC006520436865636B20526573756C743A2072
:1036FC00004163636573732064656E69656400489B
:10370C00616E647368616B6520636F6D706C65745A
:04371C0065640000E0
:00000001FF
