:020000040000FA
:100000000C94CD000C94F5000C94F5000C94F500C4
:100010000C94F5000C94F5000C94F5000C94F5008C
:100020000C94F5000C94F5000C94F5000C94F3106E
:100030000C94F5000C94F5000C94F5000C94F5006C
:100040000C9451100C94F5000C94C1100C949B105E
:100050000C94F5000C94F5000C94F5000C94F5004C
:100060000C94F5000C94F5006382536300010800C2
:10007000060400014500008200004000207266690D
:100080006400504F535420687474703A2F2F2446E4
:100090002F244620485454502F312E310D0A486FDA
:1000A00073743A2024460D0A436F6E74656E742D86
:1000B0004C656E6774683A2024440D0A436F6E7471
:1000C000656E742D547970653A20746578742F705C
:1000D0006C61696E0D0A0D0A24480072666964003D
:1000E0003139322E3136382E322E3100504F5354A2
:1000F00020687474703A2F2F24462F2446204854C9
:1001000054502F312E310D0A486F73743A20244613
:100110000D0A436F6E74656E742D4C656E6774685E
:100120003A2024440D0A436F6E74656E742D547921
:1001300070653A20746578742F706C61696E0D0A71
:100140000D0A24480000000000240027002A0000B7
:10015000000000250028002B00040404040404040B
:100160000402020202020203030303030301020466
:100170000810204080010204081020010204081029
:100180002000000008000201000003040700000036
:10019000000000000000FE119C1611241FBECFEFCE
:1001A000D8E0DEBFCDBF11E0A0E0B1E0EEE1F3E3C7
:1001B00002C005900D92A03DB107D9F727E0A0ED50
:1001C000B1E001C01D92AF31B207E1F710E0CCEC15
:1001D000D0E004C02197FE010E947417CB3CD107E8
:1001E000C9F70E947D120C9482190C940000CF93E1
:1001F000DF93209143062223C1F0FC0120812223BA
:10020000A1F0C3E4D6E0AFE3B6E09C012C5F3F4F22
:10021000899141919D918427892339F4E217F3074D
:10022000B9F781E0DF91CF91089580E0FBCFCF93C4
:10023000DF93EC01FB018A30910548F06AE070E041
:100240000E946017CB01BF010E941701FC01CE0183
:100250006AE070E00E946017805D80831182CF01A8
:100260000196DF91CF9108958F929F92AF92BF92A6
:10027000FF920F931F93CF93DF93F09018072BE01B
:100280002F1508F44CC020911A0708E512E0021B54
:10029000110927FD1395000F111F000F111F209149
:1002A0001907C8E8D0E0C21BD10927FDD395CC0FB0
:1002B000DD1FCC0FDD1F4E010D2E000CAA08BB0860
:1002C0009801012E000C440B550B281939094A09D5
:1002D0005B09DC010E94E41624EB30E040E050E0D2
:1002E0000E94BA16820E931EA41EB51E8C169D0681
:1002F0002CF0E801801691060CF4E4012297CC0F53
:10030000DD1F2FB7F8948F2D90E0FC01EE0FFF1F3B
:10031000E80FF91FEC51F94FD283C1832FBFDF9152
:10032000CF911F910F91FF90BF90AF909F908F90B2
:10033000089590E0FC01EF57FE4F2491FC01E35932
:10034000FE4F3491FC01E75AFE4FE491EE23C9F0D1
:10035000222339F0233001F1A8F4213019F12230A1
:1003600029F1F0E0EE0FFF1FE15BFE4FA591B49184
:100370008FB7F894EC91611126C030953E233C93E1
:100380008FBF08952730A9F02830C9F0243049F7ED
:10039000809180008F7D03C0809180008F77809353
:1003A0008000DFCF84B58F7784BDDBCF84B58F7DB0
:1003B000FBCF8091B0008F778093B000D2CF809137
:1003C000B0008F7DF9CF3E2BDACFCF93DF9390E053
:1003D000FC01E359FE4F2491875A9E4FFC01849102
:1003E0008823D1F090E0880F991FFC01EB5BFE4F52
:1003F000A591B491FC01E15BFE4FC591D4916111CF
:100400000EC09FB7F8948C91E22FE0958E238C93C9
:100410002881E223E8839FBFDF91CF9108958FB7B2
:10042000F894EC91E22BEC938FBFF6CF3FB7F894A2
:100430008091B9059091BA05A091BB05B091BC051A
:1004400026B5A89B05C02F3F19F00196A11DB11D2F
:100450003FBFBA2FA92F982F8827BC01CD01620F6B
:10046000711D811D911D42E0660F771F881F991F26
:100470004A95D1F708958F929F92AF92BF92CF92F3
:10048000DF92EF92FF924B015C010E9416026B011A
:100490007C010E9416026C197D098E099F09683E35
:1004A000734081059105A8F321E0821A9108A10803
:1004B000B10888EEC80E83E0D81EE11CF11C81143F
:1004C0009104A104B10429F7FF90EF90DF90CF9041
:1004D000BF90AF909F908F9008952FB7F894609140
:1004E000B5057091B6058091B7059091B8052FBFFD
:1004F0000895AF92BF92CF92DF92EF92FF920F9347
:100500001F93CF93DF936C017B018B01040F151FA9
:10051000EB015E01AE18BF08C017D10759F0699111
:10052000D601ED91FC910190F081E02DC601099575
:10053000892B79F7C501DF91CF911F910F91FF9022
:10054000EF90DF90CF90BF90AF900895FC01538D56
:10055000448D252F30E0842F90E0821B930B54179D
:1005600010F0CF96089501970895FC01918D828D2A
:10057000981761F0A28DAE0FBF2FB11D5D968C91C3
:10058000928D9F5F9F73928F90E008958FEF9FEF02
:1005900008950F931F930E946D0260934F0670930E
:1005A0005006809351069093520687E496E00E948D
:1005B000B50297FF1DC00E946D0200914F06109179
:1005C00050062091510630915206601B710B820B30
:1005D000930B00914B0610914C0620914D063091E3
:1005E0004E066017710782079307F8F28FEF9FEFAF
:1005F0001F910F910895FC01918D828D981731F014
:10060000828DE80FF11D858D90E008958FEF9FEFAB
:100610000895FC01918D228D892F90E0805C9F4F81
:10062000821B91098F739927089587E496E00E94B1
:10063000090321E0892B09F420E0822F089580E04E
:1006400090E0892B29F00E94150381110C94000081
:100650000895FC01A48DA80FB92FB11DA35ABF4F57
:100660002C91848D90E001968F739927848FA689B1
:10067000B7892C93A089B1898C91837080648C9305
:10068000938D848D981306C00288F389E02D8081B4
:100690008F7D80830895EF92FF920F931F93CF93E6
:1006A000DF93EC0181E0888F9B8D8C8D98131AC0AD
:1006B000E889F989808185FF15C09FB7F894EE8994
:1006C000FF896083E889F9898081837080648083F1
:1006D0009FBF81E090E0DF91CF911F910F91FF903C
:1006E000EF900895F62E0B8D10E00F5F1F4F0F73E4
:1006F0001127E02E8C8D8E110CC00FB607FCFACF9F
:10070000E889F989808185FFF5CFCE010E94290310
:10071000F1CFEB8DEC0FFD2FF11DE35AFF4FF0826F
:100720009FB7F8940B8FEA89FB8980818062CFCFD5
:10073000CF93DF93EC01888D8823B9F0AA89BB8918
:10074000E889F9898C9185FD03C0808186FD0DC003
:100750000FB607FCF7CF8C9185FFF2CF808185FF24
:10076000EDCFCE010E942903E9CFDF91CF9108950B
:10077000611108C08093340143505E4F5093AE0521
:100780004093AD0581E0089588EB93E09093F001EC
:100790008093EF0189E49EE09093EE018093ED0158
:1007A0001092860580E58093870581E08093880517
:1007B000809185058F5F877080938505089580916E
:1007C0000D0290910E02982789279827449720912F
:1007D0002B0230E044E0359527954A95E1F7220F4A
:1007E000331F220F331F821B930B97FF02C090E031
:1007F00080E008950F931F93CF93DF9370E06350D1
:100800007E4F8A01075F1F4F213029F0223031F4DB
:100810008A010250110930E020E003C000E010E03E
:100820009801EB01FA01E230F10558F0A991B99174
:10083000BA27AB27BA270A0F1B1F211D311D32977C
:10084000F2CFFA01EE7F6E0F7F1F4E175F0769F040
:10085000FB01408150E070E060E0762F652F542F5F
:100860004427040F151F261F371FA9016627772766
:10087000411551056105710519F022273327F1CF84
:1008800000951095E82FF0E0E350FE4F10830183B0
:10089000DF91CF911F910F910895EDEFF1E0108E50
:1008A000118E80E4848B158A868B20E044E150E031
:1008B0006EE088E10C94FA03CF93DF93ECE8F5E067
:1008C00030E020E0822F9191992361F170E060E0A7
:1008D000492F50E0A62FEA01062E02C0D595C795F4
:1008E0000A94E2F7C0FF19C024573A4F41E050E0A4
:1008F00060E070E00A2E04C0440F551F661F771F8A
:100900000A94D2F740954923F9014083880F880F54
:10091000880F8A0FDF91CF9108956F5F7F4F683006
:100920007105C1F62F5F3F4F2730310559F680E042
:10093000F1CF8EBD0DB407FEFDCF089561E080912B
:1009400089050E94990178940895F89460E0809157
:1009500089050C9499010F931F93CF93DF938C011A
:10096000EB010E94A50401151105A1F08AE70E9480
:100970009904FE0181918EBDC00FD11FEC17FD07B8
:1009800031F081910DB407FEFDCF8EBDF7CF0DB4D0
:1009900007FEFDCFDF91CF911F910F910C949E0424
:1009A0000F931F93CF93DF93EC018B010E94A5045B
:1009B0002097B9F08AE30E9499041EBCF801CE0189
:1009C000019739F00DB407FEFDCF2EB51EBC219363
:1009D000F7CF2197C00FD11F0DB407FEFDCF8EB505
:1009E0008883DF91CF911F910F910C949E041F93E8
:1009F000CF93DF93182FC62FD42F0E94A5048C2FDE
:100A00008F71812B0E9499048D2F0E949904DF9190
:100A1000CF911F910C949E04CF93C82FC0768091E4
:100A2000D3018C1799F043E06FE180EA0E94F7044C
:100A3000C093D3014C2F50E085E0559547958A959A
:100A4000E1F76FE180E8CF910C94F704CF9108951E
:100A5000CF93DF93C82FD62F0E940C054D2F6C2FFC
:100A600080E4DF91CF910C94F704CF93DF93C82FEC
:100A7000D72F0E9428056D2F81E08C0FDF91CF9139
:100A80000C942805FF920F931F93CF93DF93082FA9
:100A900010E091E4899FF0011124E350FA4F208186
:100AA000261709F44EC0C62FD82F81113DC080E40F
:100AB000289F90011124B9017E5E213C3D4048F4FD
:100AC00082E00E9435056DEB75E080E490E00E94C5
:100AD000AB0480913E068C1303C08FEF80933E06DB
:100AE00081E4F82EF09EF001F19EF00D1124E35008
:100AF000FA4FC08380E4C89F90011124B9017E5E43
:100B0000213C3D40F0F480E00E943505DF9DB001BE
:100B1000112463547A4F80E490E0DF91CF911F91CC
:100B20000F91FF900C94D0048091FD058613D8CFCF
:100B300081E4EDEBF5E0AEEFB5E001900D928A9522
:100B4000E1F7DF91CF911F910F91FF900895CF931F
:100B5000DF931F92CDB7DEB7198220E4829FC001D8
:100B600011249E5E680F792F711DCB019251811562
:100B70009E4050F480E00E943505BE016F5F7F4FBC
:100B800081E090E00E94D00489810F90DF91CF91A5
:100B90000895CF93DF93FC01C481FFE3CF9FE00171
:100BA0001124FC0186819091FD05891309C0809173
:100BB000FB058C0F9D2F911D0397DF91CF91089519
:100BC00090913E06891303C080913C06F2CF6EE3FC
:100BD0000E94A705EECFCF93C82F0E940C050E945C
:100BE000A5048C2F8F710E94990480E00E949904C3
:100BF000C7FF03C080E00E949904CEB50E949E0406
:100C00008C2FCF9108950F931F93CF93DF9300D034
:100C100000D000D0CDB7DEB78091D601882379F01F
:100C20006091D4017091D5016115710509F053C02F
:100C30006FEF7BE08CE00E9435051092D60189E3CE
:100C40000E94EB0510E000E08823C9F16091D40117
:100C50007091D50180E00E943505BE016F5F7F4F26
:100C600086E090E00E94D00489819A819093D5011A
:100C70008093D4018D819E818C010078112787FF9C
:100C800012C08B819C81049700918A0510918B057D
:100C9000015011098017910708F48C016DEF71E084
:100CA000C8010E94D004F801E350FE4F108281E099
:100CB0008093D60140E46EE180E80E94F704C80109
:100CC00026960FB6F894DEBF0FBECDBFDF91CF9151
:100CD0001F910F91089561507109ACCFCF93DF93AD
:100CE000EC0140E86FE180E80E94F70440E86FE122
:100CF00080EA0E94F7044AE06CE180EA0E94F7046F
:100D000060E07CE082E00E943505BE01745F86E011
:100D10000E94350540E060E08AE70E94F7046DEF2D
:100D200071E0CE010E94AB0448E06FE180E80E94D0
:100D3000F704D0E0C0E08CE10E94EB058A7029F452
:100D40002196C83E83E0D807B1F78CE10E94EB05FD
:100D500081FD03C0C83ED34039F448E06FE180EA2A
:100D6000DF91CF910C94F704DF91CF910895CF9349
:100D7000DF93EB01682F84ED0E942805BE0186ED0C
:100D80000E9435058AEE0E94EB0580FDFBCFDF91C6
:100D9000CF910895CF92DF92EF92FF920F931F931E
:100DA0008634910568F120912002233449F5C090E2
:100DB0002B02D0902C02E0902D02F0902E02009198
:100DC000DC011091DD012091DE013091DF01C016C0
:100DD000D106E206F306A1F4E7E1F3E083509E4F6B
:100DE0009F012E5F3F4F41815081553319F452814D
:100DF000651771F0F901E40FF11DE817F90780F3A9
:100E000080E01F910F91FF90EF90DF90CF900895B9
:100E100081E0F7CFE091D101F091D2019F012F5FE6
:100E20003F4F3093D2012093D10180830895FF92E8
:100E30000F931F93CF93DF93162FF42E052F0E944D
:100E40000A07812F0E940A07CF2DD02F115020F0C2
:100E500089910E940A07FACFDF91CF911F910F91DC
:100E6000FF9008951F93CF93DF93EC01162F6E81AF
:100E700080E00E944205E091FB0581E08E0FF0E0EA
:100E8000E354FA4F10838F3340F48093FB0581E0E5
:100E900090E0DF91CF911F9108950E945C048093B0
:100EA000FC058E83682F80E00E9442051092FC05AD
:100EB0001092FB058C818F5F8C83E9CF089590E0C1
:100EC00080E00895FB0101900020E9F73197AF0120
:100ED000461B570BDC01ED91FC910280F381E02D64
:100EE0000994CF93DF93BC0187E496E00E946207E8
:100EF000EC016FE571E087E496E00E9462078C0FD9
:100F00009D1FDF91CF91089560910E0780E00E94B0
:100F1000420583E0EDE0F7E0ADEBB5E001900D9226
:100F20008A95E1F790913E0680910E07981304C0D0
:100F300060E081E00C9442050895DC0196E0FB013D
:100F400001900D929A95E1F70895BC018DEF91E023
:100F50000E949D0763E975E083E092E00C949D0791
:100F6000DC0194E0FB0101900D929A95E1F7089560
:100F700083E092E00E94A50767E172E08BE192E0D6
:100F80000E94B00763E476E087E192E00E94B00738
:100F90000C944D04CF93DF93EB010E94A507BE0193
:100FA0008BE192E00E94B00763E476E087E192E093
:100FB000DF91CF910C94B007CF93DF93EC016F8357
:100FC00083E0888781E00E944205DE01149683E079
:100FD000EEEFF5E001900D928A95E1F78F81DF91B8
:100FE000CF910895CF930E945C04C82F682F80E0B2
:100FF0000E944205EDEBF5E01082C283C18383E0DD
:1010000086AF17AE6C2F89E097E0CF910C94DC0788
:10101000FC0180819181009711F00C9416180895BD
:101020000F931F93CF93DF93EC01888199810097F1
:1010300059F02A813B812617370730F081E0DF9194
:10104000CF911F910F9108958B016F5F7F4F0E9489
:101050009F18009759F0998388831B830A832C81FA
:101060003D81232B59F7FC011082E8CF80E0E7CFC8
:10107000EF92FF920F931F93CF93DF93611571054A
:1010800041F480E0DF91CF911F910F91FF90EF909D
:10109000089541155105B1F07B01EC010C811D81D2
:1010A000040F151FB8010E941008882351F32881EE
:1010B00039818C819D81B701820F931F0E947B191A
:1010C0001D830C8381E0DECFEF92FF920F931F937D
:1010D000CF93DF93EC017B018A01BA010E941008D3
:1010E00028813981811114C02115310519F0C901F8
:1010F0000E941618198218821D821C821B821A8275
:10110000CE01DF91CF911F910F91FF90EF90089545
:101110001D830C83B701C9010E947B19F1CFCF93C6
:10112000DF93EB0144E050E0BC0189E192E00E94D2
:101130005C19892B49F463E172E0CE010E949D079E
:1011400081E0DF91CF91089580E0FBCF0F931F9353
:10115000CF938C018BE391E00E94A507EDEFF1E0C6
:1011600088E08487C6E0C58748E050E06CE670E020
:101170008BE092E00E94A016EDE1F2E0DF011D920B
:10118000CA95E9F763E975E083E192E00E949D0763
:10119000B80183E292E00E94B00763E476E089E15F
:1011A00092E00E94B0078AE290E0CF911F910F91E8
:1011B0000C946E06EF92FF920F931F93CF93DF93E1
:1011C0008C01EDEFF1E086E191E0DF019C011D92E1
:1011D00021503040E1F78091EC01CBE3D1E0833046
:1011E00011F4C7EDD1E0CE010E94F700BE018823C3
:1011F00009F4ACC081EF91E00E94CA078881807F2A
:10120000803E91F088819981AA81BB818F3F9F4F59
:10121000AF4FBF4F49F044E050E0BE0189E995E08F
:101220000E945C19892B31F46BE371E08DEF91E042
:101230000E949D0788E08093090210920A0249E00B
:1012400050E064E770E08BE092E00E94A0161092FC
:101250000D0281E1809314021092210283E48093B5
:10126000220210921F0284E4809320021092230233
:1012700010922502109226026BE371E08DEF91E04F
:101280000E949D0781E0809327028093280286E0D8
:10129000809329028091DC019091DD01A091DE0113
:1012A000B091DF0180932B0290932C02A0932D022A
:1012B000B0932E02C091EC01C33031F463E476E0C8
:1012C00083E392E00E94B00763E975E083E492E073
:1012D0000E949D0783E193E09093D2018093D10116
:1012E000E8E6F0E084910E940A07E9E6F0E08491E4
:1012F0000E940A07EAE6F0E084910E940A07EBE602
:10130000F0E084910E940A0785E30E940A0781E0C9
:101310000E940A0783E0C11101C081E00E940A0710
:101320008DE30E940A0787E00E940A0781E00E947D
:101330000A0783E9E82E85E0F82EC7E0C15049F09E
:10134000D7018D917D010E940A07F8CF87EF91E0C8
:1013500053CF80910001882371F060E071E0FB01C0
:1013600001900020E9F7BF016150714040E051E079
:101370008CE00E9417070115110559F0A80164E0DF
:1013800082E30E94170747ED51E064E086E30E9484
:10139000170787E30E940A0783E00E940A0781E09B
:1013A0000E940A0783E00E940A0786E00E940A075B
:1013B0008FEF0E940A07C091D101D091D201C7528C
:1013C000D240CE014C9690930D0280930E020E9463
:1013D0004D04CE0108969093230280932402AE011F
:1013E000405F5F4F21E06AE188E20E94FA03CE018C
:1013F0008A96DF91CF911F910F91FF90EF900C94FF
:101400006E068F929F92AF92BF92CF92DF92EF9231
:10141000FF920F931F93CF93DF9300D000D0CDB7EF
:10142000DEB77C018091A705882369F08091EC01EB
:10143000823009F4F1C008F0E9C0882309F474C1CE
:10144000813009F490C1E114F10409F02BC28091BC
:10145000A805857029F18091A1059091A205892B9D
:10146000F9F461E184ED0E94280561E082ED0E94BB
:1014700028058AEE0E94EB0580FDFBCF60E082ED3F
:101480000E94280589ED0E94EB0582FF09C08DE9C5
:1014900095E00E94A6088091A80588608093A80521
:1014A0008091A1059091A20501969093A205809349
:1014B000A10580918805813009F079C08091A80547
:1014C00081FF75C082E080938805809121018F5F44
:1014D00080932101F0908705E090860510918505A5
:1014E000A0E21A9F900111248F71182F122B89EA04
:1014F00095E00E94F70069EA75E0882309F4BFC10E
:1015000081EF91E00E94CA0708E00093090210925F
:101510000A0249E050E064E770E08BE092E00E944C
:10152000A0168CE280930E0286E0809314020E9443
:101530004D04E0922102F09222028BE080931F0280
:1015400010932002E3E2F2E0DF011D920A95E9F731
:1015500080912001809325028D5F8093200180E699
:1015600080932B0282E080932C0293E090932D02D3
:1015700010922E0210922F0210923002109231021D
:10158000109232028093330294E09093340280935D
:10159000350286E28093360222E040E250E06AE1C2
:1015A00082E30E94FA038AE390E00E946E0683EAD7
:1015B00095E00E94F700882379F0809184058111DD
:1015C0000BC080918305811107C083EA95E00E94DA
:1015D000A60881E08093830589EA95E00E94F700E0
:1015E000811150C110E000E0C8010F900F900F90E2
:1015F0000F90DF91CF911F910F91FF90EF90DF90AF
:10160000CF90BF90AF909F908F900895833009F452
:1016100056C0843009F017CF65E0C7010E94CA06A2
:10162000882309F4C9C08091DB01811108C088E3D7
:101630000E94EB05682F6E7F88E30E94280567E310
:1016400072E083E496E00E94B007E7E1F3E0C701AF
:1016500083509E4F6C018F010E5F1F4FB1808081C0
:10166000863009F4FBC008F0BEC0813009F4ECC03C
:10167000833009F4EFC0F801EB0DF11DEC15FD0509
:1016800050F30E946D026093E4017093E501809332
:10169000E6019093E70180919D05882361F0109207
:1016A000A2051092A10581E08093A8056DE975E07F
:1016B000CB010E94B00783E08093EC01C4CE809000
:1016C000E8019090E901A090EA01B090EB012FEFC2
:1016D00082169206A206B20609F4B5CE0E946D02E9
:1016E0000091E4011091E5012091E6013091E701BC
:1016F000601B710B820B930B681579058A059B059E
:1017000008F4A1CE83E496E00E94DA0884E0809396
:10171000EC010E946D026093E0017093E1018093FF
:10172000E2019093E3018FCE0E946D026093DC0191
:101730007093DD018093DE019093DF01E3E4F6E036
:1017400084E0DF011D928A95E9F790E080E00E9435
:10175000DA0888E30E94EB05682F616088E30E9445
:10176000280581E0D4CF62E0C7010E94CA06882321
:1017700019F167E372E0CE0101960E94B007E7E13C
:10178000F3E0C70183509E4FBF016E5F7F4F218101
:101790003081363351F487ED91E00E94B007CE01DD
:1017A00001960E94DA0882E0B2CFFB01E20FF11D40
:1017B000E817F90748F3F3CF0E946D020091E001AA
:1017C0001091E1012091E2013091E301601B710B66
:1017D000820B930B613177428105910508F433CE7A
:1017E0001092EC0130CE8A3331F08F3F09F449CFAB
:1017F000833309F040CF1092E8011092E901109272
:10180000EA011092EB01F801C801049620E030E0F3
:10181000A9016191542F432F322F2227260F311D0A
:10182000411D511D8E179F07A1F72F3F9FEF3907CD
:1018300049075907B9F42093E8013093E90140932F
:10184000EA015093EB0117CFB8018FE396E00E94B5
:10185000B00711CFB8018DE995E0F9CFB80183EA5F
:1018600095E0F5CFA8EEB3E00E94D9166093E801A9
:101870007093E9018093EA019093EB01FCCE87EF2E
:1018800091E040CE809182058111ACCE809181059E
:101890008111A8CE89EA95E00E94A60881E0809394
:1018A0008105A0CEB9E2EB16F10408F49BCE80913D
:1018B0000902883009F096CE80910A02863009F03C
:1018C0009FC144E050E063E476E083E292E00E944E
:1018D0005C19892B09F086CE80911202813029F59E
:1018E00083E092E00E94A5071092110282E08093AB
:1018F000120263E172E08DE192E00E949D0763E9CC
:1019000075E083E192E00E949D0769E172E083E265
:1019100092E00E94B00763E476E089E192E00E94E1
:10192000B0078AE290E00E946E068091A80583FFCE
:101930000DC010911202123049F467EF71E08DE989
:1019400095E00E948F0881111093A805809184056D
:10195000811111C080918305882369F061EF71E0E6
:1019600083EA95E00E948F08882329F081E0809324
:1019700084051092830580918205811133CE809178
:101980008105882309F42ECE61EF71E089EA95E0A4
:101990000E948F08882309F425CE81E08093820578
:1019A000109281051FCE26E3E216F10408F41ACE48
:1019B000863009F017CE809121028B3009F0BAC031
:1019C00044E050E069EA75E087E192E00E945C192A
:1019D000892B09F007CED0902C02D2FE15C0E091E1
:1019E000EF01F091F001309759F08091220230E040
:1019F00020E050E040E063E082958695877009958D
:101A000085E080938805EECD0E94DF038C018091F4
:101A10008805823009F045C09D2D90718D2D827111
:101A2000823189F560E090E080E00E94DA1188E17F
:101A300080932C02E091ED01F091EE0110E000E0C6
:101A4000309739F0809120028295869587700995AC
:101A50008C0183E080938805C801889690930D02DD
:101A600080930E020E944D0410922F0210923002B9
:101A7000A801445E5F4F22E06AE182E30E94FA031C
:101A8000C801C69603C181E080938805911106C004
:101A9000C801019664E00E94DA11A4CD90E080E0D4
:101AA000F9CF8330A1F501151105A1F1E091EF0106
:101AB000F091F001309771F180912B0290E024E0D9
:101AC000959587952A95E1F7880F991F880F991F9B
:101AD0008296A701485051098417950708F4AC0174
:101AE000C801840F951F9701241B350BE816F906D2
:101AF00008F098018091220260E0829586958770B7
:101B0000099569E0C8010E94DA1186E07ACF853034
:101B100009F468CDD0FE07C0833009F463CD69E0D5
:101B2000C8010196F0CF0115110509F45BCD60E005
:101B3000C801B1CF811156CD80912202803509F0C4
:101B400051CDD0902C02D1FE39C010920D028CE202
:101B500080930E020E94B80782E180932C0260E01D
:101B600081E090E00E94AF111092230210922402B3
:101B70008091200180932502109226028D5F809330
:101B8000200182E08093330284E08093340285E078
:101B9000809335021092360290E690932B02809348
:101BA0002D0288E780932E0222E040E250E06AE1B5
:101BB00082E30E94FA038AE390E068C0D4FE12CD6B
:101BC0000E94DF038C01892B99F000912B0210E019
:101BD00084E0159507958A95E1F7000F111F000F16
:101BE000111F0E5D1F4FE016F10608F0FDCCFACC78
:101BF000D0FEF8CC60E090E080E00E94DA11F4CCF6
:101C000099E2E916F10409F4EDCC8111EBCC809155
:101C10000B02853409F0E6CC44E050E063E476E062
:101C20008BE192E00E945C19892BA9F044E050E01E
:101C300069E975E08BE192E00E945C19892B59F00B
:101C400044E050E06BE371E08BE192E00E945C19AC
:101C5000892B09F0C7CC80911402813009F0A3CE02
:101C600080911F02883009F0BDCC0E94B807109205
:101C70001F0280912102883F28F0909122029F5FED
:101C800090932202885F80932102C7010E946E0612
:101C9000A9CC3F924F925F926F927F928F929F92C8
:101CA000AF92BF92CF92DF92EF92FF920F931F936A
:101CB000CF93DF93CDB7DEB760970FB6F894DEBF52
:101CC0000FBECDBF60E080E00E9442058090BD0560
:101CD0009090BE0560E080E00E944205C090BF0584
:101CE000D090C0051C821B8287E591E09A8389838E
:101CF00018861E82712C612C63E3462E62E0562EFC
:101D000010E000E070E4372EEFEBEE2EE5E0FE2E63
:101D10006814790408F09CC025E4321609F46CC0FC
:101D2000231554F040E43416C9F084E4381609F45D
:101D300053C050E4352EECCF98E4391609F465C051
:101D4000E3E53E1609F448C0F6E43F12F2CF9801ED
:101D50002F5F3F4FF8018491890142C096012F5FA8
:101D60003F4FF6018491882309F472C0843209F050
:101D70006DC05701F2E0AF0EB11CF7018281938173
:101D8000F2E0CF0ED11CF9013490F6E4F31540F0E7
:101D900025E4321658F444E4341651F07501B8CFF6
:101DA000E8E43E1679F0F3E53F12F8CF8C01F6CF68
:101DB000BE01665F7F4F0E94170175018E01065FAD
:101DC0001F4FA6CF682FCE0101960E94DC07750138
:101DD0008E010F5F1F4F9CCFF80180810F5F1F4F57
:101DE000882309F4A6CFF2018083FFEF6F1A7F0AE0
:101DF000C20101962C018CCF5801FFEFAF1ABF0A28
:101E0000C8010E94B2168501EBCFF801678181E01D
:101E10000E944205F801378126819085321305C062
:101E200080913C06981708F084CFE92FF0E0E2504B
:101E3000FA4F80819F5FF80190879F3388F23217B5
:101E400079F290913D0697831086CACF6901CBCF76
:101E500060E080E00E9442050091BF051091C0053E
:101E60002DEBE22E25E0F22E37E5C32E31E0D32E06
:101E7000412C512C32014394C8010196F801249160
:101E80002223B9F1243299F50E5F1F4FFC01849192
:101E9000883449F5F70164811C821B82DA82C98289
:101EA000CE0101960E94DC078E818823E1F0E82FA5
:101EB000F0E093E0F595E7959A95E1F7E457FA4F4E
:101EC000982F9770B301A20104C0440F551F661FDD
:101ED000771F9A95D2F79081942B90836FE30E949D
:101EE000A7058E83E1CF92E0E90EF11CC5CF8C01EE
:101EF000C3CFF401ED5CFD4F10828BE7809334017A
:101F0000C40160960FB6F894DEBF0FBECDBFDF915F
:101F1000CF911F910F91FF90EF90DF90CF90BF90E6
:101F2000AF909F908F907F906F905F904F903F9079
:101F300008954F925F926F927F928F929F92AF928D
:101F4000BF92CF92DF92EF92FF920F931F93CF93A6
:101F5000DF93CDB7DEB729970FB6F894DEBF0FBE7B
:101F6000CDBF8E01045E1F4FF801C190D1908F014B
:101F700060E080E00E944205C6010E94A91690938D
:101F8000BE058093BD05D092C005C092BF05D801A3
:101F900081EC682E85E0782E97E5892E91E0992EC8
:101FA000CE0101965C01C6010196F601249122231F
:101FB00009F460C02432B9F42D01F2E04F0E511C37
:101FC000ED90FC9022E0C20ED11CFC01849186347D
:101FD000B1F158F48434B1F010E000E08534A1F19F
:101FE00010E000E01BC06C01DECF8834B9F183350E
:101FF000B9F7F70101900020E9F731978F010E1929
:102000001F090CC0B501C7010E941701F50101901D
:102010000020E9F731978F010A191B09F301E192BA
:10202000F1923F018091BD059091BE050297080F86
:10203000191F1093BE050093BD05D201B4CFC7018F
:102040000E94A9168C01EACFC8018E0D9F1D0E9427
:10205000B216882319F30F5F1F4FF6CF1C821B8225
:102060009A8289826E2DC5010E94DC07C5010E94FB
:10207000C905E8CF29960FB6F894DEBF0FBECDBFD5
:10208000DF91CF911F910F91FF90EF90DF90CF9054
:10209000BF90AF909F908F907F906F905F904F9088
:1020A00008951F920F920FB60F9211242F933F9312
:1020B0008F939F93AF93BF938091B5059091B60591
:1020C000A091B705B091B8053091B40523E0230F76
:1020D0002D3758F50196A11DB11D2093B4058093AD
:1020E000B5059093B605A093B705B093B805809158
:1020F000B9059091BA05A091BB05B091BC050196B8
:10210000A11DB11D8093B9059093BA05A093BB059D
:10211000B093BC05BF91AF919F918F913F912F914B
:102120000F900FBE0F901F90189526E8230F029670
:10213000A11DB11DD2CF1F920F920FB60F92112485
:102140002F933F934F935F936F937F938F939F93BF
:10215000AF93BF93EF93FF9387E496E00E94290328
:10216000FF91EF91BF91AF919F918F917F916F916F
:102170005F914F913F912F910F900FBE0F901F9045
:1021800018951F920F920FB60F9211242F938F93D1
:102190009F93EF93FF93E0915706F091580680814B
:1021A000E0915D06F0915E0682FD1BC090818091FA
:1021B00060068F5F8F7320916106821741F0E09176
:1021C0006006F0E0E95BF94F958F80936006FF9120
:1021D000EF919F918F912F910F900FBE0F901F90B5
:1021E00018958081F4CF1F920F920FB60F92112491
:1021F0002F933F934F935F936F937F938F939F930F
:10220000AF93BF93CF93DF93EF93FF938091D00170
:10221000C0910807D0E087FF24C01092850010927B
:1022200084008091D0018F5F8093D0018091D00194
:10223000082E000C990B8C179D0724F48091D00177
:102240008C30C4F180918400909185000496803494
:102250009C4908F47AC0809184009091850004968E
:1022600076C08091D001082E000C990B8C179D0729
:10227000C4F6E091D0018E2FEE0F990BFC01EE0F0A
:10228000FF1FE80FF91FEC51F94F808186FFC9CF7E
:10229000E091D0018E2FEE0F990BFC01EE0FFF1F86
:1022A000E80FF91FEC51F94F808160E08F730E94B5
:1022B0009901B7CF2091840030918500E091D00141
:1022C0008E2FEE0F990BFC01EE0FFF1FE80FF91F89
:1022D000EC51F94F81819281820F931F9093890075
:1022E00080938800E091D0018E2FEE0F990BFC01B6
:1022F000EE0FFF1FE80FF91FEC51F94F808186FFA9
:1023000011C0E091D0018E2FEE0F990BFC01EE0F62
:10231000FF1FE80FF91FEC51F94F808161E08F73C7
:102320000E949901FF91EF91DF91CF91BF91AF9101
:102330009F918F917F916F915F914F913F912F91DD
:102340000F900FBE0F901F90189580E49CE990931A
:102350008900809388008FEF8093D001E3CF209194
:10236000210230911F023093210220931F022091FD
:102370002202309120023093220220932002EDEFBE
:10238000F1E021A5820F911D25A585A7662381F087
:1023900021A7892F9927319721E0E93FF20789F793
:1023A00010922F021092300280E580932B02089544
:1023B00011A6EFCF262F206120932C02643021F04C
:1023C000009711F481E090E061E00E94AF1110925B
:1023D0000D0288E280930E020E94B80784E0809389
:1023E0002D0210922E0222E04CE150E06AE182E3DD
:1023F0000E94FA0386E390E00C946E0610924A065F
:102400001092490688EE93E0A0E0B0E080934B067E
:1024100090934C06A0934D06B0934E0685E491E050
:10242000909348068093470685EC90E0909354067D
:102430008093530684EC90E0909356068093550663
:1024400080EC90E0909358068093570681EC90E0E2
:1024500090935A068093590682EC90E090935C0624
:1024600080935B0686EC90E090935E0680935D0619
:102470001092600610926106109262061092630636
:10248000809108078C30A8F591E0980F9093080789
:102490008093180790E0FC01EE0FFF1FE80FF91F73
:1024A000EC51F94F88EB9BE09283818310921307E4
:1024B0001092120710921507109214071092170726
:1024C0001092160750E040E061E671E082E197E08B
:1024D0000E94640810920C0710920B0787E591E0A8
:1024E00090930A07809309071092100710920E0725
:1024F00008958FEF80931807D9CFCF93DF93CDB78F
:10250000DEB7AA970FB6F894DEBF0FBECDBF7894A2
:1025100084B5826084BD84B5816084BD85B58260E8
:1025200085BD85B5816085BD80916E008160809399
:102530006E00109281008091810082608093810002
:102540008091810081608093810080918000816012
:10255000809380008091B10084608093B10080916D
:10256000B00081608093B00080917A008460809395
:102570007A0080917A00826080937A0080917A005C
:10258000816080937A0080917A00806880937A00DD
:102590001092C10061E082E00E94E50161E083E009
:1025A0000E94E50160E080E00E94E50161E081E0D9
:1025B0000E94E501809118078C3008F051C061E05D
:1025C00084E00E94E50180911807282F30E0F9018E
:1025D000EE0FFF1FE20FF31FEC51F94F9081907C3B
:1025E000946090831092190710921A072CE0622FC2
:1025F0000E945417829FB001112430E020E0AB010B
:10260000420F531FFA01EE0FFF1FE40FF51FEC51AD
:10261000F94F908196FD16C02F5F3F4F2C3031054A
:1026200071F781110FC01092800082E080938100C9
:102630001092850010928400B19A80916F008260A0
:1026400080936F00E09118078E2F90E0FC01EE0F51
:10265000FF1FE80FF91FEC51F94F808180648083E0
:1026600090E080E00E943401E0915706F091580616
:1026700082E08083E0915306F09154061082E0914D
:102680005506F09156068FEC808310925F06E0911C
:102690005B06F0915C0686E08083E0915906F0913C
:1026A0005A06808180618083E0915906F0915A0634
:1026B000808188608083E0915906F0915A0680817C
:1026C00080688083E0915906F0915A0680818F7D61
:1026D00080831092A70587E390E0C12CD12C76016E
:1026E000C3940097C1F0FC0163E0F595E7956A9506
:1026F000E1F7E457FA4F282F2770B701A60104C06D
:10270000440F551F661F771F2A95D2F72081242B6F
:1027100020830197E6CF6EE271E083E995E00E94A5
:102720009D0784E893E090938B0580938A050CB411
:1027300006FC25C061E08AE00E94E50161E08AE0D4
:102740000E94990161E08BE00E94E50161E08DE06B
:102750000E94E50160E08CE00E94E50161E08BE011
:102760000E94990160E08BE00E94990160E08DE099
:102770000E94990180E58CBD8DB581608DBD8AE098
:102780008093890561E00E94E5010E949E044FEF5D
:1027900060E08FEF0E94F70462E070E080E090E07C
:1027A0000E943B020E94A5048DE10E94990480E0F2
:1027B0000E9499041EB50E949E04112399F370E0B3
:1027C00060E088E00E94350570E060E08CE00E94E7
:1027D00035056FEF7BE08AE00E94350560E07CE024
:1027E00084E00E9435056FEF71E186E00E943505B7
:1027F00066E774E084E10E94B70661EB88E30E941B
:1028000028056FE370E388E20E94350569EF77EFF2
:1028100080E30E94350561E080EC0E94280542E3D8
:1028200062EC80E80E94F70462E17CE086EC0E94A2
:10283000350562E184EC0E9428056CED75E08AECB8
:102840000E9435056091930584EE0E9428056091F1
:10285000940585EE0E9428056091950582EE0E9400
:1028600028056091960583EE0E94280560919705E2
:1028700080EE0E9428056091980581EE0E9428054F
:1028800060E071E080E10E94B7068FE10E940C05D4
:1028900040EC6BE180E80E94F70444E06FE180E8DF
:1028A0000E94F70482E70E94EB051092A7056AE2F6
:1028B00071E083E496E00E94B0071092A2051092A6
:1028C000A10581E08093A80566E271E08DE995E0BD
:1028D0000E94B007E3E4F6E02FE336E069E975E033
:1028E00047E456E09191D9018D919D018095892B06
:1028F000DB018D93BD014E175F07A1F762E271E026
:1029000089EA95E00E94B00764E771E087E496E009
:102910000E94620749EAE42E45E0F42E10E05AE0F6
:10292000452E512C612C712CF70121917F0130E053
:1029300050E040E019A26E01F1E2CF0ED11CCA01B5
:10294000B901A30192010E942317605DD6016E9325
:102950006D01211531054105510589F7109729F0C1
:10296000BD0187E496E00E946207133029F06EE211
:1029700087E496E00E944B031F5F1430A9F66FE5D1
:1029800071E087E496E00E9462078DE791E00E9483
:1029900071070E9403060E94010A0E94F207182F85
:1029A0006BE871E089E097E00E9462070E9484076B
:1029B00089E097E00E94C9051F921F939F938F9310
:1029C00080EE90E09F938F932DE730E03F932F931D
:1029D0009F938F9382E890E09F938F930E94990F2B
:1029E0000E94C403182F0E946D026B017C010FB678
:1029F000F894DEBF0FBECDBF0BE70E946D026C19CD
:102A00007D098E099F096838734181059105C8F4D5
:102A10000E9403060E94010A809134012091AD05B5
:102A20003091AE05181719F080933401E6CF2115C7
:102A3000310519F400933401E0CF1B3799F38BE78C
:102A4000F1CF85E991E00E94710720EEE22E20E0AF
:102A5000F22E3BEDC32E30E0D32E9CEEA92E90E05B
:102A6000B92E8BE7982E0E9403060E94010A1BA232
:102A70001AA21DA21CA21FA21EA250E040E061E605
:102A800071E0CE0182960E94640887E496E00E947D
:102A90000903892BC9F11A8219821C821B821E82AA
:102AA0001D8250E040E061E671E0CE0101960E9497
:102AB00064080E94C9024D815E8197FD1AC088A7F3
:102AC00019A68A010F5F1F4FB801CE0101960E941F
:102AD0001008882371F329813A818D819E81BE017E
:102AE000685D7F4F820F931F0E947B191E830D83A9
:102AF000E0CF69817A81CE0182960E943808CE01AA
:102B000001960E940808C1CF4EA15FA14115510551
:102B100031F06AA17BA182E197E00E9438088091A0
:102B2000B305882329F10E946D020091AF05109131
:102B3000B0052091B1053091B205601B710B820B7D
:102B4000930B683873418105910590F01092B3059D
:102B500090E080E00E94340160E082E00E949901F0
:102B600050E040E061E671E082E197E00E94640895
:102B700080911607909117070A9709F0ACC01A8246
:102B800019821C821B821E821D8260911207709125
:102B900013076115710531F04AE050E0CE0101964E
:102BA0000E9464080E9403060E94010A0E94F20724
:102BB000182F69EA71E089E097E00E9462074D8171
:102BC0005E8169817A8189E097E00E9479020E94A2
:102BD000840789E097E00E94C9051F921F939F9385
:102BE0008F93FF92EF92DF92CF92FF92EF92BF927C
:102BF000AF920E94990F0E94C403182F0E946D0289
:102C00002B013C010FB6F894DEBF0FBECDBF0E9472
:102C10006D026419750986099709683E734081053C
:102C20009105F8F40E9403060E94010A8091340184
:102C3000181362C090923401E091AD05F091AE0599
:102C4000309709F459C08585968599A788A71AA653
:102C50006FEA71E0CE0188960E94721911E0892B0B
:102C600009F010E0CE0101960E94080882EB91E085
:102C70000E94710767EB71E087E496E00E946207AB
:102C800082E691E0111102C08AE691E00E9471078C
:102C90001123C9F161E082E00E94990160E083E0C4
:102CA0000E9499018AE590E00E94340181E08093BE
:102CB000B3050E946D026093AF057093B0058093D9
:102CC000B1059093B20550E040E061E671E082E129
:102CD00097E00E946408CE0182960E94080880E076
:102CE00090E0892B09F4BFCE0E941503882309F4D4
:102CF000B8CE0E940000B1CE68EC70E080E090E0B9
:102D00000E943B0284CF60E082E00E94990161E072
:102D100083E00E94990190E080E00E94340164EF1A
:102D200071E080E090E00E943B0260E083E00E945E
:102D300099011092B305C7CF82E197E00C9408087F
:102D4000FB01DC0102C005900D9241505040D8F7C4
:102D50000895FC0105900020E9F7809590958E0F6D
:102D60009F1F0895F999FECF92BD81BDF89A9927CA
:102D700080B50895052E97FB1EF400940E94D1168D
:102D800057FD07D00E94231707FC03D04EF40C9484
:102D9000D11650954095309521953F4F4F4F5F4F3D
:102DA000089590958095709561957F4F8F4F9F4FB7
:102DB00008950E944517A59F900DB49F900DA49F64
:102DC000800D911D11240895B7FF0C94D9160E940F
:102DD000D916821B930B08952F923F924F925F92C8
:102DE0006F927F928F929F92AF92BF92CF92DF921B
:102DF000EF92FF920F931F93CF93DF93CDB7DEB780
:102E0000CA1BDB0B0FB6F894DEBF0FBECDBF099413
:102E10002A88398848885F846E847D848C849B846A
:102E2000AA84B984C884DF80EE80FD800C811B8178
:102E3000AA81B981CE0FD11D0FB6F894DEBF0FBEA7
:102E4000CDBFED010895A1E21A2EAA1BBB1BFD0107
:102E50000DC0AA1FBB1FEE1FFF1FA217B307E40779
:102E6000F50720F0A21BB30BE40BF50B661F771FD1
:102E7000881F991F1A9469F76095709580959095B1
:102E80009B01AC01BD01CF010895A29FB001B39F8A
:102E9000C001A39F700D811D1124911DB29F700D63
:102EA000811D1124911D0895991B79E004C0991F7B
:102EB000961708F0961B881F7A95C9F78095089594
:102EC000AA1BBB1B51E107C0AA1FBB1FA617B70750
:102ED00010F0A61BB70B881F991F5A95A9F780956C
:102EE0009095BC01CD010895EE0FFF1F0590F49160
:102EF000E02D09940F931F93CF93DF9382309105B8
:102F000010F482E090E0E0911D07F0911E0730E0A0
:102F100020E0B0E0A0E0309799F42115310509F4E4
:102F20004AC0281B390B24303105D8F58A819B8192
:102F30006115710589F1FB0193838283FE0111C044
:102F4000408151810281138148175907E0F04817E9
:102F5000590799F4109761F012960C9312971396F3
:102F60001C933296CF01DF91CF911F910F9108955D
:102F700000931D0710931E07F4CF2115310551F062
:102F80004217530738F0A901DB019A01BD01DF01A7
:102F9000F801C1CFEF01F9CF90931E0780931D0771
:102FA000CDCFFE01E20FF31F81939193225031099F
:102FB00039832883D7CF20911B0730911C07232BFF
:102FC00041F4209137013091380130931C07209350
:102FD0001B0720913501309136012115310541F44F
:102FE0002DB73EB74091390150913A01241B350B62
:102FF000E0911B07F0911C07E217F307A0F42E1BCA
:103000003F0B2817390778F0AC014E5F5F4F24174C
:10301000350748F04E0F5F1F50931C0740931B0766
:10302000819391939FCFF0E0E0E09CCFCF93DF932B
:103030000097E9F0FC01329713821282A0911D07DC
:10304000B0911E07ED0130E020E01097A1F420813F
:103050003181820F931F20911B0730911C07281785
:10306000390709F061C0F0931C07E0931B07DF915B
:10307000CF910895EA01CE17DF07E8F54A815B8119
:103080009E0141155105B1F7E901FB83EA8349919E
:103090005991C40FD51FEC17FD0761F48081918110
:1030A0000296840F951FE901998388838281938119
:1030B0009B838A83F0E0E0E012968D919C911397B8
:1030C0000097B9F52D913C911197CD010296820F91
:1030D000931F20911B0730911C072817390739F6D9
:1030E000309751F510921E0710921D07B0931C07E0
:1030F000A0931B07BCCFD383C28340815181840F2F
:10310000951FC817D90761F44E5F5F4F8881998179
:10311000480F591F518340838A819B819383828307
:103120002115310509F0B0CFF0931E07E0931D077C
:103130009ECFFD01DC01C0CF13821282D7CFB0E059
:10314000A0E0E5EAF8E10C94EE168C01009751F44A
:10315000CB010E947A178C01C801CDB7DEB7E0E140
:103160000C940A17FC01E60FF71F9C01225031094D
:10317000E217F30708F49DC0D901CD91DC911197B6
:10318000C617D70798F0C530D10530F3CE010497A4
:103190008617970708F3C61BD70B2297C193D193C5
:1031A0006D937C93CF010E941618D6CF5B01AC1AA9
:1031B000BD0A4C018C0E9D1EA0911D07B0911E07EB
:1031C000512C412CF12CE12C109731F580911B07EB
:1031D00090911C078815990509F05CC046165706A2
:1031E00008F058C08091350190913601009741F464
:1031F0008DB79EB74091390150913A01841B950BD0
:10320000E817F90708F055C0F0931C07E0931B0777
:10321000F90171836083A0CF8D919C9111971296D3
:103220006C90129713967C901397A815B90559F5D1
:103230006C0142E0C40ED11CCA14DB0420F1AC01C5
:103240004A195B09DA011296159780F0628273823F
:1032500051834083D9016D937C93E114F10471F0A3
:10326000D7011396FC93EE93129776CF22968C0F8C
:103270009D1FF90191838083F301EFCFF0931E0727
:10328000E0931D0769CF4816590608F42C017D010B
:10329000D3019ACFCB010E947A177C01009749F0A5
:1032A000AE01B8010E946919C8010E941618870171
:1032B00053CF10E000E050CFFB01DC0104C08D9142
:1032C0000190801921F441505040C8F7881B990B98
:1032D0000895FB01DC0102C001900D924150504065
:1032E000D8F70895FB01DC018D9101908019011040
:1032F000D9F3990B0895FB01DC0101900D92002098
:10330000E1F7089510E0CCECD0E004C0FE010E948B
:1033100074172196CD3CD107C9F7F894FFCF4172BD
:103320006475696E6F2D454E4332386A36302D30E4
:1033300030000000000000000000000000000A0152
:10334000C0A80201C0A80201C0A802027569692DC7
:1033500030317B00001F078000FFFFFFFFFFFF00F1
:103360000000004B037902A60298030903B502FB93
:103370000200000000320779025F075E070D0A00B5
:10338000436F727265637400496E636F7272656336
:1033900074005365727665723A20004761746577F0
:1033A000617920666F756E640048616E6473686150
:1033B0006B650048616E647368616B6520636F6D57
:1033C000706C6574656400726669643D004F4B0003
:1033D00020200A200053657175656E63652043687F
:0E33E00065636B20526573756C743A200000B3
:107E0000112484B714BE81FFF0D085E080938100F7
:107E100082E08093C00088E18093C10086E0809377
:107E2000C20080E18093C4008EE0C9D0259A86E02C
:107E300020E33CEF91E0309385002093840096BBD3
:107E4000B09BFECF1D9AA8958150A9F7CC24DD24C4
:107E500088248394B5E0AB2EA1E19A2EF3E0BF2EE7
:107E6000A2D0813461F49FD0082FAFD0023811F036
:107E7000013811F484E001C083E08DD089C08234E0
:107E800011F484E103C0853419F485E0A6D080C0E4
:107E9000853579F488D0E82EFF2485D0082F10E0AE
:107EA000102F00270E291F29000F111F8ED06801E7
:107EB0006FC0863521F484E090D080E0DECF843638
:107EC00009F040C070D06FD0082F6DD080E0C81688
:107ED00080E7D80618F4F601B7BEE895C0E0D1E017
:107EE00062D089930C17E1F7F0E0CF16F0E7DF06D8
:107EF00018F0F601B7BEE89568D007B600FCFDCFD4
:107F0000A601A0E0B1E02C9130E011968C91119780
:107F100090E0982F8827822B932B1296FA010C0160
:107F200087BEE89511244E5F5F4FF1E0A038BF0790
:107F300051F7F601A7BEE89507B600FCFDCF97BE46
:107F4000E89526C08437B1F42ED02DD0F82E2BD052
:107F50003CD0F601EF2C8F010F5F1F4F84911BD097
:107F6000EA94F801C1F70894C11CD11CFA94CF0C13
:107F7000D11C0EC0853739F428D08EE10CD085E9AC
:107F80000AD08FE07ACF813511F488E018D01DD067
:107F900080E101D065CF982F8091C00085FFFCCF94
:107FA0009093C60008958091C00087FFFCCF809118
:107FB000C00084FD01C0A8958091C6000895E0E648
:107FC000F0E098E1908380830895EDDF803219F02E
:107FD00088E0F5DFFFCF84E1DECF1F93182FE3DFCA
:107FE0001150E9F7F2DF1F91089580E0E8DFEE27F6
:047FF000FF270994CA
:027FFE00040479
:00000001FF
