:020000040000FA
:100000000C94CD000C94F5000C94F5000C94F500C4
:100010000C94F5000C94F5000C94F5000C94F5008C
:100020000C94F5000C94F5000C94F5000C943F1121
:100030000C94F5000C94F5000C94F5000C94F5006C
:100040000C949D100C94F5000C940D110C94E71079
:100050000C94F5000C94F5000C94F5000C94F5004C
:100060000C94F5000C94F5006382536300010800C2
:10007000060400014500008200004000207266690D
:100080006400504F535420687474703A2F2F2446E4
:100090002F244620485454502F312E310D0A486FDA
:1000A00073743A2024460D0A436F6E74656E742D86
:1000B0004C656E6774683A2024440D0A436F6E7471
:1000C000656E742D547970653A20746578742F705C
:1000D0006C61696E0D0A0D0A24480072666964003D
:1000E0003139322E3136382E322E3100504F5354A2
:1000F00020687474703A2F2F24462F2446204854C9
:1001000054502F312E310D0A486F73743A20244613
:100110000D0A436F6E74656E742D4C656E6774685E
:100120003A2024440D0A436F6E74656E742D547921
:1001300070653A20746578742F706C61696E0D0A71
:100140000D0A24480000000000240027002A0000B7
:10015000000000250028002B00040404040404040B
:100160000402020202020203030303030301020466
:100170000810204080010204081020010204081029
:100180002000000008000201000003040700000036
:100190000000000000004A12CD1611241FBECFEF50
:1001A000D8E0DEBFCDBF11E0A0E0B1E0EEE6F3E3C2
:1001B00002C005900D92A83DB107D9F727E0A8ED40
:1001C000B1E001C01D92A732B207E1F710E0CCEC1C
:1001D000D0E004C02197FE010E94A517CB3CD107B7
:1001E000C9F70E94C9120C94AA190C940000CF936D
:1001F000DF9320914B062223C1F0FC0120812223B2
:10020000A1F0CBE4D6E0A7E4B6E09C012C5F3F4F21
:10021000899141919D918427892339F4E217F3074D
:10022000B9F781E0DF91CF91089580E0FBCFCF93C4
:10023000DF93EC01FB018A30910548F06AE070E041
:100240000E949117CB01BF010E941701FC01CE0152
:100250006AE070E00E949117805D80831182CF0177
:100260000196DF91CF9108958F929F92AF92BF92A6
:10027000FF920F931F93CF93DF93F09020072BE013
:100280002F1508F44CC02091220708E512E0021B4C
:10029000110927FD1395000F111F000F111F209149
:1002A0002107C8E8D0E0C21BD10927FDD395CC0FA8
:1002B000DD1FCC0FDD1F4E010D2E000CAA08BB0860
:1002C0009801012E000C440B550B281939094A09D5
:1002D0005B09DC010E94151724EB30E040E050E0A0
:1002E0000E94EB16820E931EA41EB51E8C169D0650
:1002F0002CF0E801801691060CF4E4012297CC0F53
:10030000DD1F2FB7F8948F2D90E0FC01EE0FFF1F3B
:10031000E80FF91FE451F94FD283C1832FBFDF915A
:10032000CF911F910F91FF90BF90AF909F908F90B2
:10033000089590E0FC01EF57FE4F2491FC01E35932
:10034000FE4F3491FC01E75AFE4FE491EE23C9F0D1
:10035000222339F0233001F1A8F4213019F12230A1
:1003600029F1F0E0EE0FFF1FE15BFE4FA591B49184
:100370008FB7F894EC91611126C030953E233C93E1
:100380008FBF08952730A9F02830C9F0243049F7ED
:10039000809180008F7D03C0809180008F77809353
:1003A0008000DFCF84B58F7784BDDBCF84B58F7DB0
:1003B000FBCF8091B0008F778093B000D2CF809137
:1003C000B0008F7DF9CF3E2BDACFCF93DF9390E053
:1003D000FC01E359FE4F2491875A9E4FFC01849102
:1003E0008823D1F090E0880F991FFC01EB5BFE4F52
:1003F000A591B491FC01E15BFE4FC591D4916111CF
:100400000EC09FB7F8948C91E22FE0958E238C93C9
:100410002881E223E8839FBFDF91CF9108958FB7B2
:10042000F894EC91E22BEC938FBFF6CF3FB7F894A2
:100430008091C1059091C205A091C305B091C405FA
:1004400026B5A89B05C02F3F19F00196A11DB11D2F
:100450003FBFBA2FA92F982F8827BC01CD01620F6B
:10046000711D811D911D42E0660F771F881F991F26
:100470004A95D1F708958F929F92AF92BF92CF92F3
:10048000DF92EF92FF924B015C010E9416026B011A
:100490007C010E9416026C197D098E099F09683E35
:1004A000734081059105A8F321E0821A9108A10803
:1004B000B10888EEC80E83E0D81EE11CF11C81143F
:1004C0009104A104B10429F7FF90EF90DF90CF9041
:1004D000BF90AF909F908F9008952FB7F894609140
:1004E000BD057091BE058091BF059091C0052FBFDD
:1004F0000895AF92BF92CF92DF92EF92FF920F9347
:100500001F93CF93DF936C017B018B01040F151FA9
:10051000EB015E01AE18BF08C017D10759F0699111
:10052000D601ED91FC910190F081E02DC601099575
:10053000892B79F7C501DF91CF911F910F91FF9022
:10054000EF90DF90CF90BF90AF900895FC01538D56
:10055000448D252F30E0842F90E0821B930B54179D
:1005600010F0CF96089501970895FC01918D828D2A
:10057000981761F0A28DAE0FBF2FB11D5D968C91C3
:10058000928D9F5F9F73928F90E008958FEF9FEF02
:1005900008950F931F930E946D0260935706709306
:1005A00058068093590690935A068FE496E00E946D
:1005B000B50297FF1DC00E946D0200915706109171
:1005C00058062091590630915A06601B710B820B18
:1005D000930B0091530610915406209155063091CB
:1005E00056066017710782079307F8F28FEF9FEFA7
:1005F0001F910F910895FC01918D828D981731F014
:10060000828DE80FF11D858D90E008958FEF9FEFAB
:100610000895FC01918D228D892F90E0805C9F4F81
:10062000821B91098F73992708958FE496E00E94A9
:10063000090321E0892B09F420E0822F089580E04E
:1006400090E0892B29F00E94150381110C94000081
:100650000895FC01A48DA80FB92FB11DA35ABF4F57
:100660002C91848D90E001968F739927848FA689B1
:10067000B7892C93A089B1898C91837080648C9305
:10068000938D848D981306C00288F389E02D8081B4
:100690008F7D80830895EF92FF920F931F93CF93E6
:1006A000DF93EC0181E0888F9B8D8C8D98131AC0AD
:1006B000E889F989808185FF15C09FB7F894EE8994
:1006C000FF896083E889F9898081837080648083F1
:1006D0009FBF81E090E0DF91CF911F910F91FF903C
:1006E000EF900895F62E0B8D10E00F5F1F4F0F73E4
:1006F0001127E02E8C8D8E110CC00FB607FCFACF9F
:10070000E889F989808185FFF5CFCE010E94290310
:10071000F1CFEB8DEC0FFD2FF11DE35AFF4FF0826F
:100720009FB7F8940B8FEA89FB8980818062CFCFD5
:10073000CF93DF93EC01888D8823B9F0AA89BB8918
:10074000E889F9898C9185FD03C0808186FD0DC003
:100750000FB607FCF7CF8C9185FFF2CF808185FF24
:10076000EDCFCE010E942903E9CFDF91CF9108950B
:10077000611108C0809334014B5F5D4F5093B60503
:100780004093B50581E0089588EB93E09093F801DC
:100790008093F70185E99EE09093F6018093F5013F
:1007A00010928E0580E580938F0581E080939005FF
:1007B00080918D058F5F877080938D05089580915E
:1007C000150290911602982789279827449720911F
:1007D000330230E044E0359527954A95E1F7220F42
:1007E000331F220F331F821B930B97FF02C090E031
:1007F00080E008950F931F93CF93DF9370E06B5FBA
:100800007D4F8A01075F1F4F213029F0223031F4DC
:100810008A010250110930E020E003C000E010E03E
:100820009801EB01FA01E230F10558F0A991B99174
:10083000BA27AB27BA270A0F1B1F211D311D32977C
:10084000F2CFFA01EE7F6E0F7F1F4E175F0769F040
:10085000FB01408150E070E060E0762F652F542F5F
:100860004427040F151F261F371FA9016627772766
:10087000411551056105710519F022273327F1CF84
:1008800000951095E82FF0E0EB5FFD4F108301839A
:10089000DF91CF911F910F910895E5E0F2E0108E66
:1008A000118E80E4848B158A868B20E044E150E031
:1008B0006EE088E10C94FA03CF93DF93E4E9F5E06E
:1008C00030E020E0822F9191992361F170E060E0A7
:1008D000492F50E0A62FEA01062E02C0D595C795F4
:1008E0000A94E2F7C0FF19C02C563A4F41E050E09D
:1008F00060E070E00A2E04C0440F551F661F771F8A
:100900000A94D2F740954923F9014083880F880F54
:10091000880F8A0FDF91CF9108956F5F7F4F683006
:100920007105C1F62F5F3F4F2730310559F680E042
:10093000F1CF8EBD0DB407FEFDCF089561E080912B
:1009400091050E94990178940895F89460E080914F
:1009500091050C9499010F931F93CF93DF938C0112
:10096000EB010E94A50401151105A1F08AE70E9480
:100970009904FE0181918EBDC00FD11FEC17FD07B8
:1009800031F081910DB407FEFDCF8EBDF7CF0DB4D0
:1009900007FEFDCFDF91CF911F910F910C949E0424
:1009A0000F931F93CF93DF93EC018B010E94A5045B
:1009B0002097B9F08AE30E9499041EBCF801CE0189
:1009C000019739F00DB407FEFDCF2EB51EBC219363
:1009D000F7CF2197C00FD11F0DB407FEFDCF8EB505
:1009E0008883DF91CF911F910F910C949E041F93E8
:1009F000CF93DF93182FC62FD42F0E94A5048C2FDE
:100A00008F71812B0E9499048D2F0E949904DF9190
:100A1000CF911F910C949E04CF93C82FC0768091E4
:100A2000DB018C1799F043E06FE180EA0E94F70444
:100A3000C093DB014C2F50E085E0559547958A9592
:100A4000E1F76FE180E8CF910C94F704CF9108951E
:100A5000CF93DF93C82FD62F0E940C054D2F6C2FFC
:100A600080E4DF91CF910C94F704CF93DF93C82FEC
:100A7000D72F0E9428056D2F81E08C0FDF91CF9139
:100A80000C942805FF920F931F93CF93DF93082FA9
:100A900010E091E4899FF0011124EB5FF94F208170
:100AA000261709F44EC0C62FD82F81113DC080E40F
:100AB000289F90011124B9017E5E213C3D4048F4FD
:100AC00082E00E94350565EC75E080E490E00E94CC
:100AD000AB04809146068C1303C08FEF80934606CB
:100AE00081E4F82EF09EF001F19EF00D1124EB5FF1
:100AF000F94FC08380E4C89F90011124B9017E5E44
:100B0000213C3D40F0F480E00E943505DF9DB001BE
:100B100011246B537A4F80E490E0DF91CF911F91C5
:100B20000F91FF900C94D004809105068613D8CFC6
:100B300081E4E5ECF5E0A6E0B6E001900D928A953F
:100B4000E1F7DF91CF911F910F91FF900895CF931F
:100B5000DF931F92CDB7DEB7198220E4829FC001D8
:100B600011249E5E680F792F711DCB019251811562
:100B70009E4050F480E00E943505BE016F5F7F4FBC
:100B800081E090E00E94D00489810F90DF91CF91A5
:100B90000895CF93DF93FC01C481FFE3CF9FE00171
:100BA0001124FC01868190910506891309C080916A
:100BB00003068C0F9D2F911D0397DF91CF91089510
:100BC00090914606891303C080914406F2CF6EE3EC
:100BD0000E94A705EECFCF93C82F0E940C050E945C
:100BE000A5048C2F8F710E94990480E00E949904C3
:100BF000C7FF03C080E00E949904CEB50E949E0406
:100C00008C2FCF9108950F931F93CF93DF9300D034
:100C100000D000D0CDB7DEB78091DE01882379F017
:100C20006091DC017091DD016115710509F053C01F
:100C30006FEF7BE08CE00E9435051092DE0189E3C6
:100C40000E94EB0510E000E08823C9F16091DC010F
:100C50007091DD0180E00E943505BE016F5F7F4F1E
:100C600086E090E00E94D00489819A819093DD0112
:100C70008093DC018D819E818C010078112787FF94
:100C800012C08B819C81049700919205109193056D
:100C9000015011098017910708F48C0165E072E09A
:100CA000C8010E94D004F801EB5FFD4F108281E083
:100CB0008093DE0140E46EE180E80E94F704C80101
:100CC00026960FB6F894DEBF0FBECDBFDF91CF9151
:100CD0001F910F91089561507109ACCFCF93DF93AD
:100CE000EC0140E86FE180E80E94F70440E86FE122
:100CF00080EA0E94F7044AE06CE180EA0E94F7046F
:100D000060E07CE082E00E943505BE01745F86E011
:100D10000E94350540E060E08AE70E94F70465E044
:100D200072E0CE010E94AB0448E06FE180E80E94CF
:100D3000F704D0E0C0E08CE10E94EB058A7029F452
:100D40002196C83E83E0D807B1F78CE10E94EB05FD
:100D500081FD03C0C83ED34039F448E06FE180EA2A
:100D6000DF91CF910C94F704DF91CF910895CF9349
:100D7000DF93EB01682F84ED0E942805BE0186ED0C
:100D80000E9435058AEE0E94EB0580FDFBCFDF91C6
:100D9000CF910895CF92DF92EF92FF920F931F931E
:100DA0008634910568F120912802233449F5C090DA
:100DB0003302D0903402E0903502F0903602009178
:100DC000E4011091E5012091E6013091E701C016A0
:100DD000D106E206F306A1F4EFE1F3E08B5F9D4F4D
:100DE0009F012E5F3F4F41815081553319F452814D
:100DF000651771F0F901E40FF11DE817F90780F3A9
:100E000080E01F910F91FF90EF90DF90CF900895B9
:100E100081E0F7CFE091D901F091DA019F012F5FD6
:100E20003F4F3093DA012093D90180830895FF92D8
:100E30000F931F93CF93DF93162FF42E052F0E944D
:100E40000A07812F0E940A07CF2DD02F115020F0C2
:100E500089910E940A07FACFDF91CF911F910F91DC
:100E6000FF9008951F93CF93DF93EC01162F6E81AF
:100E700080E00E944205E091030681E08E0FF0E0E1
:100E8000EB53FA4F10838F3340F48093030681E0D5
:100E900090E0DF91CF911F9108950E945C048093B0
:100EA00004068E83682F80E00E944205109204069B
:100EB000109203068C818F5F8C83E9CF089590E0B8
:100EC00080E00895FB0101900020E9F73197AF0120
:100ED000461B570BDC01ED91FC910280F381E02D64
:100EE00009948F929F92AF92BF92EF92FF920F93CD
:100EF0001F93CF93DF93CDB7DEB7A1970FB6F894CA
:100F0000DEBF0FBECDBF7C01FA01CB0119A222309A
:100F100008F42AE08E010F5D1F4F822E912CB12C18
:100F2000A12CBF01A50194010E945417F901CA0127
:100F30006A300CF5605DD8016E938D01232B242B54
:100F4000252B79F790E080E0109721F0BD01C701D3
:100F50000E946207A1960FB6F894DEBF0FBECDBF08
:100F6000DF91CF911F910F91FF90EF90BF90AF90C5
:100F70009F908F900895695CDECFCF93DF93BC0183
:100F80008FE496E00E946207EC016FE571E08FE468
:100F900096E00E9462078C0F9D1FDF91CF9108950C
:100FA0006091160780E00E94420583E0E5E1F7E0EA
:100FB000A5ECB5E001900D928A95E1F79091460677
:100FC00080911607981304C060E081E00C944205FC
:100FD0000895DC0196E0FB0101900D929A95E1F7EE
:100FE0000895BC0185E092E00E94E9076BE975E095
:100FF0008BE092E00C94E907DC0194E0FB010190A6
:101000000D929A95E1F708958BE092E00E94F10726
:101010006FE172E083E292E00E94FC076BE476E00D
:101020008FE192E00E94FC070C944D04CF93DF9374
:10103000EB010E94F107BE0183E292E00E94FC07EF
:101040006BE476E08FE192E0DF91CF910C94FC07A6
:10105000CF93DF93EC016F8383E0888781E00E9468
:101060004205DE01149683E0E6E0F6E001900D9281
:101070008A95E1F78F81DF91CF910895CF930E94F8
:101080005C04C82F682F80E00E944205E5ECF5E083
:101090001082C283C18383E086AF17AE6C2F81E1DB
:1010A00097E0CF910C942808FC01808191810097F2
:1010B00011F00C94471808950F931F93CF93DF936B
:1010C000EC0188819981009759F02A813B8126178C
:1010D000370730F081E0DF91CF911F910F91089594
:1010E0008B016F5F7F4F0E94D018009759F0998352
:1010F00088831B830A832C813D81232B59F7FC01B4
:101100001082E8CF80E0E7CFEF92FF920F931F931A
:10111000CF93DF936115710541F480E0DF91CF91AA
:101120001F910F91FF90EF90089541155105B1F077
:101130007B01EC010C811D81040F151FB8010E9479
:101140005C08882351F3288139818C819D81B70106
:10115000820F931F0E94A3191D830C8381E0DECFB1
:10116000EF92FF920F931F93CF93DF93EC017B01DC
:101170008A01BA010E945C0828813981811114C05A
:101180002115310519F0C9010E94471819821882EA
:101190001D821C821B821A82CE01DF91CF911F918A
:1011A0000F91FF90EF9008951D830C83B701C90143
:1011B0000E94A319F1CFCF93DF93EB0144E050E0FD
:1011C000BC0181E292E00E948D19892B49F46BE108
:1011D00072E0CE010E94E90781E0DF91CF9108958E
:1011E00080E0FBCF0F931F93CF938C018BE391E0B3
:1011F0000E94F107E5E0F2E088E08487C6E0C58759
:1012000048E050E06CE670E083E192E00E94D11685
:10121000E5E2F2E0DF011D92CA95E9F76BE975E0BE
:101220008BE192E00E94E907B8018BE292E00E9414
:10123000FC076BE476E081E292E00E94FC078AE220
:1012400090E0CF911F910F910C946E06EF92FF9258
:101250000F931F93CF93DF938C01E5E0F2E086E1DB
:1012600091E0DF019C011D9221503040E1F7809117
:10127000F401CBE3D1E0833011F4CFEDD1E0CE0126
:101280000E94F700BE01882309F4ACC089EF91E009
:101290000E9416088881807F803E91F08881998124
:1012A000AA81BB818F3F9F4FAF4FBF4F49F044E0B2
:1012B00050E0BE0181EA95E00E948D19892B31F43E
:1012C0006BE371E085E092E00E94E90788E080939B
:1012D00011021092120249E050E064E770E083E1ED
:1012E00092E00E94D1161092150281E180931C02B7
:1012F0001092290283E480932A021092270284E448
:101300008093280210922B0210922D0210922E022E
:101310006BE371E085E092E00E94E90781E0809351
:101320002F028093300286E0809331028091E401A5
:101330009091E501A091E601B091E701809333021D
:1013400090933402A0933502B0933602C091F40119
:10135000C33031F46BE476E08BE392E00E94FC074B
:101360006BE975E08BE492E00E94E9078BE193E082
:101370009093DA018093D901E8E6F0E084910E942D
:101380000A07E9E6F0E084910E940A07EAE6F0E045
:1013900084910E940A07EBE6F0E084910E940A071C
:1013A00085E30E940A0781E00E940A0783E0C111D9
:1013B00001C081E00E940A078DE30E940A0787E0CE
:1013C0000E940A0781E00E940A078BE9E82E85E067
:1013D000F82EC7E0C15049F0D7018D917D010E94E0
:1013E0000A07F8CF8FEF91E053CF80910001882357
:1013F00071F060E071E0FB0101900020E9F7BF01AE
:101400006150714040E051E08CE00E9417070115E7
:10141000110559F0A80164E082E30E9417074FED1F
:1014200051E064E086E30E94170787E30E940A0701
:1014300083E00E940A0781E00E940A0783E00E947D
:101440000A0786E00E940A078FEF0E940A07C091F0
:10145000D901D091DA01CF52D240CE014C9690936F
:101460001502809316020E944D04CE0108969093B7
:101470002B0280932C02AE01405F5F4F21E06AE1B6
:1014800088E20E94FA03CE018A96DF91CF911F91E4
:101490000F91FF90EF900C946E068F929F92AF92F7
:1014A000BF92CF92DF92EF92FF920F931F93CF9351
:1014B000DF9300D000D0CDB7DEB77C018091AF05BF
:1014C000882369F08091F401823009F4F1C008F0BA
:1014D000E9C0882309F474C1813009F490C1E11492
:1014E000F10409F02BC28091B005857029F180913B
:1014F000A9059091AA05892BF9F461E184ED0E9478
:10150000280561E082ED0E9428058AEE0E94EB0525
:1015100080FDFBCF60E082ED0E94280589ED0E94EE
:10152000EB0582FF09C085EA95E00E94F2088091F0
:10153000B00588608093B0058091A9059091AA05B7
:1015400001969093AA058093A9058091900581301A
:1015500009F079C08091B00581FF75C082E0809369
:101560009005809121018F5F80932101F0908F057C
:10157000E0908E0510918D05A0E21A9F9001112434
:101580008F71182F122B81EB95E00E94F70061EB11
:1015900075E0882309F4BFC189EF91E00E94160825
:1015A00008E0009311021092120249E050E064E753
:1015B00070E083E192E00E94D1168CE280931602E3
:1015C00086E080931C020E944D04E0922902F09272
:1015D0002A028BE08093270210932802EBE2F2E0CC
:1015E000DF011D920A95E9F78091200180932D0279
:1015F0008D5F8093200180E68093330282E08093A8
:10160000340293E090933502109236021092370222
:10161000109238021092390210923A0280933B02E3
:1016200094E090933C0280933D0286E280933E02D8
:1016300022E040E250E06AE182E30E94FA038AE39A
:1016400090E00E946E068BEA95E00E94F7008823E6
:1016500079F080918C0581110BC080918B058111EF
:1016600007C08BEA95E00E94F20881E080938B0529
:1016700081EB95E00E94F700811150C110E000E07D
:10168000C8010F900F900F900F90DF91CF911F9195
:101690000F91FF90EF90DF90CF90BF90AF909F9011
:1016A0008F900895833009F456C0843009F017CF25
:1016B00065E0C7010E94CA06882309F4C9C0809169
:1016C000E301811108C088E30E94EB05682F6E7F5B
:1016D00088E30E9428056FE372E08BE496E00E94A5
:1016E000FC07EFE1F3E0C7018B5F9D4F6C018F01B9
:1016F0000E5F1F4FB1808081863009F4FBC008F077
:10170000BEC0813009F4ECC0833009F4EFC0F801A9
:10171000EB0DF11DEC15FD0550F30E946D02609379
:10172000EC017093ED018093EE019093EF018091B5
:10173000A505882361F01092AA051092A90581E001
:101740008093B00565EA75E0CB010E94FC0783E059
:101750008093F401C4CE8090F0019090F101A090AC
:10176000F201B090F3012FEF82169206A206B206A4
:1017700009F4B5CE0E946D020091EC011091ED01CB
:101780002091EE013091EF01601B710B820B930BE6
:10179000681579058A059B0508F4A1CE8BE496E0CF
:1017A0000E94260984E08093F4010E946D026093F8
:1017B000E8017093E9018093EA019093EB018FCEE9
:1017C0000E946D026093E4017093E5018093E6014D
:1017D0009093E701EBE4F6E084E0DF011D928A9547
:1017E000E9F790E080E00E94260988E30E94EB057B
:1017F000682F616088E30E94280581E0D4CF62E011
:10180000C7010E94CA06882319F16FE372E0CE0176
:1018100001960E94FC07EFE1F3E0C7018B5F9D4F4B
:10182000BF016E5F7F4F21813081363351F48FEDE0
:1018300091E00E94FC07CE0101960E94260982E0F9
:10184000B2CFFB01E20FF11DE817F90748F3F3CF20
:101850000E946D020091E8011091E9012091EA01D6
:101860003091EB01601B710B820B930B613177425E
:101870008105910508F433CE1092F40130CE8A33FD
:1018800031F08F3F09F449CF833309F040CF1092F4
:10189000F0011092F1011092F2011092F301F8019F
:1018A000C801049620E030E0A9016191542F432F34
:1018B000322F2227260F311D411D511D8E179F07E4
:1018C000A1F72F3F9FEF390749075907B9F4209334
:1018D000F0013093F1014093F2015093F30117CFDF
:1018E000B80187E496E00E94FC0711CFB80185EAB1
:1018F00095E0F9CFB8018BEA95E0F5CFA8EEB3E01B
:101900000E940A176093F0017093F1018093F20135
:101910009093F301FCCE8FEF91E040CE80918A0549
:101920008111ACCE809189058111A8CE81EB95E023
:101930000E94F20881E080938905A0CEB9E2EB16FF
:10194000F10408F49BCE80911102883009F096CE04
:1019500080911202863009F09FC144E050E06BE4B0
:1019600076E08BE292E00E948D19892B09F086CEF9
:1019700080911A02813029F58BE092E00E94F107F4
:101980001092190282E080931A026BE172E085E204
:1019900092E00E94E9076BE975E08BE192E00E941A
:1019A000E90761E272E08BE292E00E94FC076BE4DF
:1019B00076E081E292E00E94FC078AE290E00E94D9
:1019C0006E068091B00583FF0DC010911A0212308F
:1019D00049F46FEF71E085EA95E00E94DB08811120
:1019E0001093B00580918C05811111C080918B05F9
:1019F000882369F069EF71E08BEA95E00E94DB08CB
:101A0000882329F081E080938C0510928B058091CA
:101A10008A05811133CE80918905882309F42ECE61
:101A200069EF71E081EB95E00E94DB08882309F4FF
:101A300025CE81E080938A05109289051FCE26E38A
:101A4000E216F10408F41ACE863009F017CE809120
:101A500029028B3009F0BAC044E050E061EB75E038
:101A60008FE192E00E948D19892B09F007CED0906A
:101A70003402D2FE15C0E091F701F091F8013097E1
:101A800059F080912A0230E020E050E040E063E02D
:101A9000829586958770099585E080939005EECDB7
:101AA0000E94DF038C0180919005823009F045C0CF
:101AB0009D2D90718D2D8271823189F560E090E0CD
:101AC00080E00E94261288E180933402E091F501C3
:101AD000F091F60110E000E0309739F08091280293
:101AE00082958695877009958C0183E08093900597
:101AF000C801889690931502809316020E944D04A7
:101B00001092370210923802A801445E5F4F22E023
:101B10006AE182E30E94FA03C801C69603C181E02C
:101B200080939005911106C0C801019664E00E945F
:101B30002612A4CD90E080E0F9CF8330A1F5011505
:101B40001105A1F1E091F701F091F801309771F1E1
:101B50008091330290E024E0959587952A95E1F7EE
:101B6000880F991F880F991F8296A7014850510925
:101B70008417950708F4AC01C801840F951F9701DD
:101B8000241B350BE816F90608F0980180912A020B
:101B900060E0829586958770099569E0C8010E948A
:101BA000261286E07ACF853009F468CDD0FE07C0D2
:101BB000833009F463CD69E0C8010196F0CF0115C7
:101BC000110509F45BCD60E0C801B1CF811156CD9C
:101BD00080912A02803509F051CDD0903402D1FE97
:101BE00039C0109215028CE2809316020E940408FC
:101BF00082E18093340260E081E090E00E94FB117A
:101C000010922B0210922C028091200180932D02C1
:101C100010922E028D5F8093200182E080933B0220
:101C200084E080933C0285E080933D0210923E0266
:101C300090E6909333028093350288E780933602D2
:101C400022E040E250E06AE182E30E94FA038AE384
:101C500090E068C0D4FE12CD0E94DF038C01892B76
:101C600099F00091330210E084E0159507958A956C
:101C7000E1F7000F111F000F111F0E5D1F4FE0163F
:101C8000F10608F0FDCCFACCD0FEF8CC60E090E094
:101C900080E00E942612F4CC99E2E916F10409F4DE
:101CA000EDCC8111EBCC80911302853409F0E6CCA8
:101CB00044E050E06BE476E083E292E00E948D190C
:101CC000892BA9F044E050E061EA75E083E292E0FC
:101CD0000E948D19892B59F044E050E06BE371E0CC
:101CE00083E292E00E948D19892B09F0C7CC809184
:101CF0001C02813009F0A3CE80912702883009F0C0
:101D0000BDCC0E9404081092270280912902883FCE
:101D100028F090912A029F5F90932A02885F809317
:101D20002902C7010E946E06A9CC3F924F925F9292
:101D30006F927F928F929F92AF92BF92CF92DF92DB
:101D4000EF92FF920F931F93CF93DF93CDB7DEB740
:101D500060970FB6F894DEBF0FBECDBF60E080E0A5
:101D60000E9442058090C5059090C60560E080E025
:101D70000E944205C090C705D090C8051C821B82F6
:101D800087E591E09A83898318861E82712C612CE5
:101D90006BE3462E62E0562E10E000E070E4372E32
:101DA000E7ECEE2EE5E0FE2E6814790408F09CC006
:101DB00025E4321609F46CC0231554F040E43416BF
:101DC000C9F084E4381609F453C050E4352EECCF42
:101DD00098E4391609F465C0E3E53E1609F448C0F5
:101DE000F6E43F12F2CF98012F5F3F4FF801849144
:101DF000890142C096012F5F3F4FF60184918823ED
:101E000009F472C0843209F06DC05701F2E0AF0EE0
:101E1000B11CF70182819381F2E0CF0ED11CF90150
:101E20003490F6E4F31540F025E4321658F444E417
:101E3000341651F07501B8CFE8E43E1679F0F3E5B9
:101E40003F12F8CF8C01F6CFBE01665F7F4F0E9434
:101E5000170175018E01065F1F4FA6CF682FCE01B7
:101E600001960E94280875018E010F5F1F4F9CCFBD
:101E7000F80180810F5F1F4F882309F4A6CFF2017C
:101E80008083FFEF6F1A7F0AC20101962C018CCF6D
:101E90005801FFEFAF1ABF0AC8010E94E31685017F
:101EA000EBCFF801678181E00E944205F80137819C
:101EB00026819085321305C080914406981708F05A
:101EC00084CFE92FF0E0EA5FF94F80819F5FF8014E
:101ED00090879F3388F2321779F290914506978365
:101EE0001086CACF6901CBCF60E080E00E94420536
:101EF0000091C7051091C80525ECE22E25E0F22ED1
:101F000037E5C32E31E0D32E412C512C32014394BE
:101F1000C8010196F80124912223B9F1243299F5E0
:101F20000E5F1F4FFC018491883449F5F7016481ED
:101F30001C821B82DA82C982CE0101960E94280887
:101F40008E818823E1F0E82FF0E093E0F595E795A6
:101F50009A95E1F7EC56FA4F982F9770B301A201CA
:101F600004C0440F551F661F771F9A95D2F79081C2
:101F7000942B90836FE30E94A7058E83E1CF92E0BC
:101F8000E90EF11CC5CF8C01C3CFF401E55CFD4F18
:101F900010828BE780933401C40160960FB6F894E9
:101FA000DEBF0FBECDBFDF91CF911F910F91FF908C
:101FB000EF90DF90CF90BF90AF909F908F907F90E9
:101FC0006F905F904F903F9008954F925F926F9205
:101FD0007F928F929F92AF92BF92CF92DF92EF92B9
:101FE000FF920F931F93CF93DF93CDB7DEB729975F
:101FF0000FB6F894DEBF0FBECDBF8E01045E1F4F3B
:10200000F801C190D1908F0160E080E00E9442050C
:10201000C6010E94DA169093C6058093C505D0923A
:10202000C805C092C705D80189EC682E85E0782ED6
:1020300097E5892E91E0992ECE0101965C01C601AB
:102040000196F6012491222309F460C02432B9F4E8
:102050002D01F2E04F0E511CED90FC9022E0C20EDB
:10206000D11CFC0184918634B1F158F48434B1F070
:1020700010E000E08534A1F110E000E01BC06C012D
:10208000DECF8834B9F18335B9F7F701019000202C
:10209000E9F731978F010E191F090CC0B501C7016F
:1020A0000E941701F50101900020E9F731978F0197
:1020B0000A191B09F301E192F1923F018091C505D4
:1020C0009091C6050297080F191F1093C60500933B
:1020D000C505D201B4CFC7010E94DA168C01EACF40
:1020E000C8018E0D9F1D0E94E316882319F30F5F10
:1020F0001F4FF6CF1C821B829A8289826E2DC501EA
:102100000E942808C5010E94C905E8CF29960FB68C
:10211000F894DEBF0FBECDBFDF91CF911F910F911D
:10212000FF90EF90DF90CF90BF90AF909F908F90F7
:102130007F906F905F904F9008951F920F920FB60F
:102140000F9211242F933F938F939F93AF93BF933D
:102150008091BD059091BE05A091BF05B091C005CD
:102160003091BC0523E0230F2D3758F50196A11DB2
:10217000B11D2093BC058093BD059093BE05A0932F
:10218000BF05B093C0058091C1059091C205A09193
:10219000C305B091C4050196A11DB11D8093C10571
:1021A0009093C205A093C305B093C405BF91AF91AE
:1021B0009F918F913F912F910F900FBE0F901F9085
:1021C000189526E8230F0296A11DB11DD2CF1F92AC
:1021D0000F920FB60F9211242F933F934F935F935B
:1021E0006F937F938F939F93AF93BF93EF93FF93DF
:1021F0008FE496E00E942903FF91EF91BF91AF9188
:102200009F918F917F916F915F914F913F912F910E
:102210000F900FBE0F901F9018951F920F920FB640
:102220000F9211242F938F939F93EF93FF93E0913D
:102230005F06F09160068081E0916506F091660688
:1022400082FD1BC09081809168068F5F8F73209103
:102250006906821741F0E0916806F0E0E15BF94F12
:10226000958F80936806FF91EF919F918F912F91A9
:102270000F900FBE0F901F9018958081F4CF1F9282
:102280000F920FB60F9211242F933F934F935F93AA
:102290006F937F938F939F93AF93BF93CF93DF936E
:1022A000EF93FF938091D801C0911007D0E087FF92
:1022B00024C010928500109284008091D8018F5F15
:1022C0008093D8018091D801082E000C990B8C17AF
:1022D0009D0724F48091D8018C30C4F18091840052
:1022E00090918500049680349C4908F47AC08091CE
:1022F000840090918500049676C08091D801082EC4
:10230000000C990B8C179D07C4F6E091D8018E2F15
:10231000EE0F990BFC01EE0FFF1FE80FF91FE451C0
:10232000F94F808186FFC9CFE091D8018E2FEE0F43
:10233000990BFC01EE0FFF1FE80FF91FE451F94F55
:10234000808160E08F730E949901B7CF2091840053
:1023500030918500E091D8018E2FEE0F990BFC0192
:10236000EE0FFF1FE80FF91FE451F94F81819281B1
:10237000820F931F9093890080938800E091D80189
:102380008E2FEE0F990BFC01EE0FFF1FE80FF91FC8
:10239000E451F94F808186FF11C0E091D8018E2F62
:1023A000EE0F990BFC01EE0FFF1FE80FF91FE45130
:1023B000F94F808161E08F730E949901FF91EF9145
:1023C000DF91CF91BF91AF919F918F917F916F914D
:1023D0005F914F913F912F910F900FBE0F901F90E3
:1023E000189580E49CE990938900809388008FEF92
:1023F0008093D801E3CF20912902309127023093B6
:1024000029022093270220912A023091280230933A
:102410002A0220932802E5E0F2E021A5820F911D17
:1024200025A585A7662381F021A7892F99273197B4
:1024300022E0E130F20789F7109237021092380259
:1024400080E580933302089511A6EFCF262F2061F7
:1024500020933402643021F0009711F481E090E081
:1024600061E00E94FB111092150288E2809316022F
:102470000E94040884E0809335021092360222E024
:102480004CE150E06AE182E30E94FA0386E390E0C7
:102490000C946E06109252061092510688EE93E04C
:1024A000A0E0B0E08093530690935406A0935506A5
:1024B000B093560685E491E09093500680934F06C2
:1024C00085EC90E090935C0680935B0684EC90E052
:1024D00090935E0680935D0680EC90E0909360069A
:1024E00080935F0681EC90E0909362068093610692
:1024F00082EC90E0909364068093630686EC90E013
:10250000909366068093650610926806109269069D
:1025100010926A0610926B06809110078C30A8F515
:1025200091E0980F909310078093200790E0FC01B2
:10253000EE0FFF1FE80FF91FE451F94F88EB9BE006
:102540009283818310921B0710921A0710921D0725
:1025500010921C0710921F0710921E0750E040E0D7
:1025600061E671E08AE197E00E94B00810921407DA
:102570001092130787E591E090931207809311075B
:10258000109218071092160708958FEF8093200776
:10259000D9CFCF93DF93CDB7DEB72E970FB6F89490
:1025A000DEBF0FBECDBF789484B5826084BD84B594
:1025B000816084BD85B5826085BD85B5816085BD3E
:1025C00080916E00816080936E00109281008091F6
:1025D000810082608093810080918100816080937E
:1025E0008100809180008160809380008091B100A3
:1025F00084608093B1008091B00081608093B000CE
:1026000080917A00846080937A0080917A00826061
:1026100080937A0080917A00816080937A00809123
:102620007A00806880937A001092C10061E082E0B5
:102630000E94E50161E083E00E94E50160E080E046
:102640000E94E50161E081E00E94E50180912007A0
:102650008C3008F051C061E084E00E94E501809177
:102660002007282F30E0F901EE0FFF1FE20FF31FC4
:10267000E451F94F9081907C9460908310922107EF
:10268000109222072CE0622F0E948517829FB001D2
:10269000112430E020E0AB01420F531FFA01EE0F8E
:1026A000FF1FE40FF51FE451F94F908196FD16C00E
:1026B0002F5F3F4F2C30310571F781110FC0109201
:1026C000800082E080938100109285001092840047
:1026D000B19A80916F00826080936F00E091200733
:1026E0008E2F90E0FC01EE0FFF1FE80FF91FE45161
:1026F000F94F80818064808390E080E00E94340103
:10270000E0915F06F091600682E08083E0915B06D5
:10271000F0915C061082E0915D06F0915E068FEC10
:10272000808310926706E0916306F091640686E06C
:102730008083E0916106F0916206808180618083F0
:10274000E0916106F0916206808188608083E0916B
:102750006106F0916206808180688083E091610665
:10276000F091620680818F7D80831092AF0587E3B0
:1027700090E0C12CD12C7601C3940097C1F0FC01EC
:1027800053E0F595E7955A95E1F7EC56FA4F282F67
:102790002770B701A60104C0440F551F661F771F9D
:1027A0002A95D2F72081242B20830197E6CF6EE271
:1027B00071E08BE995E00E94E90784E893E090934B
:1027C0009305809392050CB406FC25C061E08AE075
:1027D0000E94E50161E08AE00E94990161E08BE0DE
:1027E0000E94E50161E08DE00E94E50160E08CE07F
:1027F0000E94E50161E08BE00E94990160E08BE0BE
:102800000E94990160E08DE00E94990180E58CBDF5
:102810008DB581608DBD8AE08093910561E00E9455
:10282000E5010E949E044FEF60E08FEF0E94F704E5
:1028300062E070E080E090E00E943B020E94A5040C
:102840008DE10E94990480E00E9499041EB50E94C7
:102850009E04112399F370E060E088E00E94350542
:1028600070E060E08CE00E9435056FEF7BE08AE06D
:102870000E94350560E07CE084E00E9435056FEF42
:1028800071E186E00E94350566E774E084E10E940C
:10289000B70661EB88E30E9428056FE370E388E2E6
:1028A0000E94350569EF77EF80E30E94350561E00E
:1028B00080EC0E94280542E362EC80E80E94F70465
:1028C00062E17CE086EC0E94350562E184EC0E94C6
:1028D00028056CED75E08AEC0E94350560919B053A
:1028E00084EE0E94280560919C0585EE0E942805D3
:1028F00060919D0582EE0E94280560919E0583EE01
:102900000E94280560919F0580EE0E942805609135
:10291000A00581EE0E94280560E071E080E10E9440
:10292000B7068FE10E940C0540EC6BE180E80E9445
:10293000F70444E06FE180E80E94F70482E70E9418
:10294000EB051092AF056AE271E08BE496E00E941D
:10295000FC071092AA051092A90581E08093B005AA
:1029600066E271E085EA95E00E94FC07EBE4F6E0A0
:1029700027E436E061EA75E04FE456E09191D90131
:102980008D919D018095892BDB018D93BD014E17A3
:102990005F07A1F762E271E081EB95E00E94FC071E
:1029A00064E771E08FE496E00E94620741EBE42E59
:1029B00045E0F42E10E0F70141917F0150E070E016
:1029C00060E02AE08FE496E00E947107133029F05E
:1029D0006EE28FE496E00E944B031F5F143059F7BC
:1029E0006FE571E08FE496E00E9462078DE791E069
:1029F0000E94BD070E9403060E944D0A0E943E08E5
:102A0000182F6BE871E081E197E00E9462070E9455
:102A1000D00781E197E00E94C9051F921F939F9301
:102A20008F9380EE90E09F938F932DE730E03F935C
:102A30002F939F938F9382E890E09F938F930E94B0
:102A4000E50F0E94C403182F0E946D026B017C01E8
:102A50000FB6F894DEBF0FBECDBF0BE70E946D022C
:102A60006C197D098E099F096838734181059105AC
:102A7000C8F40E9403060E944D0A809134012091FF
:102A8000B5053091B605181719F080933401E6CFDB
:102A90002115310519F400933401E0CF1B3799F368
:102AA0008BE7F1CF85E991E00E94BD0790EEE92E1A
:102AB00090E0F92E2BEDC22E20E0D22E3CEEA32E7C
:102AC00030E0B32E8BE7982E0E9403060E944D0A39
:102AD00018861F821A8619861C861B8650E040E0E5
:102AE00061E671E0CE0107960E94B0088FE496E09F
:102AF0000E940903892BC9F11A8219821C821B8248
:102B00001E821D8250E040E061E671E0CE01019638
:102B10000E94B0080E94C9024D815E8197FD1AC0D3
:102B20008D871E868A010F5F1F4FB801CE01019667
:102B30000E945C08882371F329813A818D819E81EE
:102B4000BE01635F7F4F820F931F0E94A3191E83F4
:102B50000D83E0CF69817A81CE0107960E948408B7
:102B6000CE0101960E945408C1CF4B855C8541156A
:102B7000510531F06F8178858AE197E00E948408E1
:102B80008091BB05882329F10E946D020091B70551
:102B90001091B8052091B9053091BA05601B710BF1
:102BA000820B930B683873418105910590F0109268
:102BB000BB0590E080E00E94340160E082E00E946A
:102BC000990150E040E061E671E08AE197E00E94FF
:102BD000B00880911E0790911F070A9709F0B1C0B5
:102BE0001A8219821C821B821E821D8260911A0722
:102BF00070911B076115710531F04AE050E0CE017C
:102C000001960E94B0080E9403060E944D0A0E948D
:102C10003E08182F69EA71E081E197E00E9462079F
:102C20004D815E8169817A8181E197E00E9479021C
:102C30000E94D00781E197E00E94C9051F921F936F
:102C40009F938F93FF92EF92DF92CF92FF92EF923A
:102C5000BF92AF920E94E50F0E94C403182F0E94FA
:102C60006D022B013C010FB6F894DEBF0FBECDBF45
:102C70000E946D026419750986099709683C7105FF
:102C80008105910508F06EC00E9403060E944D0A5E
:102C9000809134011813ECCF909234018091B505E6
:102CA0009091B605892B21F311E0CE0101960E9487
:102CB00054086FEA71E08FE496E00E946207409149
:102CC0001E0750911F0770E060E02AE08FE496E055
:102CD0000E9471076FE571E08FE496E00E94620741
:102CE0006FEB71E08FE496E00E94620782E691E06C
:102CF000111102C08AE691E00E94BD071123A1F1E3
:102D000061E082E00E94990160E083E00E94990105
:102D10008AE590E00E94340181E08093BB050E9427
:102D20006D026093B7057093B8058093B9059093D1
:102D3000BA0550E040E061E671E08AE197E00E9468
:102D4000B008CE0107960E94540880E090E0892BDD
:102D500009F4BACE0E941503882309F4B3CE0E9469
:102D60000000B0CE10E0A1CF60E082E00E949901A7
:102D700061E083E00E94990190E080E00E943401CC
:102D800064EF71E080E090E00E943B0260E083E04D
:102D90000E9499011092BB05CCCF8AE197E00C9478
:102DA0005408FB01DC0102C005900D9241505040D7
:102DB000D8F70895FC0105900020E9F780959095DB
:102DC0008E0F9F1F0895F999FECF92BD81BDF89A8D
:102DD000992780B50895052E97FB1EF400940E9454
:102DE000021757FD07D00E94541707FC03D04EF47A
:102DF0000C94021750954095309521953F4F4F4FB9
:102E00005F4F089590958095709561957F4F8F4F96
:102E10009F4F08950E947617A59F900DB49F900D27
:102E2000A49F800D911D11240895B7FF0C940A17DB
:102E30000E940A17821B930B08952F923F924F9284
:102E40005F926F927F928F929F92AF92BF92CF923A
:102E5000DF92EF92FF920F931F93CF93DF93CDB743
:102E6000DEB7CA1BDB0B0FB6F894DEBF0FBECDBFBB
:102E700009942A88398848885F846E847D848C848C
:102E80009B84AA84B984C884DF80EE80FD800C8195
:102E90001B81AA81B981CE0FD11D0FB6F894DEBF78
:102EA0000FBECDBFED010895A1E21A2EAA1BBB1BD8
:102EB000FD010DC0AA1FBB1FEE1FFF1FA217B30706
:102EC000E407F50720F0A21BB30BE40BF50B661F1C
:102ED000771F881F991F1A9469F7609570958095E0
:102EE00090959B01AC01BD01CF010895A29FB00157
:102EF000B39FC001A39F700D811D1124911DB29F2E
:102F0000700D811D1124911D0895991B79E004C055
:102F1000991F961708F0961B881F7A95C9F7809518
:102F20000895AA1BBB1B51E107C0AA1FBB1FA61710
:102F3000B70710F0A61BB70B881F991F5A95A9F762
:102F400080959095BC01CD010895EE0FFF1F05906F
:102F5000F491E02D09940F931F93CF93DF93823068
:102F6000910510F482E090E0E0912507F0912607AA
:102F700030E020E0B0E0A0E0309799F42115310571
:102F800009F44AC0281B390B24303105D8F58A8151
:102F90009B816115710589F1FB0193838283FE0199
:102FA00011C0408151810281138148175907E0F017
:102FB0004817590799F4109761F012960C931297DD
:102FC00013961C933296CF01DF91CF911F910F91F1
:102FD00008950093250710932607F4CF2115310596
:102FE00051F04217530738F0A901DB019A01BD01E6
:102FF000DF01F801C1CFEF01F9CF9093260780934D
:103000002507CDCFFE01E20FF31F8193919322504C
:10301000310939832883D7CF2091230730912407A2
:10302000232B41F42091370130913801309324074C
:103030002093230720913501309136012115310568
:1030400041F42DB73EB74091390150913A01241B0C
:10305000350BE0912307F0912407E217F307A0F462
:103060002E1B3F0B2817390778F0AC014E5F5F4FDE
:103070002417350748F04E0F5F1F509324074093E5
:103080002307819391939FCFF0E0E0E09CCFCF9313
:10309000DF930097E9F0FC01329713821282A0912E
:1030A0002507B0912607ED0130E020E01097A1F44C
:1030B00020813181820F931F2091230730912407B3
:1030C0002817390709F061C0F0932407E09323071C
:1030D000DF91CF910895EA01CE17DF07E8F54A8125
:1030E0005B819E0141155105B1F7E901FB83EA833C
:1030F00049915991C40FD51FEC17FD0761F48081E8
:1031000091810296840F951FE901998388838281BA
:1031100093819B838A83F0E0E0E012968D919C91ED
:1031200013970097B9F52D913C911197CD01029617
:10313000820F931F20912307309124072817390706
:1031400039F6309751F51092260710922507B09363
:103150002407A0932307BCCFD383C283408151812E
:10316000840F951FC817D90761F44E5F5F4F8881A0
:103170009981480F591F518340838A819B81938392
:1031800082832115310509F0B0CFF0932607E09333
:1031900025079ECFFD01DC01C0CF13821282D7CF5D
:1031A000B0E0A0E0E6EDF8E10C941F178C01009769
:1031B00051F4CB010E94AB178C01C801CDB7DEB72B
:1031C000E0E10C943B17FC01E60FF71F9C01225035
:1031D0003109E217F30708F49DC0D901CD91DC91C4
:1031E0001197C617D70798F0C530D10530F3CE0137
:1031F00004978617970708F3C61BD70B2297C1932E
:10320000D1936D937C93CF010E944718D6CF5B0179
:10321000AC1ABD0A4C018C0E9D1EA0912507B091E1
:103220002607512C412CF12CE12C109731F580917F
:103230002307909124078815990509F05CC046166C
:10324000570608F058C080913501909136010097DB
:1032500041F48DB79EB74091390150913A01841BDA
:10326000950BE817F90708F055C0F0932407E09391
:103270002307F90171836083A0CF8D919C911197F1
:1032800012966C90129713967C901397A815B90517
:1032900059F56C0142E0C40ED11CCA14DB0420F1C4
:1032A000AC014A195B09DA011296159780F0628227
:1032B000738251834083D9016D937C93E114F104AF
:1032C00071F0D7011396FC93EE93129776CF229666
:1032D0008C0F9D1FF90191838083F301EFCFF09351
:1032E0002607E093250769CF4816590608F42C01F4
:1032F0007D01D3019ACFCB010E94AB177C010097CF
:1033000049F0AE01B8010E949A19C8010E944718FD
:10331000870153CF10E000E050CFFB01DC0104C077
:103320008D910190801921F441505040C8F7881BBD
:10333000990B0895FB01DC0102C001900D924150F0
:103340005040D8F70895FB01DC0101900D92002058
:10335000E1F7089510E0CCECD0E004C0FE010E943B
:10336000A5172196CD3CD107C9F7F894FFCF41723C
:103370006475696E6F2D454E4332386A36302D3094
:1033800030000000000000000000000000000A0102
:10339000C0A80201C0A80201C0A802027569692D77
:1033A00030317B000027078000FFFFFFFFFFFF0099
:1033B0000000004B037902A60298030903B502FB43
:1033C0000200000000320779025F075E070D0A0065
:1033D000436F727265637400496E636F72726563E6
:1033E00074005365727665723A20004761746577A0
:1033F000617920666F756E640048616E6473686100
:103400006B650048616E647368616B6520636F6D06
:10341000706C6574656400726669643D000A496E8B
:10342000707574204C656E6774683A20005365713E
:1034300075656E636520436865636B2052657375BF
:063440006C743A2000004C
:107E0000112484B714BE81FFF0D085E080938100F7
:107E100082E08093C00088E18093C10086E0809377
:107E2000C20080E18093C4008EE0C9D0259A86E02C
:107E300020E33CEF91E0309385002093840096BBD3
:107E4000B09BFECF1D9AA8958150A9F7CC24DD24C4
:107E500088248394B5E0AB2EA1E19A2EF3E0BF2EE7
:107E6000A2D0813461F49FD0082FAFD0023811F036
:107E7000013811F484E001C083E08DD089C08234E0
:107E800011F484E103C0853419F485E0A6D080C0E4
:107E9000853579F488D0E82EFF2485D0082F10E0AE
:107EA000102F00270E291F29000F111F8ED06801E7
:107EB0006FC0863521F484E090D080E0DECF843638
:107EC00009F040C070D06FD0082F6DD080E0C81688
:107ED00080E7D80618F4F601B7BEE895C0E0D1E017
:107EE00062D089930C17E1F7F0E0CF16F0E7DF06D8
:107EF00018F0F601B7BEE89568D007B600FCFDCFD4
:107F0000A601A0E0B1E02C9130E011968C91119780
:107F100090E0982F8827822B932B1296FA010C0160
:107F200087BEE89511244E5F5F4FF1E0A038BF0790
:107F300051F7F601A7BEE89507B600FCFDCF97BE46
:107F4000E89526C08437B1F42ED02DD0F82E2BD052
:107F50003CD0F601EF2C8F010F5F1F4F84911BD097
:107F6000EA94F801C1F70894C11CD11CFA94CF0C13
:107F7000D11C0EC0853739F428D08EE10CD085E9AC
:107F80000AD08FE07ACF813511F488E018D01DD067
:107F900080E101D065CF982F8091C00085FFFCCF94
:107FA0009093C60008958091C00087FFFCCF809118
:107FB000C00084FD01C0A8958091C6000895E0E648
:107FC000F0E098E1908380830895EDDF803219F02E
:107FD00088E0F5DFFFCF84E1DECF1F93182FE3DFCA
:107FE0001150E9F7F2DF1F91089580E0E8DFEE27F6
:047FF000FF270994CA
:027FFE00040479
:00000001FF
