:100000000C945E000C9486000C9486000C94860080
:100010000C9486000C9486000C9486000C94860048
:100020000C9486000C9486000C9486000C941C049E
:100030000C9486000C9486000C9486000C94860028
:100040000C947A030C9486000C94EA030C94C40379
:100050000C9486000C9486000C9486000C94860008
:100060000C9486000C9486000000000024002700F9
:100070002A0000000000250028002B0004040404CE
:100080000404040402020202020203030303030342
:10009000010204081020408001020408102001021F
:1000A00004081020000000080002010000030407FB
:1000B0000000000000000000D804CA0711241FBE81
:1000C000CFEFD8E0DEBFCDBF11E0A0E0B1E0E4E0CB
:1000D000F5E102C005900D92A036B107D9F722E0F4
:1000E000A0E6B1E001C01D92AE33B207E1F710E027
:1000F000CDE5D0E004C02197FE010E947408CC3504
:10010000D107C9F70E9446050C94750A0C940000AB
:100110008F929F92AF92BF92FF920F931F93CF93B4
:10012000DF93F09037022BE02F1508F44CC020919C
:10013000390208E512E0021B110927FD1395000F93
:10014000111F000F111F20913802C8E8D0E0C21B18
:10015000D10927FDD395CC0FDD1FCC0FDD1F4E013C
:100160000D2E000CAA08BB089801012E000C440BB0
:10017000550B281939094A095B09DC010E94F80767
:1001800024EB30E040E050E00E94CE07820E931E48
:10019000A41EB51E8C169D062CF0E8018016910653
:1001A0000CF4E4012297CC0FDD1F2FB7F8948F2DAC
:1001B00090E0FC01EE0FFF1FE80FF91FE45FFD4F19
:1001C000D283C1832FBFDF91CF911F910F91FF90F9
:1001D000BF90AF909F908F90089590E0FC01EC55F8
:1001E000FF4F2491FC01E057FF4F3491FC01E4588C
:1001F000FF4FE491EE23C9F0222339F0233001F1BF
:10020000A8F4213019F1223029F1F0E0EE0FFF1FA0
:10021000EE58FF4FA591B4918FB7F894EC9161110E
:1002200026C030953E233C938FBF08952730A9F018
:100230002830C9F0243049F7809180008F7D03C0B9
:10024000809180008F7780938000DFCF84B58F7797
:1002500084BDDBCF84B58F7DFBCF8091B0008F77DD
:100260008093B000D2CF8091B0008F7DF9CF3E2B2C
:10027000DACFCF93DF9390E0FC01E057FF4F24915A
:1002800084589F4FFC0184918823D1F090E0880F1F
:10029000991FFC01E859FF4FA591B491FC01EE585C
:1002A000FF4FC591D49161110EC09FB7F8948C9106
:1002B000E22FE0958E238C932881E223E8839FBF71
:1002C000DF91CF9108958FB7F894EC91E22BEC93E6
:1002D0008FBFF6CF3FB7F894809167019091680186
:1002E000A0916901B0916A0126B5A89B05C02F3F76
:1002F00019F00196A11DB11D3FBFBA2FA92F982F4C
:100300008827BC01CD01620F711D811D911D42E046
:10031000660F771F881F991F4A95D1F70895AF92EE
:10032000BF92CF92DF92EF92FF920F931F93CF93E2
:10033000DF936C017B018B01040F151FEB015E0144
:10034000AE18BF08C017D10759F06991D601ED91D9
:10035000FC910190F081E02DC6010995892B79F778
:10036000C501DF91CF911F910F91FF90EF90DF902A
:10037000CF90BF90AF900895FC01538D448D252FF1
:1003800030E0842F90E0821B930B541710F0CF962F
:10039000089501970895FC01918D828D981761F061
:1003A000A28DAE0FBF2FB11D5D968C91928D9F5F78
:1003B0009F73928F90E008958FEF9FEF08952FB76E
:1003C000F89480916B0190916C01A0916D01B091B6
:1003D0006E012FBF8093770190937801A0937901EC
:1003E000B0937A018FE691E00E94CB0197FF26C07F
:1003F0002FB7F89480916B0190916C01A0916D01E1
:10040000B0916E012FBF40917701509178016091BA
:10041000790170917A01841B950BA60BB70B409163
:100420007301509174016091750170917601841788
:100430009507A607B707B0F28FEF9FEF0895FC016D
:10044000918D828D981731F0828DE80FF11D858D89
:1004500090E008958FEF9FEF0895FC01918D228D1C
:10046000892F90E0805C9F4F821B91098F739927A1
:1004700008958FE691E00E942D0221E0892B09F476
:1004800020E0822F089580E090E0892B29F00E94DF
:10049000390281110C9400000895FC01A48DA80F6D
:1004A000B92FB11DA35ABF4F2C91848D90E00196B6
:1004B0008F739927848FA689B7892C93A089B189D6
:1004C0008C91837080648C93938D848D981306C077
:1004D0000288F389E02D80818F7D80830895EF92DB
:1004E000FF920F931F93CF93DF93EC0181E0888FEE
:1004F0009B8D8C8D98131AC0E889F989808185FFBE
:1005000015C09FB7F894EE89FF896083E889F9895F
:1005100080818370806480839FBF81E090E0DF9161
:10052000CF911F910F91FF90EF900895F62E0B8DB4
:1005300010E00F5F1F4F0F731127E02E8C8D8E116F
:100540000CC00FB607FCFACFE889F989808185FFD6
:10055000F5CFCE010E944D02F1CFEB8DEC0FFD2FB8
:10056000F11DE35AFF4FF0829FB7F8940B8FEA8991
:10057000FB8980818062CFCFCF93DF93EC01888DA0
:100580008823B9F0AA89BB89E889F9898C9185FD0E
:1005900003C0808186FD0DC00FB607FCF7CF8C919C
:1005A00085FFF2CF808185FFEDCFCE010E944D0205
:1005B000E9CFDF91CF910895FC0101900020E9F788
:1005C0003197AF01481B590BBC018FE691E00C94A9
:1005D0008F01FC0180819181009711F00C94160924
:1005E00008950F931F93CF93DF93EC018881998136
:1005F000009759F02A813B812617370730F081E0B8
:10060000DF91CF911F910F9108958B016F5F7F4F05
:100610000E949F09009759F0998388831B830A835E
:100620002C813D81232B59F7FC011082E8CF80E01B
:10063000E7CFEF92FF920F931F93CF93DF93611554
:10064000710541F480E0DF91CF911F910F91FF90F0
:10065000EF90089541155105B1F07B01EC010C813B
:100660001D81040F151FB8010E94F102882351F368
:10067000288139818C819D81B701820F931F0E944F
:100680006E0A1D830C8381E0DECFEF92FF920F9301
:100690001F93CF93DF93EC017B018A01BA010E9483
:1006A000F10228813981811114C02115310519F019
:1006B000C9010E941609198218821D821C821B82A0
:1006C0001A82CE01DF91CF911F910F91FF90EF9091
:1006D00008951D830C83B701C9010E946E0AF1CFF2
:1006E000FB0101900020E9F73197AF01461B570B42
:1006F0000C9445031F920F920FB60F9211242F9363
:100700003F938F939F93AF93BF9380916B01909191
:100710006C01A0916D01B0916E013091660123E0F2
:10072000230F2D3758F50196A11DB11D20936601A9
:1007300080936B0190936C01A0936D01B0936E0157
:100740008091670190916801A0916901B0916A015F
:100750000196A11DB11D8093670190936801A0933C
:100760006901B0936A01BF91AF919F918F913F91C1
:100770002F910F900FBE0F901F90189526E8230F12
:100780000296A11DB11DD2CF1F920F920FB60F92EC
:1007900011242F933F934F935F936F937F938F9386
:1007A0009F93AF93BF93EF93FF938FE691E00E94E7
:1007B0004D02FF91EF91BF91AF919F918F917F91EA
:1007C0006F915F914F913F912F910F900FBE0F90BE
:1007D0001F9018951F920F920FB60F9211242F930E
:1007E0008F939F93EF93FF93E0917F01F0918001AE
:1007F0008081E0918501F091860182FD1BC090818E
:10080000809188018F5F8F7320918901821741F059
:10081000E0918801F0E0E159FE4F958F80938801C7
:10082000FF91EF919F918F912F910F900FBE0F909D
:100830001F9018958081F4CF1F920F920FB60F92E0
:1008400011242F933F934F935F936F937F938F93D5
:100850009F93AF93BF93CF93DF93EF93FF938091D9
:100860006001C0913002D0E087FF24C01092850063
:1008700010928400809160018F5F8093600180916D
:100880006001082E000C990B8C179D0724F48091B1
:1008900060018C30C4F180918400909185000496B1
:1008A00080349C4908F47AC080918400909185003E
:1008B000049676C080916001082E000C990B8C176D
:1008C0009D07C4F6E09160018E2FEE0F990BFC019D
:1008D000EE0FFF1FE80FF91FE45FFD4F808186FFD9
:1008E000C9CFE09160018E2FEE0F990BFC01EE0F46
:1008F000FF1FE80FF91FE45FFD4F808160E08F73F9
:100900000E94ED00B7CF2091840030918500E091E6
:1009100060018E2FEE0F990BFC01EE0FFF1FE80F09
:10092000F91FE45FFD4F81819281820F931F9093A5
:10093000890080938800E09160018E2FEE0F990B63
:10094000FC01EE0FFF1FE80FF91FE45FFD4F8081F0
:1009500086FF11C0E09160018E2FEE0F990BFC0114
:10096000EE0FFF1FE80FF91FE45FFD4F808161E08C
:100970008F730E94ED00FF91EF91DF91CF91BF91B6
:10098000AF919F918F917F916F915F914F913F9127
:100990002F910F900FBE0F901F90189580E49CE947
:1009A00090938900809388008FEF80936001E3CF5C
:1009B000109272011092710188EE93E0A0E0B0E015
:1009C0008093730190937401A0937501B0937601A5
:1009D0008AE091E09093700180936F0185EC90E044
:1009E00090937C0180937B0184EC90E090937E0156
:1009F00080937D0180EC90E09093800180937F0153
:100A000081EC90E0909382018093810182EC90E0F0
:100A1000909384018093830186EC90E0909386010B
:100A200080938501109288011092890110928A01A9
:100A300010928B01809130028C3020F591E0980F5C
:100A4000909330028093370290E0FC01EE0FFF1F7D
:100A5000E80FF91FE45FFD4F88EB9BE092838183F1
:100A6000109232021092310210923402109233022C
:100A7000109236021092350267E471E081E392E051
:100A80000C9470038FEF80933702EACFCF93DF93FC
:100A9000CDB7DEB7AD970FB6F894DEBF0FBECDBFB2
:100AA000789484B5826084BD84B5816084BD85B549
:100AB000826085BD85B5816085BD80916E00816055
:100AC00080936E00109281008091810082608093FB
:100AD00081008091810081608093810080918000FD
:100AE0008160809380008091B10084608093B10028
:100AF0008091B00081608093B00080917A00846022
:100B000080937A0080917A00826080937A0080914D
:100B10007A00816080937A0080917A008068809367
:100B20007A001092C10061E08CE00E94390161E01E
:100B30008DE00E94390160E080E00E94390161E0AF
:100B400081E00E943901809137028C3008F051C059
:100B500061E08BE00E94390180913702282F30E05C
:100B6000F901EE0FFF1FE20FF31FE45FFD4F9081CD
:100B7000907C9B60908310923802109239022CE096
:100B8000622F0E946808829FB001112430E020E0AB
:100B9000AB01420F531FFA01EE0FFF1FE40FF51FC9
:100BA000E45FFD4F908196FD16C02F5F3F4F2C30C4
:100BB000310571F781110FC01092800082E080939F
:100BC00081001092850010928400B19A80916F008C
:100BD000826080936F00E09137028E2F90E0FC01DD
:100BE000EE0FFF1FE80FF91FE45FFD4F8081806467
:100BF000808390E080E00E948800E0917F01F09186
:100C0000800182E08083E0917B01F0917C01108281
:100C1000E0917D01F0917E018FEC8083109287013D
:100C2000E0918301F091840186E08083E09181016D
:100C3000F0918201808180618083E0918101F09157
:100C40008201808188608083E0918101F09182013E
:100C5000808180688083E0918101F09182018081B0
:100C60008F7D80839AE0892E912CA12CB12C20E0DD
:100C7000222E20E0322E19A618A61BA61AA61DA603
:100C80001CA667E471E0CE0188960E9470038FE68F
:100C900091E00E942D02892BC1F11A8219821C82D7
:100CA0001B821E821D8267E471E0CE0101960E94C4
:100CB00070030E94DF014D815E8197FD1BC08AA3F6
:100CC0001BA26A012FEFC21AD20AB601CE01019609
:100CD0000E94F102882369F329813A818D819E81E6
:100CE000BE016E5D7F4F820F931F0E946E0ADE82EF
:100CF000CD82DFCF69817A81CE0188960E94190367
:100D0000CE0101960E94E902C2CF4CA55DA5411516
:100D1000510531F068A579A581E392E00E9419039D
:100D200080916501882371F12FB7F89480916B0150
:100D300090916C01A0916D01B0916E012FBF409117
:100D40006101509162016091630170916401841BA3
:100D5000950BA60BB70B88389341A105B10590F010
:100D60001092650190E080E00E94880060E08CE0D5
:100D70000E94ED0050E040E067E471E081E392E022
:100D80000E94450380913502909136020A9709F03E
:100D9000EBC01BA21AA21DA21CA21FA21EA2609140
:100DA0003102709132026115710531F04AE050E074
:100DB000CE0182960E9445031A8219821C821B82F0
:100DC0001E821D826AE271E0CE0101960E947003CC
:100DD0002EA13FA18D819E8128173907F1F48AA1A8
:100DE0009BA169817A81009709F4CEC061157105D4
:100DF00009F08DC0232B09F4CBC0FC01808190E069
:100E000009C0232B09F4C4C0FB01808190E09195B7
:100E10008195910911E0892B09F010E0CE0101962E
:100E20000E94E902CE0182960E94E90285E391E0E8
:100E30000E94DC02209135023091360250E040E001
:100E400019A26E01F1E2CF0ED11CCA01B901A501B0
:100E500094010E943708605DF60162936F012115CD
:100E600031054105510589F7309719F0CF010E94EE
:100E7000DC0285E491E00E94DC0288E491E00E94BB
:100E8000DC0282E291E0111102C088E191E00E944F
:100E9000DC0285E491E00E94DC0211113BC060E0BD
:100EA0008CE00E94ED0061E08DE00E94ED0090E09A
:100EB00080E00E9488000E946A016B017C0184EF3F
:100EC000482E55245394612C712C0E946A016C1990
:100ED0007D098E099F09683E734081059105A8F33D
:100EE000F1E04F1A51086108710828EEC20E23E0A4
:100EF000D21EE11CF11C411451046104710429F754
:100F000060E08DE00E94ED001092650125C00E9416
:100F1000650A80CF61E08CE00E94ED0060E08DE02A
:100F20000E94ED008AE590E00E94880081E08093B5
:100F300065012FB7F89480916B0190916C01A0919D
:100F40006D01B0916E012FBF80936101909362019A
:100F5000A0936301B093640150E040E067E471E066
:100F600081E392E00E944503CE0188960E94E90247
:100F70002114310409F47FCE0E943902882309F438
:100F80007ACE0E94000077CE6115710509F039CF45
:100F900011E044CF81E392E00C94E902052E97FB27
:100FA0001EF400940E94E50757FD07D00E94370801
:100FB00007FC03D04EF40C94E5075095409530950E
:100FC00021953F4F4F4F5F4F0895909580957095B5
:100FD00061957F4F8F4F9F4F08950E945908A59F9D
:100FE000900DB49F900DA49F800D911D1124089524
:100FF000B7FF0C94ED070E94ED07821B930B089539
:101000002F923F924F925F926F927F928F929F9218
:10101000AF92BF92CF92DF92EF92FF920F931F9306
:10102000CF93DF93CDB7DEB7CA1BDB0B0FB6F894B7
:10103000DEBF0FBECDBF09942A88398848885F84F7
:101040006E847D848C849B84AA84B984C884DF8068
:10105000EE80FD800C811B81AA81B981CE0FD11D4C
:101060000FB6F894DEBF0FBECDBFED010895A1E22B
:101070001A2EAA1BBB1BFD010DC0AA1FBB1FEE1F12
:10108000FF1FA217B307E407F50720F0A21BB30B5D
:10109000E40BF50B661F771F881F991F1A9469F7D9
:1010A00060957095809590959B01AC01BD01CF0135
:1010B0000895A29FB001B39FC001A39F700D811D31
:1010C0001124911DB29F700D811D1124911D089551
:1010D000991B79E004C0991F961708F0961B881F8A
:1010E0007A95C9F780950895EE0FFF1F0590F4914A
:1010F000E02D09940F931F93CF93DF9382309105D6
:1011000010F482E090E0E0913C02F0913D0230E08A
:1011100020E0B0E0A0E0309799F42115310509F402
:101120004AC0281B390B24303105D8F58A819B81B0
:101130006115710589F1FB0193838283FE0111C062
:10114000408151810281138148175907E0F0481707
:10115000590799F4109761F012960C931297139611
:101160001C933296CF01DF91CF911F910F9108957B
:1011700000933C0210933D02F4CF2115310551F04C
:101180004217530738F0A901DB019A01BD01DF01C5
:10119000F801C1CFEF01F9CF90933D0280933C025B
:1011A000CDCFFE01E20FF31F8193919322503109BD
:1011B00039832883D7CF20913A0230913B02232BE9
:1011C00041F4209102013091030130933B022093BE
:1011D0003A0220910001309101012115310541F4BD
:1011E0002DB73EB74091040150910501241B350BEA
:1011F000E0913A02F0913B02E217F307A0F42E1BB4
:101200003F0B2817390778F0AC014E5F5F4F24176A
:10121000350748F04E0F5F1F50933B0240933A0250
:10122000819391939FCFF0E0E0E09CCFCF93DF9349
:101230000097E9F0FC01329713821282A0913C02E0
:10124000B0913D02ED0130E020E01097A1F4208143
:101250003181820F931F20913A0230913B0228176F
:10126000390709F061C0F0933B02E0933A02DF9145
:10127000CF910895EA01CE17DF07E8F54A815B8137
:101280009E0141155105B1F7E901FB83EA834991BC
:101290005991C40FD51FEC17FD0761F4808191812E
:1012A0000296840F951FE901998388838281938137
:1012B0009B838A83F0E0E0E012968D919C911397D6
:1012C0000097B9F52D913C911197CD010296820FAF
:1012D000931F20913A0230913B022817390739F6C3
:1012E000309751F510923D0210923C02B0933B02B0
:1012F000A0933A02BCCFD383C28340815181840F33
:10130000951FC817D90761F44E5F5F4F8881998197
:10131000480F591F518340838A819B819383828325
:101320002115310509F0B0CFF0933D02E0933C0266
:101330009ECFFD01DC01C0CF13821282D7CFB0E077
:10134000A0E0E5EAF9E00C9402088C01009751F462
:10135000CB010E947A088C01C801CDB7DEB7E0E16D
:101360000C941E08FC01E60FF71F9C012250310966
:10137000E217F30708F49DC0D901CD91DC911197D4
:10138000C617D70798F0C530D10530F3CE010497C2
:101390008617970708F3C61BD70B2297C193D193E3
:1013A0006D937C93CF010E941609D6CF5B01AC1AD6
:1013B000BD0A4C018C0E9D1EA0913C02B0913D02D5
:1013C000512C412CF12CE12C109731F580913A02EF
:1013D00090913B028815990509F05CC046165706A6
:1013E00008F058C08091000190910101009741F4EC
:1013F0008DB79EB74091040150910501841B950B58
:10140000E817F90708F055C0F0933B02E0933A0261
:10141000F90171836083A0CF8D919C9111971296F1
:101420006C90129713967C901397A815B90559F5EF
:101430006C0142E0C40ED11CCA14DB0420F1AC01E3
:101440004A195B09DA011296159780F0628273825D
:1014500051834083D9016D937C93E114F10471F0C1
:10146000D7011396FC93EE93129776CF22968C0FAA
:101470009D1FF90191838083F301EFCFF0933D022B
:10148000E0933C0269CF4816590608F42C017D010F
:10149000D3019ACFCB010E947A087C01009749F0D2
:1014A000AE01B8010E945C0AC8010E9416098701BA
:1014B00053CF10E000E050CFFB01DC0102C00190EF
:1014C0000D9241505040D8F70895FB01DC018D91F9
:1014D000019080190110D9F3990B0895FB01DC01EB
:1014E00001900D920020E1F7089510E0CDE5D0E0E5
:1014F00004C0FE010E9474082196CE35D107C9F7B9
:04150000F894FFCF8D
:1015040000003E028000000000006F028F01BC0159
:10151400BC022D02CB011F02496E636F72726563B8
:101524007400436F7272656374003131313131314B
:1015340031313131000A496E707574204C656E6723
:1015440074683A20000D0A0053657175656E636511
:1015540020436865636B20526573756C743A200090
:00000001FF
